{
  "contractName": "Battleship",
  "abi": [
    {
      "inputs": [],
      "stateMutability": "nonpayable",
      "type": "constructor"
    },
    {
      "inputs": [
        {
          "internalType": "string",
          "name": "_message",
          "type": "string"
        }
      ],
      "name": "eventError",
      "type": "error"
    },
    {
      "anonymous": false,
      "inputs": [
        {
          "indexed": false,
          "internalType": "uint256",
          "name": "_gameId",
          "type": "uint256"
        },
        {
          "indexed": true,
          "internalType": "address",
          "name": "_accuser",
          "type": "address"
        },
        {
          "indexed": true,
          "internalType": "address",
          "name": "_accused",
          "type": "address"
        }
      ],
      "name": "accusationTrial",
      "type": "event"
    },
    {
      "anonymous": false,
      "inputs": [
        {
          "indexed": false,
          "internalType": "uint256",
          "name": "_gameId",
          "type": "uint256"
        },
        {
          "indexed": true,
          "internalType": "address",
          "name": "_winner",
          "type": "address"
        },
        {
          "indexed": true,
          "internalType": "address",
          "name": "_looser",
          "type": "address"
        }
      ],
      "name": "gameEnded",
      "type": "event"
    },
    {
      "anonymous": false,
      "inputs": [
        {
          "indexed": false,
          "internalType": "uint256",
          "name": "_gameId",
          "type": "uint256"
        },
        {
          "indexed": true,
          "internalType": "address",
          "name": "_player1",
          "type": "address"
        },
        {
          "indexed": true,
          "internalType": "address",
          "name": "_player2",
          "type": "address"
        },
        {
          "indexed": false,
          "internalType": "uint256",
          "name": "_startTime",
          "type": "uint256"
        }
      ],
      "name": "gameReady",
      "type": "event"
    },
    {
      "anonymous": false,
      "inputs": [
        {
          "indexed": false,
          "internalType": "uint256",
          "name": "_gameId",
          "type": "uint256"
        },
        {
          "indexed": true,
          "internalType": "address",
          "name": "_player1",
          "type": "address"
        },
        {
          "indexed": true,
          "internalType": "address",
          "name": "_player2",
          "type": "address"
        },
        {
          "indexed": false,
          "internalType": "uint256",
          "name": "_grandPrize",
          "type": "uint256"
        }
      ],
      "name": "gameStarted",
      "type": "event"
    },
    {
      "anonymous": false,
      "inputs": [
        {
          "indexed": true,
          "internalType": "address",
          "name": "_from",
          "type": "address"
        },
        {
          "indexed": false,
          "internalType": "uint256",
          "name": "_gameId",
          "type": "uint256"
        }
      ],
      "name": "returnGameId",
      "type": "event"
    },
    {
      "inputs": [],
      "name": "START_TIME",
      "outputs": [
        {
          "internalType": "uint256",
          "name": "",
          "type": "uint256"
        }
      ],
      "stateMutability": "view",
      "type": "function",
      "constant": true
    },
    {
      "inputs": [
        {
          "internalType": "uint256",
          "name": "",
          "type": "uint256"
        }
      ],
      "name": "availableGames",
      "outputs": [
        {
          "internalType": "uint256",
          "name": "",
          "type": "uint256"
        }
      ],
      "stateMutability": "view",
      "type": "function",
      "constant": true
    },
    {
      "inputs": [],
      "name": "game",
      "outputs": [
        {
          "internalType": "uint256",
          "name": "gameId",
          "type": "uint256"
        },
        {
          "internalType": "address",
          "name": "player1",
          "type": "address"
        },
        {
          "internalType": "address",
          "name": "player2",
          "type": "address"
        },
        {
          "internalType": "uint256",
          "name": "grandPrize",
          "type": "uint256"
        },
        {
          "internalType": "uint256",
          "name": "boardSize",
          "type": "uint256"
        },
        {
          "internalType": "uint256",
          "name": "numberOfShips",
          "type": "uint256"
        },
        {
          "internalType": "uint256",
          "name": "remainShipsP1",
          "type": "uint256"
        },
        {
          "internalType": "uint256",
          "name": "remainShipsP2",
          "type": "uint256"
        },
        {
          "internalType": "address",
          "name": "playerTurn",
          "type": "address"
        },
        {
          "internalType": "uint256",
          "name": "penaltyTimeout",
          "type": "uint256"
        },
        {
          "internalType": "address",
          "name": "accusedPlayer",
          "type": "address"
        },
        {
          "internalType": "bool",
          "name": "playable",
          "type": "bool"
        }
      ],
      "stateMutability": "view",
      "type": "function",
      "constant": true
    },
    {
      "inputs": [],
      "name": "gameId",
      "outputs": [
        {
          "internalType": "uint256",
          "name": "",
          "type": "uint256"
        }
      ],
      "stateMutability": "view",
      "type": "function",
      "constant": true
    },
    {
      "inputs": [
        {
          "internalType": "uint256",
          "name": "",
          "type": "uint256"
        }
      ],
      "name": "games",
      "outputs": [
        {
          "internalType": "uint256",
          "name": "gameId",
          "type": "uint256"
        },
        {
          "internalType": "address",
          "name": "player1",
          "type": "address"
        },
        {
          "internalType": "address",
          "name": "player2",
          "type": "address"
        },
        {
          "internalType": "uint256",
          "name": "grandPrize",
          "type": "uint256"
        },
        {
          "internalType": "uint256",
          "name": "boardSize",
          "type": "uint256"
        },
        {
          "internalType": "uint256",
          "name": "numberOfShips",
          "type": "uint256"
        },
        {
          "internalType": "uint256",
          "name": "remainShipsP1",
          "type": "uint256"
        },
        {
          "internalType": "uint256",
          "name": "remainShipsP2",
          "type": "uint256"
        },
        {
          "internalType": "address",
          "name": "playerTurn",
          "type": "address"
        },
        {
          "internalType": "uint256",
          "name": "penaltyTimeout",
          "type": "uint256"
        },
        {
          "internalType": "address",
          "name": "accusedPlayer",
          "type": "address"
        },
        {
          "internalType": "bool",
          "name": "playable",
          "type": "bool"
        }
      ],
      "stateMutability": "view",
      "type": "function",
      "constant": true
    },
    {
      "inputs": [],
      "name": "totalGames",
      "outputs": [
        {
          "internalType": "uint256",
          "name": "",
          "type": "uint256"
        }
      ],
      "stateMutability": "view",
      "type": "function",
      "constant": true
    },
    {
      "inputs": [],
      "name": "getGameId",
      "outputs": [
        {
          "internalType": "uint256",
          "name": "",
          "type": "uint256"
        }
      ],
      "stateMutability": "nonpayable",
      "type": "function"
    },
    {
      "inputs": [
        {
          "internalType": "uint256",
          "name": "_grandPrize",
          "type": "uint256"
        },
        {
          "internalType": "uint256",
          "name": "_boardSize",
          "type": "uint256"
        },
        {
          "internalType": "uint256",
          "name": "_numberOfShips",
          "type": "uint256"
        }
      ],
      "name": "createGame",
      "outputs": [],
      "stateMutability": "nonpayable",
      "type": "function"
    },
    {
      "inputs": [
        {
          "internalType": "uint256",
          "name": "_gameId",
          "type": "uint256"
        }
      ],
      "name": "joinGameByGameId",
      "outputs": [],
      "stateMutability": "nonpayable",
      "type": "function"
    },
    {
      "inputs": [],
      "name": "joinRandomGame",
      "outputs": [],
      "stateMutability": "nonpayable",
      "type": "function"
    }
  ],
  "bytecode": "0x6080604052600180556000600355600f600455600060055534801561002357600080fd5b5061169b806100336000396000f3fe608060405234801561001057600080fd5b506004361061009e5760003560e01c8063c0bd835111610066578063c0bd835114610152578063c274152114610170578063c3fe3e281461018c578063d7c81b55146101b5578063ddaa26ad146101d35761009e565b8063117a5b90146100a35780632c4e591b146100de578063342ca184146100fc5780639966cc83146101065780639decd17c14610136575b600080fd5b6100bd60048036038101906100b89190611184565b6101f1565b6040516100d59c9b9a9998979695949392919061121c565b60405180910390f35b6100e66102de565b6040516100f391906112d6565b60405180910390f35b6101046102e4565b005b610120600480360381019061011b9190611184565b61068b565b60405161012d91906112d6565b60405180910390f35b610150600480360381019061014b9190611184565b6106af565b005b61015a610a0b565b60405161016791906112d6565b60405180910390f35b61018a600480360381019061018591906112f1565b610a29565b005b610194610f35565b6040516101ac9c9b9a9998979695949392919061121c565b60405180910390f35b6101bd611010565b6040516101ca91906112d6565b60405180910390f35b6101db611016565b6040516101e891906112d6565b60405180910390f35b60006020528060005260406000206000915090508060000154908060010160009054906101000a900473ffffffffffffffffffffffffffffffffffffffff16908060020160009054906101000a900473ffffffffffffffffffffffffffffffffffffffff16908060030154908060040154908060050154908060060154908060070154908060080160009054906101000a900473ffffffffffffffffffffffffffffffffffffffff169080600901549080600a0160009054906101000a900473ffffffffffffffffffffffffffffffffffffffff169080600a0160149054906101000a900460ff1690508c565b60035481565b60006102ee61101c565b905060005b60006002838154811061030957610308611344565b5b90600052602060002001541480156103215750600a81105b156103435761032e61101c565b9150808061033b906113a2565b9150506102f3565b600a8103610386576040517f58c16fda00000000000000000000000000000000000000000000000000000000815260040161037d90611447565b60405180910390fd5b6000808381526020019081526020016000206006600082015481600001556001820160009054906101000a900473ffffffffffffffffffffffffffffffffffffffff168160010160006101000a81548173ffffffffffffffffffffffffffffffffffffffff021916908373ffffffffffffffffffffffffffffffffffffffff1602179055506002820160009054906101000a900473ffffffffffffffffffffffffffffffffffffffff168160020160006101000a81548173ffffffffffffffffffffffffffffffffffffffff021916908373ffffffffffffffffffffffffffffffffffffffff16021790555060038201548160030155600482015481600401556005820154816005015560068201548160060155600782015481600701556008820160009054906101000a900473ffffffffffffffffffffffffffffffffffffffff168160080160006101000a81548173ffffffffffffffffffffffffffffffffffffffff021916908373ffffffffffffffffffffffffffffffffffffffff16021790555060098201548160090155600a820160009054906101000a900473ffffffffffffffffffffffffffffffffffffffff1681600a0160006101000a81548173ffffffffffffffffffffffffffffffffffffffff021916908373ffffffffffffffffffffffffffffffffffffffff160217905550600a820160149054906101000a900460ff1681600a0160146101000a81548160ff02191690831515021790555090505033600660020160006101000a81548173ffffffffffffffffffffffffffffffffffffffff021916908373ffffffffffffffffffffffffffffffffffffffff1602179055506105f98261107e565b3373ffffffffffffffffffffffffffffffffffffffff16600660010160009054906101000a900473ffffffffffffffffffffffffffffffffffffffff1673ffffffffffffffffffffffffffffffffffffffff167fbe556bf80b742e14a2f4e42e8e433be5e2e629985e2e20f3d6bd102e04b1d5f68460045460405161067f929190611467565b60405180910390a35050565b6002818154811061069b57600080fd5b906000526020600020016000915090505481565b60008060008381526020019081526020016000206000015403610707576040517f58c16fda0000000000000000000000000000000000000000000000000000000081526004016106fe906114dc565b60405180910390fd5b6000808281526020019081526020016000206006600082015481600001556001820160009054906101000a900473ffffffffffffffffffffffffffffffffffffffff168160010160006101000a81548173ffffffffffffffffffffffffffffffffffffffff021916908373ffffffffffffffffffffffffffffffffffffffff1602179055506002820160009054906101000a900473ffffffffffffffffffffffffffffffffffffffff168160020160006101000a81548173ffffffffffffffffffffffffffffffffffffffff021916908373ffffffffffffffffffffffffffffffffffffffff16021790555060038201548160030155600482015481600401556005820154816005015560068201548160060155600782015481600701556008820160009054906101000a900473ffffffffffffffffffffffffffffffffffffffff168160080160006101000a81548173ffffffffffffffffffffffffffffffffffffffff021916908373ffffffffffffffffffffffffffffffffffffffff16021790555060098201548160090155600a820160009054906101000a900473ffffffffffffffffffffffffffffffffffffffff1681600a0160006101000a81548173ffffffffffffffffffffffffffffffffffffffff021916908373ffffffffffffffffffffffffffffffffffffffff160217905550600a820160149054906101000a900460ff1681600a0160146101000a81548160ff02191690831515021790555090505033600660020160006101000a81548173ffffffffffffffffffffffffffffffffffffffff021916908373ffffffffffffffffffffffffffffffffffffffff16021790555061097a8161107e565b3373ffffffffffffffffffffffffffffffffffffffff16600660010160009054906101000a900473ffffffffffffffffffffffffffffffffffffffff1673ffffffffffffffffffffffffffffffffffffffff167fbe556bf80b742e14a2f4e42e8e433be5e2e629985e2e20f3d6bd102e04b1d5f683600454604051610a00929190611467565b60405180910390a350565b600060016000815480929190610a20906113a2565b91905055905090565b604051806101800160405280610a3d610a0b565b81526020013373ffffffffffffffffffffffffffffffffffffffff168152602001600073ffffffffffffffffffffffffffffffffffffffff168152602001848152602001838152602001828152602001828152602001828152602001600073ffffffffffffffffffffffffffffffffffffffff16815260200160008152602001600073ffffffffffffffffffffffffffffffffffffffff1681526020016001151581525060066000820151816000015560208201518160010160006101000a81548173ffffffffffffffffffffffffffffffffffffffff021916908373ffffffffffffffffffffffffffffffffffffffff16021790555060408201518160020160006101000a81548173ffffffffffffffffffffffffffffffffffffffff021916908373ffffffffffffffffffffffffffffffffffffffff160217905550606082015181600301556080820151816004015560a0820151816005015560c0820151816006015560e082015181600701556101008201518160080160006101000a81548173ffffffffffffffffffffffffffffffffffffffff021916908373ffffffffffffffffffffffffffffffffffffffff160217905550610120820151816009015561014082015181600a0160006101000a81548173ffffffffffffffffffffffffffffffffffffffff021916908373ffffffffffffffffffffffffffffffffffffffff16021790555061016082015181600a0160146101000a81548160ff02191690831515021790555090505060066000806006600001548152602001908152602001600020600082015481600001556001820160009054906101000a900473ffffffffffffffffffffffffffffffffffffffff168160010160006101000a81548173ffffffffffffffffffffffffffffffffffffffff021916908373ffffffffffffffffffffffffffffffffffffffff1602179055506002820160009054906101000a900473ffffffffffffffffffffffffffffffffffffffff168160020160006101000a81548173ffffffffffffffffffffffffffffffffffffffff021916908373ffffffffffffffffffffffffffffffffffffffff16021790555060038201548160030155600482015481600401556005820154816005015560068201548160060155600782015481600701556008820160009054906101000a900473ffffffffffffffffffffffffffffffffffffffff168160080160006101000a81548173ffffffffffffffffffffffffffffffffffffffff021916908373ffffffffffffffffffffffffffffffffffffffff16021790555060098201548160090155600a820160009054906101000a900473ffffffffffffffffffffffffffffffffffffffff1681600a0160006101000a81548173ffffffffffffffffffffffffffffffffffffffff021916908373ffffffffffffffffffffffffffffffffffffffff160217905550600a820160149054906101000a900460ff1681600a0160146101000a81548160ff0219169083151502179055509050506002600660000154908060018154018082558091505060019003906000526020600020016000909190919091505560036000815480929190610ed8906113a2565b91905055503373ffffffffffffffffffffffffffffffffffffffff167f46b1e4e04a224580cba61e1e80978cf849e0bda6bdbec214b0d9f5810f1207fb600660000154604051610f2891906112d6565b60405180910390a2505050565b60068060000154908060010160009054906101000a900473ffffffffffffffffffffffffffffffffffffffff16908060020160009054906101000a900473ffffffffffffffffffffffffffffffffffffffff16908060030154908060040154908060050154908060060154908060070154908060080160009054906101000a900473ffffffffffffffffffffffffffffffffffffffff169080600901549080600a0160009054906101000a900473ffffffffffffffffffffffffffffffffffffffff169080600a0160149054906101000a900460ff1690508c565b60015481565b60045481565b60008060028054905042443360405160200161103a93929190611565565b6040516020818303038152906040528051906020012060001c61105d91906115d1565b905060056000815480929190611072906113a2565b91905055508091505090565b60005b6002805490508110156111455781600282815481106110a3576110a2611344565b5b90600052602060002001540361113257600260016002805490506110c79190611602565b815481106110d8576110d7611344565b5b9060005260206000200154600282815481106110f7576110f6611344565b5b9060005260206000200181905550600280548061111757611116611636565b5b60019003818190600052602060002001600090559055611145565b808061113d906113a2565b915050611081565b5050565b600080fd5b6000819050919050565b6111618161114e565b811461116c57600080fd5b50565b60008135905061117e81611158565b92915050565b60006020828403121561119a57611199611149565b5b60006111a88482850161116f565b91505092915050565b6111ba8161114e565b82525050565b600073ffffffffffffffffffffffffffffffffffffffff82169050919050565b60006111eb826111c0565b9050919050565b6111fb816111e0565b82525050565b60008115159050919050565b61121681611201565b82525050565b600061018082019050611232600083018f6111b1565b61123f602083018e6111f2565b61124c604083018d6111f2565b611259606083018c6111b1565b611266608083018b6111b1565b61127360a083018a6111b1565b61128060c08301896111b1565b61128d60e08301886111b1565b61129b6101008301876111f2565b6112a96101208301866111b1565b6112b76101408301856111f2565b6112c561016083018461120d565b9d9c50505050505050505050505050565b60006020820190506112eb60008301846111b1565b92915050565b60008060006060848603121561130a57611309611149565b5b60006113188682870161116f565b93505060206113298682870161116f565b925050604061133a8682870161116f565b9150509250925092565b7f4e487b7100000000000000000000000000000000000000000000000000000000600052603260045260246000fd5b7f4e487b7100000000000000000000000000000000000000000000000000000000600052601160045260246000fd5b60006113ad8261114e565b91507fffffffffffffffffffffffffffffffffffffffffffffffffffffffffffffffff82036113df576113de611373565b5b600182019050919050565b600082825260208201905092915050565b7f536f6d657468696e6720676f65732077726f6e672c2074727920616761696e21600082015250565b60006114316020836113ea565b915061143c826113fb565b602082019050919050565b6000602082019050818103600083015261146081611424565b9050919050565b600060408201905061147c60008301856111b1565b61148960208301846111b1565b9392505050565b7f4e6f206578697374696e672067616d6520776974682074686973204944200000600082015250565b60006114c6601e836113ea565b91506114d182611490565b602082019050919050565b600060208201905081810360008301526114f5816114b9565b9050919050565b6000819050919050565b6115176115128261114e565b6114fc565b82525050565b60008160601b9050919050565b60006115358261151d565b9050919050565b60006115478261152a565b9050919050565b61155f61155a826111e0565b61153c565b82525050565b60006115718286611506565b6020820191506115818285611506565b602082019150611591828461154e565b601482019150819050949350505050565b7f4e487b7100000000000000000000000000000000000000000000000000000000600052601260045260246000fd5b60006115dc8261114e565b91506115e78361114e565b9250826115f7576115f66115a2565b5b828206905092915050565b600061160d8261114e565b91506116188361114e565b92508282039050818111156116305761162f611373565b5b92915050565b7f4e487b7100000000000000000000000000000000000000000000000000000000600052603160045260246000fdfea2646970667358221220cca273a0e303570380a67ea10cab822eee5a7f45fe2980c67d58457435fa299c64736f6c63430008130033",
  "immutableReferences": {},
  "source": "// SPDX-License-Identifier: MIT\npragma solidity >=0.8.19 <0.9.0;\n// import \"@openzeppelin/contracts-ethereum-package/contracts/math/SafeMath.sol\";\n\ncontract Battleship {\n  //structure that represent a single game\n  struct Game{\n    uint256 gameId;\n    address player1;\n    address player2;\n    uint256 grandPrize;\n    uint256 boardSize;\n    uint256 numberOfShips;\n    uint256 remainShipsP1;\n    uint256 remainShipsP2;\n    address playerTurn;\n    uint256 penaltyTimeout;\n    address accusedPlayer;\n    bool playable;\n  }\n\n  event returnGameId(address indexed _from, uint256 _gameId);\n  event gameStarted(uint256 _gameId, address indexed _player1, address indexed _player2, uint256 _grandPrize);\n  event gameReady(uint256 _gameId, address indexed _player1, address indexed _player2, uint256 _startTime);\n  event gameEnded(uint256 _gameId, address indexed _winner, address indexed _looser);\n  event accusationTrial(uint256 _gameId, address indexed _accuser, address indexed _accused);\n  error eventError(string _message);\n\n  //Array of all games present in the blockchain\n  mapping(uint256 => Game) public games;\n  //Game ID generator counter\n  uint256 public gameId=1;\n  //Available games array\n  uint256[] public availableGames;\n\n  uint256 public totalGames=0;\n  uint256 public START_TIME=15;\n  uint256 internal nonce=0;\n  Game public game;\n\n  constructor() {}\n\n  function getGameId() public returns (uint256) {\n    return gameId++;\n  }\n\n  function createGame(uint256 _grandPrize, uint256 _boardSize, uint256 _numberOfShips) public {\n    game=Game(getGameId(), \n              msg.sender, \n              address(0),\n              _grandPrize,\n              _boardSize,\n              _numberOfShips,\n              _numberOfShips,\n              _numberOfShips,\n              address(0),\n              0,\n              address(0),\n              true);\n    games[game.gameId]=game;\n    availableGames.push(game.gameId);\n    totalGames++;\n    emit returnGameId(msg.sender, game.gameId);\n  }\n\n  function joinGameByGameId(uint256 _gameId) public {\n    if(games[_gameId].gameId==0)\n      revert eventError(\"No existing game with this ID \");\n\n    game=games[_gameId];\n    game.player2=msg.sender;\n    deleteElementFromArray(_gameId);\n    emit gameReady(_gameId, game.player1, msg.sender, START_TIME);\n  }\n\n  function joinRandomGame() public {\n    uint256 index=random();\n    uint256 i=0;\n    while(availableGames[index]==0 && i<10){\n      index=random();\n      i++;\n    }\n\n    if(i==10)\n      revert eventError(\"Something goes wrong, try again!\");\n    \n    game=games[index];\n    game.player2=msg.sender;\n    deleteElementFromArray(index);\n    emit gameReady(index, game.player1, msg.sender, START_TIME);\n  }\n\n  function deleteElementFromArray(uint256 _element) internal {\n    for(uint256 i=0;i<availableGames.length;i++){\n      if(availableGames[i]==_element){\n        availableGames[i]=availableGames[availableGames.length-1];\n        availableGames.pop();\n        break;\n      }\n    }\n  }\n\n  function random() internal returns (uint256) {\n    uint256 randomnumber = uint(keccak256(abi.encodePacked(block.timestamp, block.prevrandao, msg.sender))) % availableGames.length;\n    nonce++;\n    return randomnumber;\n  }\n}\n",
  "sourcePath": "/home/nicola/Scrivania/Magistrale/P2P and Blockchains/Battleship-ETH/battleship/contracts/Battleship.sol",
  "compiler": {
    "name": "solc",
    "version": "0.8.19+commit.7dd6d404.Emscripten.clang"
  },
  "schemaVersion": "3.4.13",
  "updatedAt": "2023-06-25T15:09:26.052Z",
  "networkType": "ethereum",
  "devdoc": {
    "kind": "dev",
    "methods": {},
    "version": 1
  },
  "userdoc": {
    "kind": "user",
    "methods": {},
    "version": 1
  }
}