{
  "contractName": "Battleship",
  "abi": [
    {
      "inputs": [],
      "stateMutability": "nonpayable",
      "type": "constructor"
    },
    {
      "anonymous": false,
      "inputs": [
        {
          "indexed": false,
          "internalType": "uint256",
          "name": "_gameId",
          "type": "uint256"
        },
        {
          "indexed": true,
          "internalType": "address",
          "name": "_accuser",
          "type": "address"
        },
        {
          "indexed": true,
          "internalType": "address",
          "name": "_accused",
          "type": "address"
        }
      ],
      "name": "accusationTrial",
      "type": "event"
    },
    {
      "anonymous": false,
      "inputs": [
        {
          "indexed": false,
          "internalType": "uint256",
          "name": "_gameId",
          "type": "uint256"
        },
        {
          "indexed": true,
          "internalType": "address",
          "name": "_from",
          "type": "address"
        }
      ],
      "name": "gameCreated",
      "type": "event"
    },
    {
      "anonymous": false,
      "inputs": [
        {
          "indexed": false,
          "internalType": "uint256",
          "name": "_gameId",
          "type": "uint256"
        },
        {
          "indexed": true,
          "internalType": "address",
          "name": "_winner",
          "type": "address"
        },
        {
          "indexed": true,
          "internalType": "address",
          "name": "_looser",
          "type": "address"
        }
      ],
      "name": "gameEnded",
      "type": "event"
    },
    {
      "anonymous": false,
      "inputs": [
        {
          "indexed": false,
          "internalType": "uint256",
          "name": "_gameId",
          "type": "uint256"
        },
        {
          "indexed": false,
          "internalType": "uint256",
          "name": "_boardSize",
          "type": "uint256"
        },
        {
          "indexed": false,
          "internalType": "uint256",
          "name": "_grandPrize",
          "type": "uint256"
        }
      ],
      "name": "gameInfo",
      "type": "event"
    },
    {
      "anonymous": false,
      "inputs": [
        {
          "indexed": false,
          "internalType": "uint256",
          "name": "_gameId",
          "type": "uint256"
        },
        {
          "indexed": true,
          "internalType": "address",
          "name": "_from",
          "type": "address"
        }
      ],
      "name": "gameJoined",
      "type": "event"
    },
    {
      "anonymous": false,
      "inputs": [
        {
          "indexed": false,
          "internalType": "uint256",
          "name": "_gameId",
          "type": "uint256"
        },
        {
          "indexed": true,
          "internalType": "address",
          "name": "_playerTurn",
          "type": "address"
        },
        {
          "indexed": true,
          "internalType": "address",
          "name": "_player",
          "type": "address"
        }
      ],
      "name": "gameReady",
      "type": "event"
    },
    {
      "anonymous": false,
      "inputs": [
        {
          "indexed": false,
          "internalType": "uint256",
          "name": "_gameId",
          "type": "uint256"
        },
        {
          "indexed": true,
          "internalType": "address",
          "name": "_player",
          "type": "address"
        },
        {
          "indexed": false,
          "internalType": "uint256",
          "name": "_shotSquareId",
          "type": "uint256"
        }
      ],
      "name": "shotEvent",
      "type": "event"
    },
    {
      "anonymous": false,
      "inputs": [
        {
          "indexed": false,
          "internalType": "uint256",
          "name": "_gameId",
          "type": "uint256"
        },
        {
          "indexed": true,
          "internalType": "address",
          "name": "_player",
          "type": "address"
        },
        {
          "indexed": false,
          "internalType": "uint256",
          "name": "_shotResult",
          "type": "uint256"
        },
        {
          "indexed": false,
          "internalType": "uint256",
          "name": "_shotSquareId",
          "type": "uint256"
        }
      ],
      "name": "shotResultEvent",
      "type": "event"
    },
    {
      "inputs": [
        {
          "internalType": "uint256",
          "name": "",
          "type": "uint256"
        }
      ],
      "name": "availableGames",
      "outputs": [
        {
          "internalType": "uint256",
          "name": "",
          "type": "uint256"
        }
      ],
      "stateMutability": "view",
      "type": "function",
      "constant": true
    },
    {
      "inputs": [],
      "name": "gameId",
      "outputs": [
        {
          "internalType": "uint256",
          "name": "",
          "type": "uint256"
        }
      ],
      "stateMutability": "view",
      "type": "function",
      "constant": true
    },
    {
      "inputs": [
        {
          "internalType": "uint256",
          "name": "",
          "type": "uint256"
        }
      ],
      "name": "games",
      "outputs": [
        {
          "internalType": "uint256",
          "name": "gameId",
          "type": "uint256"
        },
        {
          "internalType": "address",
          "name": "player1",
          "type": "address"
        },
        {
          "internalType": "address",
          "name": "player2",
          "type": "address"
        },
        {
          "internalType": "uint256",
          "name": "grandPrize",
          "type": "uint256"
        },
        {
          "internalType": "uint256",
          "name": "boardSize",
          "type": "uint256"
        },
        {
          "internalType": "uint256",
          "name": "remainShipsP1",
          "type": "uint256"
        },
        {
          "internalType": "uint256",
          "name": "remainShipsP2",
          "type": "uint256"
        },
        {
          "internalType": "bytes32",
          "name": "p1MerkleRoot",
          "type": "bytes32"
        },
        {
          "internalType": "bytes32",
          "name": "p2MerkleRoot",
          "type": "bytes32"
        },
        {
          "internalType": "uint256",
          "name": "penaltyTimeout",
          "type": "uint256"
        },
        {
          "internalType": "address",
          "name": "accusedPlayer",
          "type": "address"
        },
        {
          "internalType": "bool",
          "name": "playable",
          "type": "bool"
        }
      ],
      "stateMutability": "view",
      "type": "function",
      "constant": true
    },
    {
      "inputs": [],
      "name": "totalGames",
      "outputs": [
        {
          "internalType": "uint256",
          "name": "",
          "type": "uint256"
        }
      ],
      "stateMutability": "view",
      "type": "function",
      "constant": true
    },
    {
      "inputs": [],
      "name": "getGameId",
      "outputs": [
        {
          "internalType": "uint256",
          "name": "",
          "type": "uint256"
        }
      ],
      "stateMutability": "nonpayable",
      "type": "function"
    },
    {
      "inputs": [
        {
          "internalType": "uint256",
          "name": "_grandPrize",
          "type": "uint256"
        },
        {
          "internalType": "uint256",
          "name": "_boardSize",
          "type": "uint256"
        }
      ],
      "name": "createGame",
      "outputs": [],
      "stateMutability": "nonpayable",
      "type": "function"
    },
    {
      "inputs": [
        {
          "internalType": "uint256",
          "name": "_gameId",
          "type": "uint256"
        }
      ],
      "name": "joinGameByGameId",
      "outputs": [],
      "stateMutability": "nonpayable",
      "type": "function"
    },
    {
      "inputs": [],
      "name": "joinRandomGame",
      "outputs": [],
      "stateMutability": "nonpayable",
      "type": "function"
    },
    {
      "inputs": [
        {
          "internalType": "uint256",
          "name": "_gameId",
          "type": "uint256"
        }
      ],
      "name": "setOpponent",
      "outputs": [],
      "stateMutability": "nonpayable",
      "type": "function"
    },
    {
      "inputs": [
        {
          "internalType": "uint256",
          "name": "_gameId",
          "type": "uint256"
        },
        {
          "internalType": "bytes32",
          "name": "_merkleRoot",
          "type": "bytes32"
        }
      ],
      "name": "setMerkleRoot",
      "outputs": [],
      "stateMutability": "nonpayable",
      "type": "function"
    },
    {
      "inputs": [
        {
          "internalType": "uint256",
          "name": "_gameId",
          "type": "uint256"
        },
        {
          "internalType": "uint256",
          "name": "_shotSquareId",
          "type": "uint256"
        }
      ],
      "name": "shot",
      "outputs": [],
      "stateMutability": "nonpayable",
      "type": "function"
    },
    {
      "inputs": [
        {
          "internalType": "uint256",
          "name": "_gameId",
          "type": "uint256"
        },
        {
          "internalType": "uint256",
          "name": "_shotResult",
          "type": "uint256"
        },
        {
          "internalType": "uint256",
          "name": "_sunk",
          "type": "uint256"
        },
        {
          "internalType": "uint256",
          "name": "_shotSquareId",
          "type": "uint256"
        },
        {
          "internalType": "bytes32[]",
          "name": "_merkleProof",
          "type": "bytes32[]"
        }
      ],
      "name": "shotResult",
      "outputs": [],
      "stateMutability": "nonpayable",
      "type": "function"
    }
  ],
  "bytecode": "0x608060405260018055600060035534801561001957600080fd5b50611d15806100296000396000f3fe608060405234801561001057600080fd5b50600436106100b45760003560e01c80639966cc83116100715780639966cc83146101705780639decd17c146101a0578063b4b93d8f146101bc578063c0bd8351146101d8578063d7c81b55146101f6578063ebd5300514610214576100b4565b8063117a5b90146100b957806318712c21146100f4578063275568dd146101105780632c4e591b1461012c578063342ca1841461014a57806360104cef14610154575b600080fd5b6100d360048036038101906100ce9190611449565b610230565b6040516100eb9c9b9a999897969594939291906114fa565b60405180910390f35b61010e600480360381019061010991906115e0565b6102fd565b005b61012a60048036038101906101259190611779565b6104ea565b005b6101346107a2565b6040516101419190611810565b60405180910390f35b6101526107a8565b005b61016e6004803603810190610169919061182b565b610a6a565b005b61018a60048036038101906101859190611449565b610d16565b6040516101979190611810565b60405180910390f35b6101ba60048036038101906101b59190611449565b610d3a565b005b6101d660048036038101906101d19190611449565b610fca565b005b6101e06110d5565b6040516101ed9190611810565b60405180910390f35b6101fe6110f3565b60405161020b9190611810565b60405180910390f35b61022e6004803603810190610229919061182b565b6110f9565b005b60006020528060005260406000206000915090508060000154908060010160009054906101000a900473ffffffffffffffffffffffffffffffffffffffff16908060020160009054906101000a900473ffffffffffffffffffffffffffffffffffffffff169080600301549080600401549080600501549080600601549080600701549080600801549080600901549080600a0160009054906101000a900473ffffffffffffffffffffffffffffffffffffffff169080600a0160149054906101000a900460ff1690508c565b60008211610340576040517f08c379a0000000000000000000000000000000000000000000000000000000008152600401610337906118c8565b60405180910390fd5b600080600084815260200190815260200160002090508060010160009054906101000a900473ffffffffffffffffffffffffffffffffffffffff1673ffffffffffffffffffffffffffffffffffffffff163373ffffffffffffffffffffffffffffffffffffffff16036103bb5781816007018190555061045c565b8060020160009054906101000a900473ffffffffffffffffffffffffffffffffffffffff1673ffffffffffffffffffffffffffffffffffffffff163373ffffffffffffffffffffffffffffffffffffffff16036104205781816008018190555061045b565b6040517f08c379a000000000000000000000000000000000000000000000000000000000815260040161045290611934565b60405180910390fd5b5b3373ffffffffffffffffffffffffffffffffffffffff168160010160009054906101000a900473ffffffffffffffffffffffffffffffffffffffff1673ffffffffffffffffffffffffffffffffffffffff167f579d51a8a09cc46d5b01f59d7cc8a51837a1cf32ed27209e7e6fe22fde35d417856040516104dd9190611810565b60405180910390a3505050565b6000851161052d576040517f08c379a0000000000000000000000000000000000000000000000000000000008152600401610524906118c8565b60405180910390fd5b600080600087815260200190815260200160002060405180610180016040529081600082015481526020016001820160009054906101000a900473ffffffffffffffffffffffffffffffffffffffff1673ffffffffffffffffffffffffffffffffffffffff1673ffffffffffffffffffffffffffffffffffffffff1681526020016002820160009054906101000a900473ffffffffffffffffffffffffffffffffffffffff1673ffffffffffffffffffffffffffffffffffffffff1673ffffffffffffffffffffffffffffffffffffffff16815260200160038201548152602001600482015481526020016005820154815260200160068201548152602001600782015481526020016008820154815260200160098201548152602001600a820160009054906101000a900473ffffffffffffffffffffffffffffffffffffffff1673ffffffffffffffffffffffffffffffffffffffff1673ffffffffffffffffffffffffffffffffffffffff168152602001600a820160149054906101000a900460ff16151515158152505090506000816020015173ffffffffffffffffffffffffffffffffffffffff163373ffffffffffffffffffffffffffffffffffffffff160361072057816040015190506001850361071b578160a001805180919061071690611983565b815250505b610747565b8160200151905060018503610746578160c001805180919061074190611983565b815250505b5b8073ffffffffffffffffffffffffffffffffffffffff167f2aff2873bfc15a61262c1024b5e20060a2ad765cbed8e1aa3be6c09c4d6fe6c0888887604051610791939291906119ac565b60405180910390a250505050505050565b60035481565b60006107b26113b5565b905060005b6000600283815481106107cd576107cc6119e3565b5b90600052602060002001541480156107e55750600a81105b15610807576107f26113b5565b915080806107ff90611a12565b9150506107b7565b600a811061084a576040517f08c379a000000000000000000000000000000000000000000000000000000000815260040161084190611aa6565b60405180910390fd5b600080600084815260200190815260200160002060405180610180016040529081600082015481526020016001820160009054906101000a900473ffffffffffffffffffffffffffffffffffffffff1673ffffffffffffffffffffffffffffffffffffffff1673ffffffffffffffffffffffffffffffffffffffff1681526020016002820160009054906101000a900473ffffffffffffffffffffffffffffffffffffffff1673ffffffffffffffffffffffffffffffffffffffff1673ffffffffffffffffffffffffffffffffffffffff16815260200160038201548152602001600482015481526020016005820154815260200160068201548152602001600782015481526020016008820154815260200160098201548152602001600a820160009054906101000a900473ffffffffffffffffffffffffffffffffffffffff1673ffffffffffffffffffffffffffffffffffffffff1673ffffffffffffffffffffffffffffffffffffffff168152602001600a820160149054906101000a900460ff1615151515815250509050806101600151610a1e576040517f08c379a0000000000000000000000000000000000000000000000000000000008152600401610a1590611aa6565b60405180910390fd5b7f2e228c4005eb8318a1e40880fd973e87e2c0346ce6d45fe3ecbde9297b8328aa816000015182608001518360600151604051610a5d939291906119ac565b60405180910390a1505050565b6000604051806101800160405280610a806110d5565b81526020013373ffffffffffffffffffffffffffffffffffffffff168152602001600073ffffffffffffffffffffffffffffffffffffffff16815260200184815260200183815260200160058152602001600581526020016000801b81526020016000801b815260200160008152602001600073ffffffffffffffffffffffffffffffffffffffff16815260200160011515815250905080600080836000015181526020019081526020016000206000820151816000015560208201518160010160006101000a81548173ffffffffffffffffffffffffffffffffffffffff021916908373ffffffffffffffffffffffffffffffffffffffff16021790555060408201518160020160006101000a81548173ffffffffffffffffffffffffffffffffffffffff021916908373ffffffffffffffffffffffffffffffffffffffff160217905550606082015181600301556080820151816004015560a0820151816005015560c0820151816006015560e082015181600701556101008201518160080155610120820151816009015561014082015181600a0160006101000a81548173ffffffffffffffffffffffffffffffffffffffff021916908373ffffffffffffffffffffffffffffffffffffffff16021790555061016082015181600a0160146101000a81548160ff02191690831515021790555090505060028160000151908060018154018082558091505060019003906000526020600020016000909190919091505560036000815480929190610cba90611a12565b91905055503373ffffffffffffffffffffffffffffffffffffffff167f6819b4a537631fd79a9d2b0f56db1ff2742f0304520484d23f6f356aaebe31f68260000151604051610d099190611810565b60405180910390a2505050565b60028181548110610d2657600080fd5b906000526020600020016000915090505481565b60008060008381526020019081526020016000206000015403610d92576040517f08c379a0000000000000000000000000000000000000000000000000000000008152600401610d8990611b12565b60405180910390fd5b600080828152602001908152602001600020600a0160149054906101000a900460ff16610df4576040517f08c379a0000000000000000000000000000000000000000000000000000000008152600401610deb90611b7e565b60405180910390fd5b600080600083815260200190815260200160002060405180610180016040529081600082015481526020016001820160009054906101000a900473ffffffffffffffffffffffffffffffffffffffff1673ffffffffffffffffffffffffffffffffffffffff1673ffffffffffffffffffffffffffffffffffffffff1681526020016002820160009054906101000a900473ffffffffffffffffffffffffffffffffffffffff1673ffffffffffffffffffffffffffffffffffffffff1673ffffffffffffffffffffffffffffffffffffffff16815260200160038201548152602001600482015481526020016005820154815260200160068201548152602001600782015481526020016008820154815260200160098201548152602001600a820160009054906101000a900473ffffffffffffffffffffffffffffffffffffffff1673ffffffffffffffffffffffffffffffffffffffff1673ffffffffffffffffffffffffffffffffffffffff168152602001600a820160149054906101000a900460ff16151515158152505090507f2e228c4005eb8318a1e40880fd973e87e2c0346ce6d45fe3ecbde9297b8328aa8282608001518360600151604051610fbe939291906119ac565b60405180910390a15050565b6000811161100d576040517f08c379a0000000000000000000000000000000000000000000000000000000008152600401611004906118c8565b60405180910390fd5b60008060008381526020019081526020016000209050338160020160006101000a81548173ffffffffffffffffffffffffffffffffffffffff021916908373ffffffffffffffffffffffffffffffffffffffff160217905550600081600a0160146101000a81548160ff0219169083151502179055503373ffffffffffffffffffffffffffffffffffffffff167f082f67f820bd19b8afdb7a254074ae7c54044d730095a591e66f385f31dc242b836040516110c99190611810565b60405180910390a25050565b6000600160008154809291906110ea90611a12565b91905055905090565b60015481565b6000821161113c576040517f08c379a0000000000000000000000000000000000000000000000000000000008152600401611133906118c8565b60405180910390fd5b600080600084815260200190815260200160002060405180610180016040529081600082015481526020016001820160009054906101000a900473ffffffffffffffffffffffffffffffffffffffff1673ffffffffffffffffffffffffffffffffffffffff1673ffffffffffffffffffffffffffffffffffffffff1681526020016002820160009054906101000a900473ffffffffffffffffffffffffffffffffffffffff1673ffffffffffffffffffffffffffffffffffffffff1673ffffffffffffffffffffffffffffffffffffffff16815260200160038201548152602001600482015481526020016005820154815260200160068201548152602001600782015481526020016008820154815260200160098201548152602001600a820160009054906101000a900473ffffffffffffffffffffffffffffffffffffffff1673ffffffffffffffffffffffffffffffffffffffff1673ffffffffffffffffffffffffffffffffffffffff168152602001600a820160149054906101000a900460ff1615151515815250509050806020015173ffffffffffffffffffffffffffffffffffffffff163373ffffffffffffffffffffffffffffffffffffffff160361135b57806040015173ffffffffffffffffffffffffffffffffffffffff167f5a714ed4c14d94c7c78bb2d603a46d32343bdd52ae763cf1ec34ca2f64d4c46a848460405161134e929190611b9e565b60405180910390a26113b0565b806020015173ffffffffffffffffffffffffffffffffffffffff167f5a714ed4c14d94c7c78bb2d603a46d32343bdd52ae763cf1ec34ca2f64d4c46a84846040516113a7929190611b9e565b60405180910390a25b505050565b6000806002805490504244416040516020016113d393929190611c42565b6040516020818303038152906040528051906020012060001c6113f69190611cae565b90508091505090565b6000604051905090565b600080fd5b600080fd5b6000819050919050565b61142681611413565b811461143157600080fd5b50565b6000813590506114438161141d565b92915050565b60006020828403121561145f5761145e611409565b5b600061146d84828501611434565b91505092915050565b61147f81611413565b82525050565b600073ffffffffffffffffffffffffffffffffffffffff82169050919050565b60006114b082611485565b9050919050565b6114c0816114a5565b82525050565b6000819050919050565b6114d9816114c6565b82525050565b60008115159050919050565b6114f4816114df565b82525050565b600061018082019050611510600083018f611476565b61151d602083018e6114b7565b61152a604083018d6114b7565b611537606083018c611476565b611544608083018b611476565b61155160a083018a611476565b61155e60c0830189611476565b61156b60e08301886114d0565b6115796101008301876114d0565b611587610120830186611476565b6115956101408301856114b7565b6115a36101608301846114eb565b9d9c50505050505050505050505050565b6115bd816114c6565b81146115c857600080fd5b50565b6000813590506115da816115b4565b92915050565b600080604083850312156115f7576115f6611409565b5b600061160585828601611434565b9250506020611616858286016115cb565b9150509250929050565b600080fd5b6000601f19601f8301169050919050565b7f4e487b7100000000000000000000000000000000000000000000000000000000600052604160045260246000fd5b61166e82611625565b810181811067ffffffffffffffff8211171561168d5761168c611636565b5b80604052505050565b60006116a06113ff565b90506116ac8282611665565b919050565b600067ffffffffffffffff8211156116cc576116cb611636565b5b602082029050602081019050919050565b600080fd5b60006116f56116f0846116b1565b611696565b90508083825260208201905060208402830185811115611718576117176116dd565b5b835b81811015611741578061172d88826115cb565b84526020840193505060208101905061171a565b5050509392505050565b600082601f8301126117605761175f611620565b5b81356117708482602086016116e2565b91505092915050565b600080600080600060a0868803121561179557611794611409565b5b60006117a388828901611434565b95505060206117b488828901611434565b94505060406117c588828901611434565b93505060606117d688828901611434565b925050608086013567ffffffffffffffff8111156117f7576117f661140e565b5b6118038882890161174b565b9150509295509295909350565b60006020820190506118256000830184611476565b92915050565b6000806040838503121561184257611841611409565b5b600061185085828601611434565b925050602061186185828601611434565b9150509250929050565b600082825260208201905092915050565b7f47616d65206964206973206e6567617469766521000000000000000000000000600082015250565b60006118b260148361186b565b91506118bd8261187c565b602082019050919050565b600060208201905081810360008301526118e1816118a5565b9050919050565b7f506c617965722061646472657373206973206e6f742076616c69640000000000600082015250565b600061191e601b8361186b565b9150611929826118e8565b602082019050919050565b6000602082019050818103600083015261194d81611911565b9050919050565b7f4e487b7100000000000000000000000000000000000000000000000000000000600052601160045260246000fd5b600061198e82611413565b9150600082036119a1576119a0611954565b5b600182039050919050565b60006060820190506119c16000830186611476565b6119ce6020830185611476565b6119db6040830184611476565b949350505050565b7f4e487b7100000000000000000000000000000000000000000000000000000000600052603260045260246000fd5b6000611a1d82611413565b91507fffffffffffffffffffffffffffffffffffffffffffffffffffffffffffffffff8203611a4f57611a4e611954565b5b600182019050919050565b7f536f6d657468696e6720676f65732077726f6e672c2074727920616761696e21600082015250565b6000611a9060208361186b565b9150611a9b82611a5a565b602082019050919050565b60006020820190508181036000830152611abf81611a83565b9050919050565b7f4e6f206578697374696e672067616d6520776974682074686973204944000000600082015250565b6000611afc601d8361186b565b9150611b0782611ac6565b602082019050919050565b60006020820190508181036000830152611b2b81611aef565b9050919050565b7f53656c65637465642067616d65206973206e6f7420706c617961626c65000000600082015250565b6000611b68601d8361186b565b9150611b7382611b32565b602082019050919050565b60006020820190508181036000830152611b9781611b5b565b9050919050565b6000604082019050611bb36000830185611476565b611bc06020830184611476565b9392505050565b6000819050919050565b611be2611bdd82611413565b611bc7565b82525050565b6000611bf382611485565b9050919050565b60008160601b9050919050565b6000611c1282611bfa565b9050919050565b6000611c2482611c07565b9050919050565b611c3c611c3782611be8565b611c19565b82525050565b6000611c4e8286611bd1565b602082019150611c5e8285611bd1565b602082019150611c6e8284611c2b565b601482019150819050949350505050565b7f4e487b7100000000000000000000000000000000000000000000000000000000600052601260045260246000fd5b6000611cb982611413565b9150611cc483611413565b925082611cd457611cd3611c7f565b5b82820690509291505056fea2646970667358221220686db71d0e9835152e3aa3a84b16df8df0ace787faab0c74d9f73366a42fbca664736f6c63430008130033",
  "immutableReferences": {},
  "source": "// SPDX-License-Identifier: MIT\npragma solidity >=0.8.19 <0.9.0;\n// import \"@openzeppelin/contracts-ethereum-package/contracts/math/SafeMath.sol\";\n\ncontract Battleship {\n  //structure that represent a single game\n  struct Game{\n    uint256 gameId;\n    address player1;\n    address player2;\n    uint256 grandPrize;\n    uint256 boardSize;\n    uint256 remainShipsP1;\n    uint256 remainShipsP2;\n    bytes32 p1MerkleRoot;\n    bytes32 p2MerkleRoot;\n    uint256 penaltyTimeout;\n    address accusedPlayer;\n    bool playable;\n  }\n\n  event gameCreated(uint256 _gameId, address indexed _from);\n  event gameJoined(uint256 _gameId, address indexed _from);\n  event gameReady(uint256 _gameId, address indexed _playerTurn, address indexed _player);\n  event gameInfo(uint256 _gameId, uint256 _boardSize, uint256 _grandPrize);\n  event gameEnded(uint256 _gameId, address indexed _winner, address indexed _looser);\n  event shotEvent(uint256 _gameId, address indexed _player, uint256 _shotSquareId);\n  event shotResultEvent(uint256 _gameId, address indexed _player, uint256 _shotResult, uint256 _shotSquareId);\n  event accusationTrial(uint256 _gameId, address indexed _accuser, address indexed _accused);\n\n  //Array of all games present in the blockchain\n  mapping(uint256 => Game) public games;\n  //Game ID generator counter\n  uint256 public gameId=1;\n  //Available games array\n  uint256[] public availableGames;\n\n  uint256 public totalGames=0;\n\n  constructor() {}\n\n  function getGameId() public returns (uint256) {\n    return gameId++;\n  }\n\n  function createGame(uint256 _grandPrize, uint256 _boardSize) public {\n    Game memory game=Game(getGameId(), \n              msg.sender, \n              address(0),\n              _grandPrize,\n              _boardSize,\n              5,\n              5,\n              0,\n              0,\n              0,\n              address(0),\n              true);\n    games[game.gameId]=game;\n    availableGames.push(game.gameId);\n    totalGames++;\n    emit gameCreated(game.gameId, msg.sender);\n  }\n\n  function joinGameByGameId(uint256 _gameId) public {\n    require(games[_gameId].gameId != 0, \"No existing game with this ID\");\n    require(games[_gameId].playable, \"Selected game is not playable\");\n      \n    Game memory game=games[_gameId];\n    emit gameInfo(_gameId, game.boardSize, game.grandPrize);\n  }\n\n  function joinRandomGame() public {\n    uint256 index=random();\n    uint256 i=0;\n    while(availableGames[index]==0 && i<10){\n      index=random();\n      i++;\n    }\n\n    require(i < 10, \"Something goes wrong, try again!\");\n\n    Game memory game=games[index];\n    require(game.playable, \"Something goes wrong, try again!\");\n    emit gameInfo(game.gameId, game.boardSize, game.grandPrize);\n  }\n\n  function setOpponent(uint256 _gameId) public{\n    require(_gameId > 0, \"Game id is negative!\");\n    Game storage game=games[_gameId];\n\n    game.player2=msg.sender;\n    game.playable=false;\n    emit gameJoined(_gameId, msg.sender);\n  }\n\n  function setMerkleRoot(uint256 _gameId, bytes32 _merkleRoot) public{\n    require(_gameId > 0, \"Game id is negative!\");\n    Game storage game=games[_gameId];\n\n    if(msg.sender==game.player1){\n      game.p1MerkleRoot=_merkleRoot;\n    } else if(msg.sender==game.player2) {\n      game.p2MerkleRoot=_merkleRoot;\n    } else {\n      revert(\"Player address is not valid\");\n    }\n\n    emit gameReady(_gameId, game.player1, msg.sender);\n  }\n\n  function shot(uint256 _gameId, uint256 _shotSquareId) public{\n    require(_gameId > 0, \"Game id is negative!\");\n\n    Game memory game=games[_gameId];\n    if(msg.sender==game.player1)\n      emit shotEvent(_gameId, game.player2, _shotSquareId);\n    else\n      emit shotEvent(_gameId, game.player1, _shotSquareId);\n  }\n\n  function shotResult(uint256 _gameId, uint256 _shotResult, uint256 _sunk, uint256 _shotSquareId, bytes32[] memory _merkleProof) public {\n    require(_gameId > 0, \"Game id is negative!\");\n    \n    Game memory game=games[_gameId];\n    address shoter;\n    if(msg.sender==game.player1){\n      shoter=game.player2;\n      if(_sunk==1)\n        game.remainShipsP1--;\n    } else {\n      shoter=game.player1;\n      if(_sunk==1)\n        game.remainShipsP2--;\n    }\n\n    emit shotResultEvent(_gameId, shoter, _shotResult, _shotSquareId);\n  }\n\n  function deleteElementFromArray(uint256 _element) internal {\n    for (uint256 i = 0; i < availableGames.length; i++) {\n        if (availableGames[i] == _element) {\n            if (i != availableGames.length - 1) {\n                availableGames[i] = availableGames[availableGames.length - 1];\n            }\n            availableGames.pop();\n            break;\n        }\n    }\n  }\n\n  function random() internal view returns (uint256) {\n    uint256 randomnumber = uint256(keccak256(abi.encodePacked(block.timestamp, block.prevrandao, block.coinbase))) % availableGames.length;\n    return randomnumber;\n  }\n}\n",
  "sourcePath": "/home/nicola/Scrivania/Magistrale/P2P and Blockchains/Battleship-ETH/battleship/contracts/Battleship.sol",
  "compiler": {
    "name": "solc",
    "version": "0.8.19+commit.7dd6d404.Emscripten.clang"
  },
  "schemaVersion": "3.4.13",
  "updatedAt": "2023-07-19T15:26:44.465Z",
  "networkType": "ethereum",
  "devdoc": {
    "kind": "dev",
    "methods": {},
    "version": 1
  },
  "userdoc": {
    "kind": "user",
    "methods": {},
    "version": 1
  }
}