{
  "contractName": "Battleship",
  "abi": [
    {
      "inputs": [],
      "stateMutability": "nonpayable",
      "type": "constructor"
    },
    {
      "inputs": [
        {
          "internalType": "string",
          "name": "_message",
          "type": "string"
        }
      ],
      "name": "eventError",
      "type": "error"
    },
    {
      "anonymous": false,
      "inputs": [
        {
          "indexed": false,
          "internalType": "uint256",
          "name": "_gameId",
          "type": "uint256"
        },
        {
          "indexed": true,
          "internalType": "address",
          "name": "_accuser",
          "type": "address"
        },
        {
          "indexed": true,
          "internalType": "address",
          "name": "_accused",
          "type": "address"
        }
      ],
      "name": "accusationTrial",
      "type": "event"
    },
    {
      "anonymous": false,
      "inputs": [
        {
          "indexed": false,
          "internalType": "uint256",
          "name": "_gameId",
          "type": "uint256"
        },
        {
          "indexed": true,
          "internalType": "address",
          "name": "_winner",
          "type": "address"
        },
        {
          "indexed": true,
          "internalType": "address",
          "name": "_looser",
          "type": "address"
        }
      ],
      "name": "gameEnded",
      "type": "event"
    },
    {
      "anonymous": false,
      "inputs": [
        {
          "indexed": false,
          "internalType": "uint256",
          "name": "_gameId",
          "type": "uint256"
        },
        {
          "indexed": true,
          "internalType": "address",
          "name": "_player1",
          "type": "address"
        },
        {
          "indexed": true,
          "internalType": "address",
          "name": "_player2",
          "type": "address"
        },
        {
          "indexed": false,
          "internalType": "uint256",
          "name": "_boardSize",
          "type": "uint256"
        },
        {
          "indexed": false,
          "internalType": "uint256",
          "name": "_startTime",
          "type": "uint256"
        }
      ],
      "name": "gameReady",
      "type": "event"
    },
    {
      "anonymous": false,
      "inputs": [
        {
          "indexed": false,
          "internalType": "uint256",
          "name": "_gameId",
          "type": "uint256"
        },
        {
          "indexed": true,
          "internalType": "address",
          "name": "_player1",
          "type": "address"
        },
        {
          "indexed": true,
          "internalType": "address",
          "name": "_player2",
          "type": "address"
        },
        {
          "indexed": false,
          "internalType": "uint256",
          "name": "_grandPrize",
          "type": "uint256"
        }
      ],
      "name": "gameStarted",
      "type": "event"
    },
    {
      "anonymous": false,
      "inputs": [
        {
          "indexed": true,
          "internalType": "address",
          "name": "_from",
          "type": "address"
        },
        {
          "indexed": false,
          "internalType": "uint256",
          "name": "_gameId",
          "type": "uint256"
        }
      ],
      "name": "returnGameId",
      "type": "event"
    },
    {
      "inputs": [],
      "name": "START_TIME",
      "outputs": [
        {
          "internalType": "uint256",
          "name": "",
          "type": "uint256"
        }
      ],
      "stateMutability": "view",
      "type": "function",
      "constant": true
    },
    {
      "inputs": [
        {
          "internalType": "uint256",
          "name": "",
          "type": "uint256"
        }
      ],
      "name": "availableGames",
      "outputs": [
        {
          "internalType": "uint256",
          "name": "",
          "type": "uint256"
        }
      ],
      "stateMutability": "view",
      "type": "function",
      "constant": true
    },
    {
      "inputs": [],
      "name": "game",
      "outputs": [
        {
          "internalType": "uint256",
          "name": "gameId",
          "type": "uint256"
        },
        {
          "internalType": "address",
          "name": "player1",
          "type": "address"
        },
        {
          "internalType": "address",
          "name": "player2",
          "type": "address"
        },
        {
          "internalType": "uint256",
          "name": "grandPrize",
          "type": "uint256"
        },
        {
          "internalType": "uint256",
          "name": "boardSize",
          "type": "uint256"
        },
        {
          "internalType": "uint256",
          "name": "remainShipsP1",
          "type": "uint256"
        },
        {
          "internalType": "uint256",
          "name": "remainShipsP2",
          "type": "uint256"
        },
        {
          "internalType": "address",
          "name": "playerTurn",
          "type": "address"
        },
        {
          "internalType": "uint256",
          "name": "penaltyTimeout",
          "type": "uint256"
        },
        {
          "internalType": "address",
          "name": "accusedPlayer",
          "type": "address"
        },
        {
          "internalType": "bool",
          "name": "playable",
          "type": "bool"
        }
      ],
      "stateMutability": "view",
      "type": "function",
      "constant": true
    },
    {
      "inputs": [],
      "name": "gameId",
      "outputs": [
        {
          "internalType": "uint256",
          "name": "",
          "type": "uint256"
        }
      ],
      "stateMutability": "view",
      "type": "function",
      "constant": true
    },
    {
      "inputs": [
        {
          "internalType": "uint256",
          "name": "",
          "type": "uint256"
        }
      ],
      "name": "games",
      "outputs": [
        {
          "internalType": "uint256",
          "name": "gameId",
          "type": "uint256"
        },
        {
          "internalType": "address",
          "name": "player1",
          "type": "address"
        },
        {
          "internalType": "address",
          "name": "player2",
          "type": "address"
        },
        {
          "internalType": "uint256",
          "name": "grandPrize",
          "type": "uint256"
        },
        {
          "internalType": "uint256",
          "name": "boardSize",
          "type": "uint256"
        },
        {
          "internalType": "uint256",
          "name": "remainShipsP1",
          "type": "uint256"
        },
        {
          "internalType": "uint256",
          "name": "remainShipsP2",
          "type": "uint256"
        },
        {
          "internalType": "address",
          "name": "playerTurn",
          "type": "address"
        },
        {
          "internalType": "uint256",
          "name": "penaltyTimeout",
          "type": "uint256"
        },
        {
          "internalType": "address",
          "name": "accusedPlayer",
          "type": "address"
        },
        {
          "internalType": "bool",
          "name": "playable",
          "type": "bool"
        }
      ],
      "stateMutability": "view",
      "type": "function",
      "constant": true
    },
    {
      "inputs": [],
      "name": "totalGames",
      "outputs": [
        {
          "internalType": "uint256",
          "name": "",
          "type": "uint256"
        }
      ],
      "stateMutability": "view",
      "type": "function",
      "constant": true
    },
    {
      "inputs": [],
      "name": "getGameId",
      "outputs": [
        {
          "internalType": "uint256",
          "name": "",
          "type": "uint256"
        }
      ],
      "stateMutability": "nonpayable",
      "type": "function"
    },
    {
      "inputs": [
        {
          "internalType": "uint256",
          "name": "_grandPrize",
          "type": "uint256"
        },
        {
          "internalType": "uint256",
          "name": "_boardSize",
          "type": "uint256"
        }
      ],
      "name": "createGame",
      "outputs": [],
      "stateMutability": "nonpayable",
      "type": "function"
    },
    {
      "inputs": [
        {
          "internalType": "uint256",
          "name": "_gameId",
          "type": "uint256"
        }
      ],
      "name": "joinGameByGameId",
      "outputs": [],
      "stateMutability": "nonpayable",
      "type": "function"
    },
    {
      "inputs": [],
      "name": "joinRandomGame",
      "outputs": [],
      "stateMutability": "nonpayable",
      "type": "function"
    }
  ],
  "bytecode": "0x6080604052600180556000600355600f600455600060055534801561002357600080fd5b506116ed806100336000396000f3fe608060405234801561001057600080fd5b506004361061009e5760003560e01c80639decd17c116100665780639decd17c14610151578063c0bd83511461016d578063c3fe3e281461018b578063d7c81b55146101b3578063ddaa26ad146101d15761009e565b8063117a5b90146100a35780632c4e591b146100dd578063342ca184146100fb57806360104cef146101055780639966cc8314610121575b600080fd5b6100bd60048036038101906100b891906111ea565b6101ef565b6040516100d49b9a99989796959493929190611282565b60405180910390f35b6100e56102d6565b6040516100f2919061132d565b60405180910390f35b6101036102dc565b005b61011f600480360381019061011a9190611348565b6106f6565b005b61013b600480360381019061013691906111ea565b610be8565b604051610148919061132d565b60405180910390f35b61016b600480360381019061016691906111ea565b610c0c565b005b610175610f83565b604051610182919061132d565b60405180910390f35b610193610fa1565b6040516101aa9b9a99989796959493929190611282565b60405180910390f35b6101bb611076565b6040516101c8919061132d565b60405180910390f35b6101d961107c565b6040516101e6919061132d565b60405180910390f35b60006020528060005260406000206000915090508060000154908060010160009054906101000a900473ffffffffffffffffffffffffffffffffffffffff16908060020160009054906101000a900473ffffffffffffffffffffffffffffffffffffffff16908060030154908060040154908060050154908060060154908060070160009054906101000a900473ffffffffffffffffffffffffffffffffffffffff16908060080154908060090160009054906101000a900473ffffffffffffffffffffffffffffffffffffffff16908060090160149054906101000a900460ff1690508b565b60035481565b60006102e6611082565b905060005b60006002838154811061030157610300611388565b5b90600052602060002001541480156103195750600a81105b1561033b57610326611082565b91508080610333906113e6565b9150506102eb565b600a810361037e576040517f58c16fda0000000000000000000000000000000000000000000000000000000081526004016103759061148b565b60405180910390fd5b6000808381526020019081526020016000206006600082015481600001556001820160009054906101000a900473ffffffffffffffffffffffffffffffffffffffff168160010160006101000a81548173ffffffffffffffffffffffffffffffffffffffff021916908373ffffffffffffffffffffffffffffffffffffffff1602179055506002820160009054906101000a900473ffffffffffffffffffffffffffffffffffffffff168160020160006101000a81548173ffffffffffffffffffffffffffffffffffffffff021916908373ffffffffffffffffffffffffffffffffffffffff160217905550600382015481600301556004820154816004015560058201548160050155600682015481600601556007820160009054906101000a900473ffffffffffffffffffffffffffffffffffffffff168160070160006101000a81548173ffffffffffffffffffffffffffffffffffffffff021916908373ffffffffffffffffffffffffffffffffffffffff160217905550600882015481600801556009820160009054906101000a900473ffffffffffffffffffffffffffffffffffffffff168160090160006101000a81548173ffffffffffffffffffffffffffffffffffffffff021916908373ffffffffffffffffffffffffffffffffffffffff1602179055506009820160149054906101000a900460ff168160090160146101000a81548160ff021916908315150217905550905050600660090160149054906101000a900460ff16156106b75733600660020160006101000a81548173ffffffffffffffffffffffffffffffffffffffff021916908373ffffffffffffffffffffffffffffffffffffffff1602179055506000600660090160146101000a81548160ff02191690831515021790555061061d826110e4565b3373ffffffffffffffffffffffffffffffffffffffff16600660010160009054906101000a900473ffffffffffffffffffffffffffffffffffffffff1673ffffffffffffffffffffffffffffffffffffffff167fc9e838598ac651c894cf05c9407dd1a928fca7938e6c46dbd9b446f2d9897865846006600401546004546040516106aa939291906114ab565b60405180910390a36106f2565b6040517f58c16fda0000000000000000000000000000000000000000000000000000000081526004016106e99061148b565b60405180910390fd5b5050565b60405180610160016040528061070a610f83565b81526020013373ffffffffffffffffffffffffffffffffffffffff168152602001600073ffffffffffffffffffffffffffffffffffffffff1681526020018381526020018281526020016005815260200160058152602001600073ffffffffffffffffffffffffffffffffffffffff16815260200160008152602001600073ffffffffffffffffffffffffffffffffffffffff1681526020016001151581525060066000820151816000015560208201518160010160006101000a81548173ffffffffffffffffffffffffffffffffffffffff021916908373ffffffffffffffffffffffffffffffffffffffff16021790555060408201518160020160006101000a81548173ffffffffffffffffffffffffffffffffffffffff021916908373ffffffffffffffffffffffffffffffffffffffff160217905550606082015181600301556080820151816004015560a0820151816005015560c0820151816006015560e08201518160070160006101000a81548173ffffffffffffffffffffffffffffffffffffffff021916908373ffffffffffffffffffffffffffffffffffffffff16021790555061010082015181600801556101208201518160090160006101000a81548173ffffffffffffffffffffffffffffffffffffffff021916908373ffffffffffffffffffffffffffffffffffffffff1602179055506101408201518160090160146101000a81548160ff02191690831515021790555090505060066000806006600001548152602001908152602001600020600082015481600001556001820160009054906101000a900473ffffffffffffffffffffffffffffffffffffffff168160010160006101000a81548173ffffffffffffffffffffffffffffffffffffffff021916908373ffffffffffffffffffffffffffffffffffffffff1602179055506002820160009054906101000a900473ffffffffffffffffffffffffffffffffffffffff168160020160006101000a81548173ffffffffffffffffffffffffffffffffffffffff021916908373ffffffffffffffffffffffffffffffffffffffff160217905550600382015481600301556004820154816004015560058201548160050155600682015481600601556007820160009054906101000a900473ffffffffffffffffffffffffffffffffffffffff168160070160006101000a81548173ffffffffffffffffffffffffffffffffffffffff021916908373ffffffffffffffffffffffffffffffffffffffff160217905550600882015481600801556009820160009054906101000a900473ffffffffffffffffffffffffffffffffffffffff168160090160006101000a81548173ffffffffffffffffffffffffffffffffffffffff021916908373ffffffffffffffffffffffffffffffffffffffff1602179055506009820160149054906101000a900460ff168160090160146101000a81548160ff0219169083151502179055509050506002600660000154908060018154018082558091505060019003906000526020600020016000909190919091505560036000815480929190610b8c906113e6565b91905055503373ffffffffffffffffffffffffffffffffffffffff167f46b1e4e04a224580cba61e1e80978cf849e0bda6bdbec214b0d9f5810f1207fb600660000154604051610bdc919061132d565b60405180910390a25050565b60028181548110610bf857600080fd5b906000526020600020016000915090505481565b60008060008381526020019081526020016000206000015403610c64576040517f58c16fda000000000000000000000000000000000000000000000000000000008152600401610c5b9061152e565b60405180910390fd5b6000808281526020019081526020016000206006600082015481600001556001820160009054906101000a900473ffffffffffffffffffffffffffffffffffffffff168160010160006101000a81548173ffffffffffffffffffffffffffffffffffffffff021916908373ffffffffffffffffffffffffffffffffffffffff1602179055506002820160009054906101000a900473ffffffffffffffffffffffffffffffffffffffff168160020160006101000a81548173ffffffffffffffffffffffffffffffffffffffff021916908373ffffffffffffffffffffffffffffffffffffffff160217905550600382015481600301556004820154816004015560058201548160050155600682015481600601556007820160009054906101000a900473ffffffffffffffffffffffffffffffffffffffff168160070160006101000a81548173ffffffffffffffffffffffffffffffffffffffff021916908373ffffffffffffffffffffffffffffffffffffffff160217905550600882015481600801556009820160009054906101000a900473ffffffffffffffffffffffffffffffffffffffff168160090160006101000a81548173ffffffffffffffffffffffffffffffffffffffff021916908373ffffffffffffffffffffffffffffffffffffffff1602179055506009820160149054906101000a900460ff168160090160146101000a81548160ff02191690831515021790555090505033600660020160006101000a81548173ffffffffffffffffffffffffffffffffffffffff021916908373ffffffffffffffffffffffffffffffffffffffff1602179055506000600660090160146101000a81548160ff021916908315150217905550610eeb816110e4565b3373ffffffffffffffffffffffffffffffffffffffff16600660010160009054906101000a900473ffffffffffffffffffffffffffffffffffffffff1673ffffffffffffffffffffffffffffffffffffffff167fc9e838598ac651c894cf05c9407dd1a928fca7938e6c46dbd9b446f2d989786583600660040154600454604051610f78939291906114ab565b60405180910390a350565b600060016000815480929190610f98906113e6565b91905055905090565b60068060000154908060010160009054906101000a900473ffffffffffffffffffffffffffffffffffffffff16908060020160009054906101000a900473ffffffffffffffffffffffffffffffffffffffff16908060030154908060040154908060050154908060060154908060070160009054906101000a900473ffffffffffffffffffffffffffffffffffffffff16908060080154908060090160009054906101000a900473ffffffffffffffffffffffffffffffffffffffff16908060090160149054906101000a900460ff1690508b565b60015481565b60045481565b6000806002805490504244336040516020016110a0939291906115b7565b6040516020818303038152906040528051906020012060001c6110c39190611623565b9050600560008154809291906110d8906113e6565b91905055508091505090565b60005b6002805490508110156111ab57816002828154811061110957611108611388565b5b906000526020600020015403611198576002600160028054905061112d9190611654565b8154811061113e5761113d611388565b5b90600052602060002001546002828154811061115d5761115c611388565b5b9060005260206000200181905550600280548061117d5761117c611688565b5b600190038181906000526020600020016000905590556111ab565b80806111a3906113e6565b9150506110e7565b5050565b600080fd5b6000819050919050565b6111c7816111b4565b81146111d257600080fd5b50565b6000813590506111e4816111be565b92915050565b600060208284031215611200576111ff6111af565b5b600061120e848285016111d5565b91505092915050565b611220816111b4565b82525050565b600073ffffffffffffffffffffffffffffffffffffffff82169050919050565b600061125182611226565b9050919050565b61126181611246565b82525050565b60008115159050919050565b61127c81611267565b82525050565b600061016082019050611298600083018e611217565b6112a5602083018d611258565b6112b2604083018c611258565b6112bf606083018b611217565b6112cc608083018a611217565b6112d960a0830189611217565b6112e660c0830188611217565b6112f360e0830187611258565b611301610100830186611217565b61130f610120830185611258565b61131d610140830184611273565b9c9b505050505050505050505050565b60006020820190506113426000830184611217565b92915050565b6000806040838503121561135f5761135e6111af565b5b600061136d858286016111d5565b925050602061137e858286016111d5565b9150509250929050565b7f4e487b7100000000000000000000000000000000000000000000000000000000600052603260045260246000fd5b7f4e487b7100000000000000000000000000000000000000000000000000000000600052601160045260246000fd5b60006113f1826111b4565b91507fffffffffffffffffffffffffffffffffffffffffffffffffffffffffffffffff8203611423576114226113b7565b5b600182019050919050565b600082825260208201905092915050565b7f536f6d657468696e6720676f65732077726f6e672c2074727920616761696e21600082015250565b600061147560208361142e565b91506114808261143f565b602082019050919050565b600060208201905081810360008301526114a481611468565b9050919050565b60006060820190506114c06000830186611217565b6114cd6020830185611217565b6114da6040830184611217565b949350505050565b7f4e6f206578697374696e672067616d6520776974682074686973204944200000600082015250565b6000611518601e8361142e565b9150611523826114e2565b602082019050919050565b600060208201905081810360008301526115478161150b565b9050919050565b6000819050919050565b611569611564826111b4565b61154e565b82525050565b60008160601b9050919050565b60006115878261156f565b9050919050565b60006115998261157c565b9050919050565b6115b16115ac82611246565b61158e565b82525050565b60006115c38286611558565b6020820191506115d38285611558565b6020820191506115e382846115a0565b601482019150819050949350505050565b7f4e487b7100000000000000000000000000000000000000000000000000000000600052601260045260246000fd5b600061162e826111b4565b9150611639836111b4565b925082611649576116486115f4565b5b828206905092915050565b600061165f826111b4565b915061166a836111b4565b9250828203905081811115611682576116816113b7565b5b92915050565b7f4e487b7100000000000000000000000000000000000000000000000000000000600052603160045260246000fdfea2646970667358221220ac83a6538e62631455ed887583f012ca0713e6f5fe769f4c2ed885636b84fd9264736f6c63430008130033",
  "immutableReferences": {},
  "source": "// SPDX-License-Identifier: MIT\npragma solidity >=0.8.19 <0.9.0;\n// import \"@openzeppelin/contracts-ethereum-package/contracts/math/SafeMath.sol\";\n\ncontract Battleship {\n  //structure that represent a single game\n  struct Game{\n    uint256 gameId;\n    address player1;\n    address player2;\n    uint256 grandPrize;\n    uint256 boardSize;\n    uint256 remainShipsP1;\n    uint256 remainShipsP2;\n    address playerTurn;\n    uint256 penaltyTimeout;\n    address accusedPlayer;\n    bool playable;\n  }\n\n  event returnGameId(address indexed _from, uint256 _gameId);\n  event gameStarted(uint256 _gameId, address indexed _player1, address indexed _player2, uint256 _grandPrize);\n  event gameReady(uint256 _gameId, address indexed _player1, address indexed _player2, uint256 _boardSize, uint256 _startTime);\n  event gameEnded(uint256 _gameId, address indexed _winner, address indexed _looser);\n  event accusationTrial(uint256 _gameId, address indexed _accuser, address indexed _accused);\n  error eventError(string _message);\n\n  //Array of all games present in the blockchain\n  mapping(uint256 => Game) public games;\n  //Game ID generator counter\n  uint256 public gameId=1;\n  //Available games array\n  uint256[] public availableGames;\n\n  uint256 public totalGames=0;\n  uint256 public START_TIME=15;\n  uint256 internal nonce=0;\n  Game public game;\n\n  constructor() {}\n\n  function getGameId() public returns (uint256) {\n    return gameId++;\n  }\n\n  function createGame(uint256 _grandPrize, uint256 _boardSize) public {\n    game=Game(getGameId(), \n              msg.sender, \n              address(0),\n              _grandPrize,\n              _boardSize,\n              5,\n              5,\n              address(0),\n              0,\n              address(0),\n              true);\n    games[game.gameId]=game;\n    availableGames.push(game.gameId);\n    totalGames++;\n    emit returnGameId(msg.sender, game.gameId);\n  }\n\n  function joinGameByGameId(uint256 _gameId) public {\n    if(games[_gameId].gameId==0)\n      revert eventError(\"No existing game with this ID \");\n\n    game=games[_gameId];\n    game.player2=msg.sender;\n    game.playable=false;\n    deleteElementFromArray(_gameId);\n    emit gameReady(_gameId, game.player1, msg.sender, game.boardSize, START_TIME);\n  }\n\n  function joinRandomGame() public {\n    uint256 index=random();\n    uint256 i=0;\n    while(availableGames[index]==0 && i<10){\n      index=random();\n      i++;\n    }\n\n    if(i==10)\n      revert eventError(\"Something goes wrong, try again!\");\n    \n    game=games[index];\n    if(game.playable){\n      game.player2=msg.sender;\n      game.playable=false;\n      deleteElementFromArray(index);\n      emit gameReady(index, game.player1, msg.sender, game.boardSize, START_TIME);\n    } else {\n      revert eventError(\"Something goes wrong, try again!\");\n    }\n    \n  }\n\n  function deleteElementFromArray(uint256 _element) internal {\n    for(uint256 i=0;i<availableGames.length;i++){\n      if(availableGames[i]==_element){\n        availableGames[i]=availableGames[availableGames.length-1];\n        availableGames.pop();\n        break;\n      }\n    }\n  }\n\n  function random() internal returns (uint256) {\n    uint256 randomnumber = uint(keccak256(abi.encodePacked(block.timestamp, block.prevrandao, msg.sender))) % availableGames.length;\n    nonce++;\n    return randomnumber;\n  }\n}\n",
  "sourcePath": "/home/nicola/Scrivania/Magistrale/P2P and Blockchains/Battleship-ETH/battleship/contracts/Battleship.sol",
  "compiler": {
    "name": "solc",
    "version": "0.8.19+commit.7dd6d404.Emscripten.clang"
  },
  "schemaVersion": "3.4.13",
  "updatedAt": "2023-07-05T19:14:40.932Z",
  "networkType": "ethereum",
  "devdoc": {
    "kind": "dev",
    "methods": {},
    "version": 1
  },
  "userdoc": {
    "kind": "user",
    "methods": {},
    "version": 1
  }
}