{
  "contractName": "Battleship",
  "abi": [
    {
      "inputs": [],
      "stateMutability": "nonpayable",
      "type": "constructor"
    },
    {
      "anonymous": false,
      "inputs": [
        {
          "indexed": false,
          "internalType": "uint256",
          "name": "_gameId",
          "type": "uint256"
        },
        {
          "indexed": true,
          "internalType": "address",
          "name": "_accuser",
          "type": "address"
        },
        {
          "indexed": true,
          "internalType": "address",
          "name": "_accused",
          "type": "address"
        }
      ],
      "name": "accusationEvent",
      "type": "event"
    },
    {
      "anonymous": false,
      "inputs": [
        {
          "indexed": false,
          "internalType": "uint256",
          "name": "_gameId",
          "type": "uint256"
        },
        {
          "indexed": true,
          "internalType": "address",
          "name": "_from",
          "type": "address"
        }
      ],
      "name": "gameCreated",
      "type": "event"
    },
    {
      "anonymous": false,
      "inputs": [
        {
          "indexed": false,
          "internalType": "uint256",
          "name": "_gameId",
          "type": "uint256"
        },
        {
          "indexed": true,
          "internalType": "address",
          "name": "_winner",
          "type": "address"
        },
        {
          "indexed": true,
          "internalType": "address",
          "name": "_looser",
          "type": "address"
        },
        {
          "indexed": false,
          "internalType": "uint256",
          "name": "_cheat",
          "type": "uint256"
        }
      ],
      "name": "gameEnded",
      "type": "event"
    },
    {
      "anonymous": false,
      "inputs": [
        {
          "indexed": false,
          "internalType": "uint256",
          "name": "_gameId",
          "type": "uint256"
        },
        {
          "indexed": false,
          "internalType": "uint256",
          "name": "_boardSize",
          "type": "uint256"
        },
        {
          "indexed": false,
          "internalType": "uint256",
          "name": "_grandPrize",
          "type": "uint256"
        }
      ],
      "name": "gameInfo",
      "type": "event"
    },
    {
      "anonymous": false,
      "inputs": [
        {
          "indexed": false,
          "internalType": "uint256",
          "name": "_gameId",
          "type": "uint256"
        },
        {
          "indexed": true,
          "internalType": "address",
          "name": "_from",
          "type": "address"
        }
      ],
      "name": "gameJoined",
      "type": "event"
    },
    {
      "anonymous": false,
      "inputs": [
        {
          "indexed": false,
          "internalType": "uint256",
          "name": "_gameId",
          "type": "uint256"
        },
        {
          "indexed": true,
          "internalType": "address",
          "name": "_playerTurn",
          "type": "address"
        },
        {
          "indexed": true,
          "internalType": "address",
          "name": "_player",
          "type": "address"
        }
      ],
      "name": "gameReady",
      "type": "event"
    },
    {
      "anonymous": false,
      "inputs": [
        {
          "indexed": false,
          "internalType": "uint256",
          "name": "_gameId",
          "type": "uint256"
        },
        {
          "indexed": true,
          "internalType": "address",
          "name": "_player",
          "type": "address"
        },
        {
          "indexed": false,
          "internalType": "uint256",
          "name": "_shotSquareId",
          "type": "uint256"
        }
      ],
      "name": "shotEvent",
      "type": "event"
    },
    {
      "anonymous": false,
      "inputs": [
        {
          "indexed": false,
          "internalType": "uint256",
          "name": "_gameId",
          "type": "uint256"
        },
        {
          "indexed": true,
          "internalType": "address",
          "name": "_player",
          "type": "address"
        },
        {
          "indexed": false,
          "internalType": "uint256",
          "name": "_shotResult",
          "type": "uint256"
        },
        {
          "indexed": false,
          "internalType": "uint256",
          "name": "_shotSquareId",
          "type": "uint256"
        },
        {
          "indexed": false,
          "internalType": "uint256",
          "name": "_sunk",
          "type": "uint256"
        }
      ],
      "name": "shotResultEvent",
      "type": "event"
    },
    {
      "inputs": [
        {
          "internalType": "uint256",
          "name": "",
          "type": "uint256"
        }
      ],
      "name": "availableGames",
      "outputs": [
        {
          "internalType": "uint256",
          "name": "",
          "type": "uint256"
        }
      ],
      "stateMutability": "view",
      "type": "function",
      "constant": true
    },
    {
      "inputs": [],
      "name": "gameId",
      "outputs": [
        {
          "internalType": "uint256",
          "name": "",
          "type": "uint256"
        }
      ],
      "stateMutability": "view",
      "type": "function",
      "constant": true
    },
    {
      "inputs": [
        {
          "internalType": "uint256",
          "name": "",
          "type": "uint256"
        }
      ],
      "name": "games",
      "outputs": [
        {
          "internalType": "uint256",
          "name": "gameId",
          "type": "uint256"
        },
        {
          "internalType": "address",
          "name": "player1",
          "type": "address"
        },
        {
          "internalType": "address",
          "name": "player2",
          "type": "address"
        },
        {
          "internalType": "uint256",
          "name": "grandPrize",
          "type": "uint256"
        },
        {
          "internalType": "uint256",
          "name": "boardSize",
          "type": "uint256"
        },
        {
          "internalType": "uint256",
          "name": "remainShipsP1",
          "type": "uint256"
        },
        {
          "internalType": "uint256",
          "name": "remainShipsP2",
          "type": "uint256"
        },
        {
          "internalType": "bytes32",
          "name": "p1MerkleRoot",
          "type": "bytes32"
        },
        {
          "internalType": "bytes32",
          "name": "p2MerkleRoot",
          "type": "bytes32"
        },
        {
          "internalType": "uint256",
          "name": "penaltyTimeout",
          "type": "uint256"
        },
        {
          "internalType": "address",
          "name": "accusedPlayer",
          "type": "address"
        },
        {
          "internalType": "bool",
          "name": "ended",
          "type": "bool"
        }
      ],
      "stateMutability": "view",
      "type": "function",
      "constant": true
    },
    {
      "inputs": [
        {
          "internalType": "uint256",
          "name": "_boardSize",
          "type": "uint256"
        }
      ],
      "name": "createGame",
      "outputs": [],
      "stateMutability": "payable",
      "type": "function",
      "payable": true
    },
    {
      "inputs": [
        {
          "internalType": "uint256",
          "name": "_gameId",
          "type": "uint256"
        }
      ],
      "name": "joinGameByGameId",
      "outputs": [],
      "stateMutability": "nonpayable",
      "type": "function"
    },
    {
      "inputs": [],
      "name": "joinRandomGame",
      "outputs": [],
      "stateMutability": "nonpayable",
      "type": "function"
    },
    {
      "inputs": [
        {
          "internalType": "uint256",
          "name": "_gameId",
          "type": "uint256"
        }
      ],
      "name": "setOpponent",
      "outputs": [],
      "stateMutability": "payable",
      "type": "function",
      "payable": true
    },
    {
      "inputs": [
        {
          "internalType": "uint256",
          "name": "_gameId",
          "type": "uint256"
        },
        {
          "internalType": "bytes32",
          "name": "_merkleRoot",
          "type": "bytes32"
        }
      ],
      "name": "setMerkleRoot",
      "outputs": [],
      "stateMutability": "nonpayable",
      "type": "function"
    },
    {
      "inputs": [
        {
          "internalType": "uint256",
          "name": "_gameId",
          "type": "uint256"
        },
        {
          "internalType": "uint256",
          "name": "_shotSquareId",
          "type": "uint256"
        }
      ],
      "name": "shot",
      "outputs": [],
      "stateMutability": "nonpayable",
      "type": "function"
    },
    {
      "inputs": [
        {
          "internalType": "uint256",
          "name": "_gameId",
          "type": "uint256"
        },
        {
          "internalType": "uint256",
          "name": "_shotResult",
          "type": "uint256"
        },
        {
          "internalType": "uint256",
          "name": "_sunk",
          "type": "uint256"
        },
        {
          "internalType": "uint256",
          "name": "_shotSquareId",
          "type": "uint256"
        },
        {
          "internalType": "bytes32",
          "name": "_hashedLeaf",
          "type": "bytes32"
        },
        {
          "internalType": "bytes32[]",
          "name": "_merkleProof",
          "type": "bytes32[]"
        }
      ],
      "name": "shotResult",
      "outputs": [],
      "stateMutability": "nonpayable",
      "type": "function"
    },
    {
      "inputs": [
        {
          "internalType": "uint256",
          "name": "_gameId",
          "type": "uint256"
        }
      ],
      "name": "quitGame",
      "outputs": [],
      "stateMutability": "nonpayable",
      "type": "function"
    },
    {
      "inputs": [
        {
          "internalType": "uint256",
          "name": "_gameId",
          "type": "uint256"
        }
      ],
      "name": "accuseOpponent",
      "outputs": [],
      "stateMutability": "nonpayable",
      "type": "function"
    },
    {
      "inputs": [
        {
          "internalType": "uint256",
          "name": "_gameId",
          "type": "uint256"
        }
      ],
      "name": "accuseCheck",
      "outputs": [],
      "stateMutability": "payable",
      "type": "function",
      "payable": true
    }
  ],
  "bytecode": "0x60806040526001805534801561001457600080fd5b50612feb806100246000396000f3fe6080604052600436106100c25760003560e01c80634f7f73f31161007f5780639decd17c116100595780639decd17c1461023f578063b4b93d8f14610268578063d7c81b5514610284578063ebd53005146102af576100c2565b80634f7f73f3146101bd5780638031af1e146101e65780639966cc8314610202576100c2565b8063117a5b90146100c757806316f992111461010f57806318712c211461013857806320ed105714610161578063342ca1841461018a57806348e837b9146101a1575b600080fd5b3480156100d357600080fd5b506100ee60048036038101906100e99190612458565b6102d8565b6040516101069c9b9a99989796959493929190612509565b60405180910390f35b34801561011b57600080fd5b5061013660048036038101906101319190612458565b6103a5565b005b34801561014457600080fd5b5061015f600480360381019061015a91906125ef565b610784565b005b34801561016d57600080fd5b5061018860048036038101906101839190612458565b610971565b005b34801561019657600080fd5b5061019f610d29565b005b6101bb60048036038101906101b69190612458565b610fee565b005b3480156101c957600080fd5b506101e460048036038101906101df9190612694565b611281565b005b61020060048036038101906101fb9190612458565b611907565b005b34801561020e57600080fd5b5061022960048036038101906102249190612458565b611cb7565b6040516102369190612743565b60405180910390f35b34801561024b57600080fd5b5061026660048036038101906102619190612458565b611cdb565b005b610282600480360381019061027d9190612458565b611ef4565b005b34801561029057600080fd5b50610299611ffd565b6040516102a69190612743565b60405180910390f35b3480156102bb57600080fd5b506102d660048036038101906102d1919061275e565b612003565b005b60006020528060005260406000206000915090508060000154908060010160009054906101000a900473ffffffffffffffffffffffffffffffffffffffff16908060020160009054906101000a900473ffffffffffffffffffffffffffffffffffffffff169080600301549080600401549080600501549080600601549080600701549080600801549080600901549080600a0160009054906101000a900473ffffffffffffffffffffffffffffffffffffffff169080600a0160149054906101000a900460ff1690508c565b600081116103e8576040517f08c379a00000000000000000000000000000000000000000000000000000000081526004016103df906127fb565b60405180910390fd5b600080600083815260200190815260200160002060405180610180016040529081600082015481526020016001820160009054906101000a900473ffffffffffffffffffffffffffffffffffffffff1673ffffffffffffffffffffffffffffffffffffffff1673ffffffffffffffffffffffffffffffffffffffff1681526020016002820160009054906101000a900473ffffffffffffffffffffffffffffffffffffffff1673ffffffffffffffffffffffffffffffffffffffff1673ffffffffffffffffffffffffffffffffffffffff16815260200160038201548152602001600482015481526020016005820154815260200160068201548152602001600782015481526020016008820154815260200160098201548152602001600a820160009054906101000a900473ffffffffffffffffffffffffffffffffffffffff1673ffffffffffffffffffffffffffffffffffffffff1673ffffffffffffffffffffffffffffffffffffffff168152602001600a820160149054906101000a900460ff1615151515815250509050806020015173ffffffffffffffffffffffffffffffffffffffff163373ffffffffffffffffffffffffffffffffffffffff160361067d57806020015173ffffffffffffffffffffffffffffffffffffffff16816040015173ffffffffffffffffffffffffffffffffffffffff167f1d31ec22b8ac7294b2ee0af4019accbf52e1550cc6a64f6a8b0d650963050574846000604051610616929190612860565b60405180910390a3806040015173ffffffffffffffffffffffffffffffffffffffff166108fc82606001519081150290604051600060405180830381858888f1935050505015801561066c573d6000803e3d6000fd5b506000816060018181525050610780565b806040015173ffffffffffffffffffffffffffffffffffffffff163373ffffffffffffffffffffffffffffffffffffffff160361077f57806040015173ffffffffffffffffffffffffffffffffffffffff16816020015173ffffffffffffffffffffffffffffffffffffffff167f1d31ec22b8ac7294b2ee0af4019accbf52e1550cc6a64f6a8b0d65096305057484600060405161071c929190612860565b60405180910390a3806020015173ffffffffffffffffffffffffffffffffffffffff166108fc82606001519081150290604051600060405180830381858888f19350505050158015610772573d6000803e3d6000fd5b5060008160600181815250505b5b5050565b600082116107c7576040517f08c379a00000000000000000000000000000000000000000000000000000000081526004016107be906128d5565b60405180910390fd5b600080600084815260200190815260200160002090508060010160009054906101000a900473ffffffffffffffffffffffffffffffffffffffff1673ffffffffffffffffffffffffffffffffffffffff163373ffffffffffffffffffffffffffffffffffffffff1603610842578181600701819055506108e3565b8060020160009054906101000a900473ffffffffffffffffffffffffffffffffffffffff1673ffffffffffffffffffffffffffffffffffffffff163373ffffffffffffffffffffffffffffffffffffffff16036108a7578181600801819055506108e2565b6040517f08c379a00000000000000000000000000000000000000000000000000000000081526004016108d990612941565b60405180910390fd5b5b3373ffffffffffffffffffffffffffffffffffffffff168160010160009054906101000a900473ffffffffffffffffffffffffffffffffffffffff1673ffffffffffffffffffffffffffffffffffffffff167f579d51a8a09cc46d5b01f59d7cc8a51837a1cf32ed27209e7e6fe22fde35d417856040516109649190612743565b60405180910390a3505050565b600081116109b4576040517f08c379a00000000000000000000000000000000000000000000000000000000081526004016109ab906129ad565b60405180910390fd5b600080600083815260200190815260200160002060405180610180016040529081600082015481526020016001820160009054906101000a900473ffffffffffffffffffffffffffffffffffffffff1673ffffffffffffffffffffffffffffffffffffffff1673ffffffffffffffffffffffffffffffffffffffff1681526020016002820160009054906101000a900473ffffffffffffffffffffffffffffffffffffffff1673ffffffffffffffffffffffffffffffffffffffff1673ffffffffffffffffffffffffffffffffffffffff16815260200160038201548152602001600482015481526020016005820154815260200160068201548152602001600782015481526020016008820154815260200160098201548152602001600a820160009054906101000a900473ffffffffffffffffffffffffffffffffffffffff1673ffffffffffffffffffffffffffffffffffffffff1673ffffffffffffffffffffffffffffffffffffffff168152602001600a820160149054906101000a900460ff1615151515815250509050600073ffffffffffffffffffffffffffffffffffffffff1681610140015173ffffffffffffffffffffffffffffffffffffffff1603610d2557600543610b8991906129fc565b81610120018181525050806020015173ffffffffffffffffffffffffffffffffffffffff163373ffffffffffffffffffffffffffffffffffffffff1603610c7957806040015181610140019073ffffffffffffffffffffffffffffffffffffffff16908173ffffffffffffffffffffffffffffffffffffffff1681525050806040015173ffffffffffffffffffffffffffffffffffffffff16816020015173ffffffffffffffffffffffffffffffffffffffff167f8e45f8a1a3dbd030e079eb6c8908ea3c2d02b6456045cdf71f5c87f88ae6134d84604051610c6c9190612743565b60405180910390a3610d24565b806020015181610140019073ffffffffffffffffffffffffffffffffffffffff16908173ffffffffffffffffffffffffffffffffffffffff1681525050806020015173ffffffffffffffffffffffffffffffffffffffff16816040015173ffffffffffffffffffffffffffffffffffffffff167f8e45f8a1a3dbd030e079eb6c8908ea3c2d02b6456045cdf71f5c87f88ae6134d84604051610d1b9190612743565b60405180910390a35b5b5050565b600060028054905011610d71576040517f08c379a0000000000000000000000000000000000000000000000000000000008152600401610d6890612a7c565b60405180910390fd5b6000610d7b61233e565b905060005b600060028381548110610d9657610d95612a9c565b5b9060005260206000200154148015610dae5750600a81105b15610dd057610dbb61233e565b91508080610dc890612acb565b915050610d80565b600a8110610e13576040517f08c379a0000000000000000000000000000000000000000000000000000000008152600401610e0a90612b5f565b60405180910390fd5b600080600084815260200190815260200160002060405180610180016040529081600082015481526020016001820160009054906101000a900473ffffffffffffffffffffffffffffffffffffffff1673ffffffffffffffffffffffffffffffffffffffff1673ffffffffffffffffffffffffffffffffffffffff1681526020016002820160009054906101000a900473ffffffffffffffffffffffffffffffffffffffff1673ffffffffffffffffffffffffffffffffffffffff1673ffffffffffffffffffffffffffffffffffffffff16815260200160038201548152602001600482015481526020016005820154815260200160068201548152602001600782015481526020016008820154815260200160098201548152602001600a820160009054906101000a900473ffffffffffffffffffffffffffffffffffffffff1673ffffffffffffffffffffffffffffffffffffffff1673ffffffffffffffffffffffffffffffffffffffff168152602001600a820160149054906101000a900460ff16151515158152505090507f2e228c4005eb8318a1e40880fd973e87e2c0346ce6d45fe3ecbde9297b8328aa816000015182608001518360600151604051610fe193929190612b7f565b60405180910390a1505050565b6000604051806101800160405280611004612383565b81526020013373ffffffffffffffffffffffffffffffffffffffff168152602001600073ffffffffffffffffffffffffffffffffffffffff16815260200134815260200183815260200160058152602001600581526020016000801b81526020016000801b815260200160008152602001600073ffffffffffffffffffffffffffffffffffffffff16815260200160001515815250905080600080836000015181526020019081526020016000206000820151816000015560208201518160010160006101000a81548173ffffffffffffffffffffffffffffffffffffffff021916908373ffffffffffffffffffffffffffffffffffffffff16021790555060408201518160020160006101000a81548173ffffffffffffffffffffffffffffffffffffffff021916908373ffffffffffffffffffffffffffffffffffffffff160217905550606082015181600301556080820151816004015560a0820151816005015560c0820151816006015560e082015181600701556101008201518160080155610120820151816009015561014082015181600a0160006101000a81548173ffffffffffffffffffffffffffffffffffffffff021916908373ffffffffffffffffffffffffffffffffffffffff16021790555061016082015181600a0160146101000a81548160ff0219169083151502179055509050506002816000015190806001815401808255809150506001900390600052602060002001600090919091909150553373ffffffffffffffffffffffffffffffffffffffff167f6819b4a537631fd79a9d2b0f56db1ff2742f0304520484d23f6f356aaebe31f682600001516040516112759190612743565b60405180910390a25050565b600087116112c4576040517f08c379a00000000000000000000000000000000000000000000000000000000081526004016112bb906128d5565b60405180910390fd5b60008614806112d35750600186145b611312576040517f08c379a000000000000000000000000000000000000000000000000000000000815260040161130990612c02565b60405180910390fd5b6000841015611356576040517f08c379a000000000000000000000000000000000000000000000000000000000815260040161134d90612c6e565b60405180910390fd5b6000801b830361139b576040517f08c379a000000000000000000000000000000000000000000000000000000000815260040161139290612cda565b60405180910390fd5b60018282905010156113e2576040517f08c379a00000000000000000000000000000000000000000000000000000000081526004016113d990612d46565b60405180910390fd5b600080600089815260200190815260200160002060405180610180016040529081600082015481526020016001820160009054906101000a900473ffffffffffffffffffffffffffffffffffffffff1673ffffffffffffffffffffffffffffffffffffffff1673ffffffffffffffffffffffffffffffffffffffff1681526020016002820160009054906101000a900473ffffffffffffffffffffffffffffffffffffffff1673ffffffffffffffffffffffffffffffffffffffff1673ffffffffffffffffffffffffffffffffffffffff16815260200160038201548152602001600482015481526020016005820154815260200160068201548152602001600782015481526020016008820154815260200160098201548152602001600a820160009054906101000a900473ffffffffffffffffffffffffffffffffffffffff1673ffffffffffffffffffffffffffffffffffffffff1673ffffffffffffffffffffffffffffffffffffffff168152602001600a820160149054906101000a900460ff1615151515815250509050600080826020015173ffffffffffffffffffffffffffffffffffffffff163373ffffffffffffffffffffffffffffffffffffffff16036115dd57826040015191508260e001519050600188036115d8578260a00180518091906115d390612d66565b815250505b61160c565b8260200151915082610100015190506001880361160b578260c001805180919061160690612d66565b815250505b5b60006116198787876123a1565b9050808203611829578273ffffffffffffffffffffffffffffffffffffffff167f60b03db40b43be4f8b3428a838a6669cea0817c35923b53b929e16311e5bc6038c8c8b8d60405161166e9493929190612d8f565b60405180910390a260008460c001510361174d57836040015173ffffffffffffffffffffffffffffffffffffffff16846020015173ffffffffffffffffffffffffffffffffffffffff167f1d31ec22b8ac7294b2ee0af4019accbf52e1550cc6a64f6a8b0d6509630505748d60006040516116ea929190612860565b60405180910390a3836020015173ffffffffffffffffffffffffffffffffffffffff166108fc85606001519081150290604051600060405180830381858888f19350505050158015611740573d6000803e3d6000fd5b5060008460600181815250505b60008460a001510361182457836020015173ffffffffffffffffffffffffffffffffffffffff16846040015173ffffffffffffffffffffffffffffffffffffffff167f1d31ec22b8ac7294b2ee0af4019accbf52e1550cc6a64f6a8b0d6509630505748d60006040516117c1929190612860565b60405180910390a3836040015173ffffffffffffffffffffffffffffffffffffffff166108fc85606001519081150290604051600060405180830381858888f19350505050158015611817573d6000803e3d6000fd5b5060008460600181815250505b6118fa565b3373ffffffffffffffffffffffffffffffffffffffff168373ffffffffffffffffffffffffffffffffffffffff167f1d31ec22b8ac7294b2ee0af4019accbf52e1550cc6a64f6a8b0d6509630505748d6001604051611889929190612e0f565b60405180910390a38273ffffffffffffffffffffffffffffffffffffffff166108fc85606001519081150290604051600060405180830381858888f193505050501580156118db573d6000803e3d6000fd5b5060008460600181815250506001846101600190151590811515815250505b5050505050505050505050565b6000811161194a576040517f08c379a0000000000000000000000000000000000000000000000000000000008152600401611941906129ad565b60405180910390fd5b600080600083815260200190815260200160002060405180610180016040529081600082015481526020016001820160009054906101000a900473ffffffffffffffffffffffffffffffffffffffff1673ffffffffffffffffffffffffffffffffffffffff1673ffffffffffffffffffffffffffffffffffffffff1681526020016002820160009054906101000a900473ffffffffffffffffffffffffffffffffffffffff1673ffffffffffffffffffffffffffffffffffffffff1673ffffffffffffffffffffffffffffffffffffffff16815260200160038201548152602001600482015481526020016005820154815260200160068201548152602001600782015481526020016008820154815260200160098201548152602001600a820160009054906101000a900473ffffffffffffffffffffffffffffffffffffffff1673ffffffffffffffffffffffffffffffffffffffff1673ffffffffffffffffffffffffffffffffffffffff168152602001600a820160149054906101000a900460ff1615151515815250509050806020015173ffffffffffffffffffffffffffffffffffffffff1681610140015173ffffffffffffffffffffffffffffffffffffffff1603611be6574381610120015111611be157806040015173ffffffffffffffffffffffffffffffffffffffff166108fc82606001519081150290604051600060405180830381858888f19350505050158015611b6f573d6000803e3d6000fd5b50806020015173ffffffffffffffffffffffffffffffffffffffff16816040015173ffffffffffffffffffffffffffffffffffffffff167f1d31ec22b8ac7294b2ee0af4019accbf52e1550cc6a64f6a8b0d650963050574846000604051611bd8929190612860565b60405180910390a35b611cb3565b4381610120015111611cb257806020015173ffffffffffffffffffffffffffffffffffffffff166108fc82606001519081150290604051600060405180830381858888f19350505050158015611c40573d6000803e3d6000fd5b50806040015173ffffffffffffffffffffffffffffffffffffffff16816020015173ffffffffffffffffffffffffffffffffffffffff167f1d31ec22b8ac7294b2ee0af4019accbf52e1550cc6a64f6a8b0d650963050574846000604051611ca9929190612860565b60405180910390a35b5b5050565b60028181548110611cc757600080fd5b906000526020600020016000915090505481565b60008111611d1e576040517f08c379a0000000000000000000000000000000000000000000000000000000008152600401611d15906129ad565b60405180910390fd5b600080600083815260200190815260200160002060405180610180016040529081600082015481526020016001820160009054906101000a900473ffffffffffffffffffffffffffffffffffffffff1673ffffffffffffffffffffffffffffffffffffffff1673ffffffffffffffffffffffffffffffffffffffff1681526020016002820160009054906101000a900473ffffffffffffffffffffffffffffffffffffffff1673ffffffffffffffffffffffffffffffffffffffff1673ffffffffffffffffffffffffffffffffffffffff16815260200160038201548152602001600482015481526020016005820154815260200160068201548152602001600782015481526020016008820154815260200160098201548152602001600a820160009054906101000a900473ffffffffffffffffffffffffffffffffffffffff1673ffffffffffffffffffffffffffffffffffffffff1673ffffffffffffffffffffffffffffffffffffffff168152602001600a820160149054906101000a900460ff16151515158152505090507f2e228c4005eb8318a1e40880fd973e87e2c0346ce6d45fe3ecbde9297b8328aa8282608001518360600151604051611ee893929190612b7f565b60405180910390a15050565b60008111611f37576040517f08c379a0000000000000000000000000000000000000000000000000000000008152600401611f2e906128d5565b60405180910390fd5b60008060008381526020019081526020016000209050338160020160006101000a81548173ffffffffffffffffffffffffffffffffffffffff021916908373ffffffffffffffffffffffffffffffffffffffff16021790555034816003016000828254611fa491906129fc565b925050819055503373ffffffffffffffffffffffffffffffffffffffff167f082f67f820bd19b8afdb7a254074ae7c54044d730095a591e66f385f31dc242b83604051611ff19190612743565b60405180910390a25050565b60015481565b60008211612046576040517f08c379a000000000000000000000000000000000000000000000000000000000815260040161203d906128d5565b60405180910390fd5b600080600084815260200190815260200160002060405180610180016040529081600082015481526020016001820160009054906101000a900473ffffffffffffffffffffffffffffffffffffffff1673ffffffffffffffffffffffffffffffffffffffff1673ffffffffffffffffffffffffffffffffffffffff1681526020016002820160009054906101000a900473ffffffffffffffffffffffffffffffffffffffff1673ffffffffffffffffffffffffffffffffffffffff1673ffffffffffffffffffffffffffffffffffffffff16815260200160038201548152602001600482015481526020016005820154815260200160068201548152602001600782015481526020016008820154815260200160098201548152602001600a820160009054906101000a900473ffffffffffffffffffffffffffffffffffffffff1673ffffffffffffffffffffffffffffffffffffffff1673ffffffffffffffffffffffffffffffffffffffff168152602001600a820160149054906101000a900460ff1615151515815250509050806020015173ffffffffffffffffffffffffffffffffffffffff163373ffffffffffffffffffffffffffffffffffffffff160361226557806040015173ffffffffffffffffffffffffffffffffffffffff167f5a714ed4c14d94c7c78bb2d603a46d32343bdd52ae763cf1ec34ca2f64d4c46a8484604051612258929190612e38565b60405180910390a26122ba565b806020015173ffffffffffffffffffffffffffffffffffffffff167f5a714ed4c14d94c7c78bb2d603a46d32343bdd52ae763cf1ec34ca2f64d4c46a84846040516122b1929190612e38565b60405180910390a25b3373ffffffffffffffffffffffffffffffffffffffff1681610140015173ffffffffffffffffffffffffffffffffffffffff160361233957600081610120018181525050600081610140019073ffffffffffffffffffffffffffffffffffffffff16908173ffffffffffffffffffffffffffffffffffffffff16815250505b505050565b600060028054905042444160405160200161235b93929190612edc565b6040516020818303038152906040528051906020012060001c61237e9190612f48565b905090565b60006001600081548092919061239890612acb565b91905055905090565b60008084905060005b8484905081101561240c578484828181106123c8576123c7612a9c565b5b9050602002013582186040516020016123e19190612f9a565b604051602081830303815290604052805190602001209150808061240490612acb565b9150506123aa565b50809150509392505050565b600080fd5b600080fd5b6000819050919050565b61243581612422565b811461244057600080fd5b50565b6000813590506124528161242c565b92915050565b60006020828403121561246e5761246d612418565b5b600061247c84828501612443565b91505092915050565b61248e81612422565b82525050565b600073ffffffffffffffffffffffffffffffffffffffff82169050919050565b60006124bf82612494565b9050919050565b6124cf816124b4565b82525050565b6000819050919050565b6124e8816124d5565b82525050565b60008115159050919050565b612503816124ee565b82525050565b60006101808201905061251f600083018f612485565b61252c602083018e6124c6565b612539604083018d6124c6565b612546606083018c612485565b612553608083018b612485565b61256060a083018a612485565b61256d60c0830189612485565b61257a60e08301886124df565b6125886101008301876124df565b612596610120830186612485565b6125a46101408301856124c6565b6125b26101608301846124fa565b9d9c50505050505050505050505050565b6125cc816124d5565b81146125d757600080fd5b50565b6000813590506125e9816125c3565b92915050565b6000806040838503121561260657612605612418565b5b600061261485828601612443565b9250506020612625858286016125da565b9150509250929050565b600080fd5b600080fd5b600080fd5b60008083601f8401126126545761265361262f565b5b8235905067ffffffffffffffff81111561267157612670612634565b5b60208301915083602082028301111561268d5761268c612639565b5b9250929050565b600080600080600080600060c0888a0312156126b3576126b2612418565b5b60006126c18a828b01612443565b97505060206126d28a828b01612443565b96505060406126e38a828b01612443565b95505060606126f48a828b01612443565b94505060806127058a828b016125da565b93505060a088013567ffffffffffffffff8111156127265761272561241d565b5b6127328a828b0161263e565b925092505092959891949750929550565b60006020820190506127586000830184612485565b92915050565b6000806040838503121561277557612774612418565b5b600061278385828601612443565b925050602061279485828601612443565b9150509250929050565b600082825260208201905092915050565b7f47616d65204944206973206e6567617469766521000000000000000000000000600082015250565b60006127e560148361279e565b91506127f0826127af565b602082019050919050565b60006020820190508181036000830152612814816127d8565b9050919050565b6000819050919050565b6000819050919050565b600061284a6128456128408461281b565b612825565b612422565b9050919050565b61285a8161282f565b82525050565b60006040820190506128756000830185612485565b6128826020830184612851565b9392505050565b7f47616d65206964206973206e6567617469766521000000000000000000000000600082015250565b60006128bf60148361279e565b91506128ca82612889565b602082019050919050565b600060208201905081810360008301526128ee816128b2565b9050919050565b7f506c617965722061646472657373206973206e6f742076616c69640000000000600082015250565b600061292b601b8361279e565b9150612936826128f5565b602082019050919050565b6000602082019050818103600083015261295a8161291e565b9050919050565b7f47616d65204944206973206e6567617469766500000000000000000000000000600082015250565b600061299760138361279e565b91506129a282612961565b602082019050919050565b600060208201905081810360008301526129c68161298a565b9050919050565b7f4e487b7100000000000000000000000000000000000000000000000000000000600052601160045260246000fd5b6000612a0782612422565b9150612a1283612422565b9250828201905080821115612a2a57612a296129cd565b5b92915050565b7f4e6f20617661696c61626c652067616d65730000000000000000000000000000600082015250565b6000612a6660128361279e565b9150612a7182612a30565b602082019050919050565b60006020820190508181036000830152612a9581612a59565b9050919050565b7f4e487b7100000000000000000000000000000000000000000000000000000000600052603260045260246000fd5b6000612ad682612422565b91507fffffffffffffffffffffffffffffffffffffffffffffffffffffffffffffffff8203612b0857612b076129cd565b5b600182019050919050565b7f536f6d657468696e6720676f65732077726f6e672c2074727920616761696e21600082015250565b6000612b4960208361279e565b9150612b5482612b13565b602082019050919050565b60006020820190508181036000830152612b7881612b3c565b9050919050565b6000606082019050612b946000830186612485565b612ba16020830185612485565b612bae6040830184612485565b949350505050565b7f47616d6520726573756c74206e6f742076616c69640000000000000000000000600082015250565b6000612bec60158361279e565b9150612bf782612bb6565b602082019050919050565b60006020820190508181036000830152612c1b81612bdf565b9050919050565b7f53686f7420737175617265204944206e6f742076616c69640000000000000000600082015250565b6000612c5860188361279e565b9150612c6382612c22565b602082019050919050565b60006020820190508181036000830152612c8781612c4b565b9050919050565b7f486173686564204c656166206d757374206265206e6f7420656d707479000000600082015250565b6000612cc4601d8361279e565b9150612ccf82612c8e565b602082019050919050565b60006020820190508181036000830152612cf381612cb7565b9050919050565b7f4d65726b6c652070726f6f66206d757374206e6f7420626520656d7074790000600082015250565b6000612d30601e8361279e565b9150612d3b82612cfa565b602082019050919050565b60006020820190508181036000830152612d5f81612d23565b9050919050565b6000612d7182612422565b915060008203612d8457612d836129cd565b5b600182039050919050565b6000608082019050612da46000830187612485565b612db16020830186612485565b612dbe6040830185612485565b612dcb6060830184612485565b95945050505050565b6000819050919050565b6000612df9612df4612def84612dd4565b612825565b612422565b9050919050565b612e0981612dde565b82525050565b6000604082019050612e246000830185612485565b612e316020830184612e00565b9392505050565b6000604082019050612e4d6000830185612485565b612e5a6020830184612485565b9392505050565b6000819050919050565b612e7c612e7782612422565b612e61565b82525050565b6000612e8d82612494565b9050919050565b60008160601b9050919050565b6000612eac82612e94565b9050919050565b6000612ebe82612ea1565b9050919050565b612ed6612ed182612e82565b612eb3565b82525050565b6000612ee88286612e6b565b602082019150612ef88285612e6b565b602082019150612f088284612ec5565b601482019150819050949350505050565b7f4e487b7100000000000000000000000000000000000000000000000000000000600052601260045260246000fd5b6000612f5382612422565b9150612f5e83612422565b925082612f6e57612f6d612f19565b5b828206905092915050565b6000819050919050565b612f94612f8f826124d5565b612f79565b82525050565b6000612fa68284612f83565b6020820191508190509291505056fea26469706673582212200fec17c9c8b2a5687889f640a8db5f65bacfa2a17fd0db03c194022cb741c86c64736f6c63430008130033",
  "immutableReferences": {},
  "source": "// SPDX-License-Identifier: MIT\npragma solidity >=0.8.19 <0.9.0;\n// import \"@openzeppelin/contracts-ethereum-package/contracts/math/SafeMath.sol\";\n\ncontract Battleship {\n  //structure that represent a single game\n  struct Game{\n    uint256 gameId;\n    address player1;\n    address player2;\n    uint256 grandPrize;\n    uint256 boardSize;\n    uint256 remainShipsP1;\n    uint256 remainShipsP2;\n    bytes32 p1MerkleRoot;\n    bytes32 p2MerkleRoot;\n    uint256 penaltyTimeout;\n    address accusedPlayer;\n    bool ended;\n  }\n\n  event gameCreated(uint256 _gameId, address indexed _from);\n  event gameJoined(uint256 _gameId, address indexed _from);\n  event gameReady(uint256 _gameId, address indexed _playerTurn, address indexed _player);\n  event gameInfo(uint256 _gameId, uint256 _boardSize, uint256 _grandPrize);\n  event gameEnded(uint256 _gameId, address indexed _winner, address indexed _looser, uint256 _cheat);\n  event shotEvent(uint256 _gameId, address indexed _player, uint256 _shotSquareId);\n  event shotResultEvent(uint256 _gameId, address indexed _player, uint256 _shotResult, uint256 _shotSquareId, uint256 _sunk);\n  event accusationEvent(uint256 _gameId, address indexed _accuser, address indexed _accused);\n\n  //Array of all games present in the blockchain\n  mapping(uint256 => Game) public games;\n  //Game ID generator counter\n  uint256 public gameId=1;\n  //Available games array\n  uint256[] public availableGames;\n\n  constructor() {}\n\n  function getGameId() internal returns (uint256) {\n    return gameId++;\n  }\n\n  function createGame(uint256 _boardSize) public payable {\n    Game memory game=Game(getGameId(), \n              msg.sender, \n              address(0),\n              msg.value,\n              _boardSize,\n              5,\n              5,\n              0,\n              0,\n              0,\n              address(0),\n              false);\n    games[game.gameId]=game;\n    availableGames.push(game.gameId);\n\n    emit gameCreated(game.gameId, msg.sender);\n  }\n\n  function joinGameByGameId(uint256 _gameId) public {\n    require(_gameId > 0, \"Game ID is negative\");\n      \n    Game memory game=games[_gameId];\n    emit gameInfo(_gameId, game.boardSize, game.grandPrize);\n  }\n\n  function joinRandomGame() public {\n    require(availableGames.length > 0, \"No available games\");\n\n    uint256 index=random();\n    uint256 i=0;\n    while(availableGames[index]==0 && i<10){\n      index=random();\n      i++;\n    }\n\n    require(i < 10, \"Something goes wrong, try again!\");\n\n    Game memory game=games[index];\n    emit gameInfo(game.gameId, game.boardSize, game.grandPrize);\n  }\n\n  function setOpponent(uint256 _gameId) public payable{\n    require(_gameId > 0, \"Game id is negative!\");\n    Game storage game=games[_gameId];\n\n    game.player2=msg.sender;\n    game.grandPrize+=msg.value;\n    emit gameJoined(_gameId, msg.sender);\n  }\n\n  function setMerkleRoot(uint256 _gameId, bytes32 _merkleRoot) public{\n    require(_gameId > 0, \"Game id is negative!\");\n    Game storage game=games[_gameId];\n\n    if(msg.sender==game.player1){\n      game.p1MerkleRoot=_merkleRoot;\n    } else if(msg.sender==game.player2) {\n      game.p2MerkleRoot=_merkleRoot;\n    } else {\n      revert(\"Player address is not valid\");\n    }\n\n    emit gameReady(_gameId, game.player1, msg.sender);\n  }\n\n  function shot(uint256 _gameId, uint256 _shotSquareId) public{\n    require(_gameId > 0, \"Game id is negative!\");\n\n    Game memory game=games[_gameId];\n    if(msg.sender==game.player1)\n      emit shotEvent(_gameId, game.player2, _shotSquareId);\n    else\n      emit shotEvent(_gameId, game.player1, _shotSquareId);\n\n    if(game.accusedPlayer==msg.sender){\n      game.penaltyTimeout=0;\n      game.accusedPlayer=address(0);\n    }\n  }\n\n  function shotResult(uint256 _gameId, uint256 _shotResult, uint256 _sunk, uint256 _shotSquareId, bytes32 _hashedLeaf, bytes32[] calldata _merkleProof) public {\n    require(_gameId > 0, \"Game id is negative!\");\n    require(_shotResult==0 || _shotResult ==1, \"Game result not valid\");\n    require(_shotSquareId >= 0, \"Shot square ID not valid\");\n    require(_hashedLeaf!=0, \"Hashed Leaf must be not empty\");\n    require(_merkleProof.length >= 1, \"Merkle proof must not be empty\");\n\n    Game memory game=games[_gameId];\n    address shoter;\n    bytes32 merkleRoot;\n    if(msg.sender==game.player1){\n      shoter=game.player2;\n      merkleRoot=game.p1MerkleRoot;\n      if(_sunk==1){\n        game.remainShipsP1--;\n      }\n    } else {\n      shoter=game.player1;\n      merkleRoot=game.p2MerkleRoot;\n      if(_sunk==1){\n        game.remainShipsP2--;\n      }    \n    }\n\n    bytes32 calculatedMerkleRoot=getMerkleRoot(_hashedLeaf, _merkleProof);\n\n    if(merkleRoot==calculatedMerkleRoot){\n      emit shotResultEvent(_gameId, shoter, _shotResult, _shotSquareId, _sunk);\n\n      if(game.remainShipsP2==0){\n        emit gameEnded(_gameId, game.player1, game.player2, 0);\n\n        payable(game.player1).transfer(game.grandPrize);\n        game.grandPrize = 0;\n      }\n      \n      if(game.remainShipsP1==0){\n        emit gameEnded(_gameId, game.player2, game.player1, 0);\n\n        payable(game.player2).transfer(game.grandPrize);\n        game.grandPrize = 0;\n      }\n    } else {\n      emit gameEnded(_gameId, shoter, msg.sender, 1);\n      payable(shoter).transfer(game.grandPrize);\n      game.grandPrize = 0;\n      game.ended = true;\n    }\n    \n  }\n\n  function getMerkleRoot(bytes32 _hashedLeaf, bytes32[] calldata _merkleProof) internal pure returns (bytes32) {\n    bytes32 computedHash = _hashedLeaf;\n\n    for (uint256 i = 0; i < _merkleProof.length; i++) {\n        computedHash = keccak256(abi.encodePacked(computedHash^_merkleProof[i]));\n    }\n\n    return computedHash;\n  }\n\n  function quitGame(uint256 _gameId) public {\n    require(_gameId > 0, \"Game ID is negative!\");\n\n    Game memory game=games[_gameId];\n\n    if(msg.sender==game.player1){\n      emit gameEnded(_gameId, game.player2, game.player1, 0);\n\n      payable(game.player2).transfer(game.grandPrize);\n      game.grandPrize = 0;\n    }else if(msg.sender==game.player2){\n      emit gameEnded(_gameId, game.player1, game.player2, 0);\n      \n      payable(game.player1).transfer(game.grandPrize);\n      game.grandPrize = 0;\n    }\n  }\n\n  function accuseOpponent(uint256 _gameId) public {\n    require(_gameId > 0, \"Game ID is negative\");\n\n    Game memory game=games[_gameId];\n    if(game.accusedPlayer==address(0)){\n      game.penaltyTimeout=block.number+5;\n      if(msg.sender==game.player1){\n        game.accusedPlayer=game.player2;\n        emit accusationEvent(_gameId, game.player1, game.player2);\n      } else {\n        game.accusedPlayer=game.player1;\n        emit accusationEvent(_gameId, game.player2, game.player1);\n      }\n    }\n  }\n\n  function accuseCheck(uint256 _gameId) public payable{\n    require(_gameId > 0, \"Game ID is negative\");\n\n    Game memory game=games[_gameId];\n    if(game.accusedPlayer==game.player1){\n      if(game.penaltyTimeout<=block.number){\n        payable(game.player2).transfer(game.grandPrize);\n        emit gameEnded(_gameId, game.player2, game.player1, 0);\n      }\n    } else {\n      if(game.penaltyTimeout<=block.number){\n        payable(game.player1).transfer(game.grandPrize);\n        emit gameEnded(_gameId, game.player1, game.player2, 0);\n      }\n    }\n  }\n\n  function deleteElementFromArray(uint256 _element) internal {\n    for (uint256 i = 0; i < availableGames.length; i++) {\n        if (availableGames[i] == _element) {\n            if (i != availableGames.length - 1) {\n                availableGames[i] = availableGames[availableGames.length - 1];\n            }\n            availableGames.pop();\n            break;\n        }\n    }\n  }\n\n  function random() internal view returns (uint256) {\n    return uint256(keccak256(abi.encodePacked(block.timestamp, block.prevrandao, block.coinbase))) % availableGames.length;\n  }\n}\n",
  "sourcePath": "/home/nicola/Scrivania/Magistrale/P2P and Blockchains/Battleship-ETH/battleship/contracts/Battleship.sol",
  "compiler": {
    "name": "solc",
    "version": "0.8.19+commit.7dd6d404.Emscripten.clang"
  },
  "schemaVersion": "3.4.13",
  "updatedAt": "2023-07-24T17:09:30.170Z",
  "networkType": "ethereum",
  "devdoc": {
    "kind": "dev",
    "methods": {},
    "version": 1
  },
  "userdoc": {
    "kind": "user",
    "methods": {},
    "version": 1
  }
}