{
  "contractName": "Battleship",
  "abi": [
    {
      "inputs": [],
      "stateMutability": "nonpayable",
      "type": "constructor"
    },
    {
      "anonymous": false,
      "inputs": [
        {
          "indexed": false,
          "internalType": "uint256",
          "name": "_gameId",
          "type": "uint256"
        },
        {
          "indexed": true,
          "internalType": "address",
          "name": "_accuser",
          "type": "address"
        },
        {
          "indexed": true,
          "internalType": "address",
          "name": "_accused",
          "type": "address"
        }
      ],
      "name": "accusationTrial",
      "type": "event"
    },
    {
      "anonymous": false,
      "inputs": [
        {
          "indexed": false,
          "internalType": "uint256",
          "name": "_gameId",
          "type": "uint256"
        },
        {
          "indexed": true,
          "internalType": "address",
          "name": "_from",
          "type": "address"
        }
      ],
      "name": "gameCreated",
      "type": "event"
    },
    {
      "anonymous": false,
      "inputs": [
        {
          "indexed": false,
          "internalType": "uint256",
          "name": "_gameId",
          "type": "uint256"
        },
        {
          "indexed": true,
          "internalType": "address",
          "name": "_winner",
          "type": "address"
        },
        {
          "indexed": true,
          "internalType": "address",
          "name": "_looser",
          "type": "address"
        },
        {
          "indexed": false,
          "internalType": "uint256",
          "name": "_cheat",
          "type": "uint256"
        }
      ],
      "name": "gameEnded",
      "type": "event"
    },
    {
      "anonymous": false,
      "inputs": [
        {
          "indexed": false,
          "internalType": "uint256",
          "name": "_gameId",
          "type": "uint256"
        },
        {
          "indexed": false,
          "internalType": "uint256",
          "name": "_boardSize",
          "type": "uint256"
        },
        {
          "indexed": false,
          "internalType": "uint256",
          "name": "_grandPrize",
          "type": "uint256"
        }
      ],
      "name": "gameInfo",
      "type": "event"
    },
    {
      "anonymous": false,
      "inputs": [
        {
          "indexed": false,
          "internalType": "uint256",
          "name": "_gameId",
          "type": "uint256"
        },
        {
          "indexed": true,
          "internalType": "address",
          "name": "_from",
          "type": "address"
        }
      ],
      "name": "gameJoined",
      "type": "event"
    },
    {
      "anonymous": false,
      "inputs": [
        {
          "indexed": false,
          "internalType": "uint256",
          "name": "_gameId",
          "type": "uint256"
        },
        {
          "indexed": true,
          "internalType": "address",
          "name": "_playerTurn",
          "type": "address"
        },
        {
          "indexed": true,
          "internalType": "address",
          "name": "_player",
          "type": "address"
        }
      ],
      "name": "gameReady",
      "type": "event"
    },
    {
      "anonymous": false,
      "inputs": [
        {
          "indexed": false,
          "internalType": "uint256",
          "name": "_gameId",
          "type": "uint256"
        },
        {
          "indexed": true,
          "internalType": "address",
          "name": "_player",
          "type": "address"
        },
        {
          "indexed": false,
          "internalType": "uint256",
          "name": "_shotSquareId",
          "type": "uint256"
        }
      ],
      "name": "shotEvent",
      "type": "event"
    },
    {
      "anonymous": false,
      "inputs": [
        {
          "indexed": false,
          "internalType": "uint256",
          "name": "_gameId",
          "type": "uint256"
        },
        {
          "indexed": true,
          "internalType": "address",
          "name": "_player",
          "type": "address"
        },
        {
          "indexed": false,
          "internalType": "uint256",
          "name": "_shotResult",
          "type": "uint256"
        },
        {
          "indexed": false,
          "internalType": "uint256",
          "name": "_shotSquareId",
          "type": "uint256"
        },
        {
          "indexed": false,
          "internalType": "string",
          "name": "_sunk",
          "type": "string"
        }
      ],
      "name": "shotResultEvent",
      "type": "event"
    },
    {
      "inputs": [
        {
          "internalType": "uint256",
          "name": "",
          "type": "uint256"
        }
      ],
      "name": "availableGames",
      "outputs": [
        {
          "internalType": "uint256",
          "name": "",
          "type": "uint256"
        }
      ],
      "stateMutability": "view",
      "type": "function",
      "constant": true
    },
    {
      "inputs": [],
      "name": "gameId",
      "outputs": [
        {
          "internalType": "uint256",
          "name": "",
          "type": "uint256"
        }
      ],
      "stateMutability": "view",
      "type": "function",
      "constant": true
    },
    {
      "inputs": [
        {
          "internalType": "uint256",
          "name": "",
          "type": "uint256"
        }
      ],
      "name": "games",
      "outputs": [
        {
          "internalType": "uint256",
          "name": "gameId",
          "type": "uint256"
        },
        {
          "internalType": "address",
          "name": "player1",
          "type": "address"
        },
        {
          "internalType": "address",
          "name": "player2",
          "type": "address"
        },
        {
          "internalType": "uint256",
          "name": "grandPrize",
          "type": "uint256"
        },
        {
          "internalType": "uint256",
          "name": "boardSize",
          "type": "uint256"
        },
        {
          "internalType": "uint256",
          "name": "remainShipsP1",
          "type": "uint256"
        },
        {
          "internalType": "uint256",
          "name": "remainShipsP2",
          "type": "uint256"
        },
        {
          "internalType": "bytes32",
          "name": "p1MerkleRoot",
          "type": "bytes32"
        },
        {
          "internalType": "bytes32",
          "name": "p2MerkleRoot",
          "type": "bytes32"
        },
        {
          "internalType": "uint256",
          "name": "penaltyTimeout",
          "type": "uint256"
        },
        {
          "internalType": "address",
          "name": "accusedPlayer",
          "type": "address"
        },
        {
          "internalType": "bool",
          "name": "ended",
          "type": "bool"
        }
      ],
      "stateMutability": "view",
      "type": "function",
      "constant": true
    },
    {
      "inputs": [
        {
          "internalType": "uint256",
          "name": "_boardSize",
          "type": "uint256"
        }
      ],
      "name": "createGame",
      "outputs": [],
      "stateMutability": "payable",
      "type": "function",
      "payable": true
    },
    {
      "inputs": [
        {
          "internalType": "uint256",
          "name": "_gameId",
          "type": "uint256"
        }
      ],
      "name": "joinGameByGameId",
      "outputs": [],
      "stateMutability": "nonpayable",
      "type": "function"
    },
    {
      "inputs": [],
      "name": "joinRandomGame",
      "outputs": [],
      "stateMutability": "nonpayable",
      "type": "function"
    },
    {
      "inputs": [
        {
          "internalType": "uint256",
          "name": "_gameId",
          "type": "uint256"
        }
      ],
      "name": "setOpponent",
      "outputs": [],
      "stateMutability": "payable",
      "type": "function",
      "payable": true
    },
    {
      "inputs": [
        {
          "internalType": "uint256",
          "name": "_gameId",
          "type": "uint256"
        },
        {
          "internalType": "bytes32",
          "name": "_merkleRoot",
          "type": "bytes32"
        }
      ],
      "name": "setMerkleRoot",
      "outputs": [],
      "stateMutability": "nonpayable",
      "type": "function"
    },
    {
      "inputs": [
        {
          "internalType": "uint256",
          "name": "_gameId",
          "type": "uint256"
        },
        {
          "internalType": "uint256",
          "name": "_shotSquareId",
          "type": "uint256"
        }
      ],
      "name": "shot",
      "outputs": [],
      "stateMutability": "nonpayable",
      "type": "function"
    },
    {
      "inputs": [
        {
          "internalType": "uint256",
          "name": "_gameId",
          "type": "uint256"
        },
        {
          "internalType": "uint256",
          "name": "_shotResult",
          "type": "uint256"
        },
        {
          "internalType": "string",
          "name": "_sunk",
          "type": "string"
        },
        {
          "internalType": "uint256",
          "name": "_shotSquareId",
          "type": "uint256"
        },
        {
          "internalType": "bytes32",
          "name": "_hashedLeaf",
          "type": "bytes32"
        },
        {
          "internalType": "bytes32[]",
          "name": "_merkleProof",
          "type": "bytes32[]"
        }
      ],
      "name": "shotResult",
      "outputs": [],
      "stateMutability": "nonpayable",
      "type": "function"
    },
    {
      "inputs": [
        {
          "internalType": "uint256",
          "name": "_gameId",
          "type": "uint256"
        }
      ],
      "name": "quitGame",
      "outputs": [],
      "stateMutability": "nonpayable",
      "type": "function"
    },
    {
      "inputs": [
        {
          "internalType": "string",
          "name": "str1",
          "type": "string"
        },
        {
          "internalType": "string",
          "name": "str2",
          "type": "string"
        }
      ],
      "name": "areStringsEqual",
      "outputs": [
        {
          "internalType": "bool",
          "name": "",
          "type": "bool"
        }
      ],
      "stateMutability": "pure",
      "type": "function",
      "constant": true
    }
  ],
  "bytecode": "0x60806040526001805534801561001457600080fd5b50612b3d806100246000396000f3fe6080604052600436106100a75760003560e01c80639decd17c116100645780639decd17c146101b6578063b1496cd4146101df578063b4075f161461021c578063b4b93d8f14610245578063d7c81b5514610261578063ebd530051461028c576100a7565b8063117a5b90146100ac57806316f99211146100f457806318712c211461011d578063342ca1841461014657806348e837b91461015d5780639966cc8314610179575b600080fd5b3480156100b857600080fd5b506100d360048036038101906100ce9190611cf2565b6102b5565b6040516100eb9c9b9a99989796959493929190611da3565b60405180910390f35b34801561010057600080fd5b5061011b60048036038101906101169190611cf2565b610382565b005b34801561012957600080fd5b50610144600480360381019061013f9190611e89565b610761565b005b34801561015257600080fd5b5061015b61094e565b005b61017760048036038101906101729190611cf2565b610c13565b005b34801561018557600080fd5b506101a0600480360381019061019b9190611cf2565b610ea6565b6040516101ad9190611ec9565b60405180910390f35b3480156101c257600080fd5b506101dd60048036038101906101d89190611cf2565b610eca565b005b3480156101eb57600080fd5b506102066004803603810190610201919061202a565b6110f8565b60405161021391906120a2565b60405180910390f35b34801561022857600080fd5b50610243600480360381019061023e919061211d565b611151565b005b61025f600480360381019061025a9190611cf2565b611803565b005b34801561026d57600080fd5b5061027661190c565b6040516102839190611ec9565b60405180910390f35b34801561029857600080fd5b506102b360048036038101906102ae91906121e8565b611912565b005b60006020528060005260406000206000915090508060000154908060010160009054906101000a900473ffffffffffffffffffffffffffffffffffffffff16908060020160009054906101000a900473ffffffffffffffffffffffffffffffffffffffff169080600301549080600401549080600501549080600601549080600701549080600801549080600901549080600a0160009054906101000a900473ffffffffffffffffffffffffffffffffffffffff169080600a0160149054906101000a900460ff1690508c565b600081116103c5576040517f08c379a00000000000000000000000000000000000000000000000000000000081526004016103bc90612285565b60405180910390fd5b600080600083815260200190815260200160002060405180610180016040529081600082015481526020016001820160009054906101000a900473ffffffffffffffffffffffffffffffffffffffff1673ffffffffffffffffffffffffffffffffffffffff1673ffffffffffffffffffffffffffffffffffffffff1681526020016002820160009054906101000a900473ffffffffffffffffffffffffffffffffffffffff1673ffffffffffffffffffffffffffffffffffffffff1673ffffffffffffffffffffffffffffffffffffffff16815260200160038201548152602001600482015481526020016005820154815260200160068201548152602001600782015481526020016008820154815260200160098201548152602001600a820160009054906101000a900473ffffffffffffffffffffffffffffffffffffffff1673ffffffffffffffffffffffffffffffffffffffff1673ffffffffffffffffffffffffffffffffffffffff168152602001600a820160149054906101000a900460ff1615151515815250509050806020015173ffffffffffffffffffffffffffffffffffffffff163373ffffffffffffffffffffffffffffffffffffffff160361065a57806020015173ffffffffffffffffffffffffffffffffffffffff16816040015173ffffffffffffffffffffffffffffffffffffffff167f1d31ec22b8ac7294b2ee0af4019accbf52e1550cc6a64f6a8b0d6509630505748460006040516105f39291906122ea565b60405180910390a3806040015173ffffffffffffffffffffffffffffffffffffffff166108fc82606001519081150290604051600060405180830381858888f19350505050158015610649573d6000803e3d6000fd5b50600081606001818152505061075d565b806040015173ffffffffffffffffffffffffffffffffffffffff163373ffffffffffffffffffffffffffffffffffffffff160361075c57806040015173ffffffffffffffffffffffffffffffffffffffff16816020015173ffffffffffffffffffffffffffffffffffffffff167f1d31ec22b8ac7294b2ee0af4019accbf52e1550cc6a64f6a8b0d6509630505748460006040516106f99291906122ea565b60405180910390a3806020015173ffffffffffffffffffffffffffffffffffffffff166108fc82606001519081150290604051600060405180830381858888f1935050505015801561074f573d6000803e3d6000fd5b5060008160600181815250505b5b5050565b600082116107a4576040517f08c379a000000000000000000000000000000000000000000000000000000000815260040161079b9061235f565b60405180910390fd5b600080600084815260200190815260200160002090508060010160009054906101000a900473ffffffffffffffffffffffffffffffffffffffff1673ffffffffffffffffffffffffffffffffffffffff163373ffffffffffffffffffffffffffffffffffffffff160361081f578181600701819055506108c0565b8060020160009054906101000a900473ffffffffffffffffffffffffffffffffffffffff1673ffffffffffffffffffffffffffffffffffffffff163373ffffffffffffffffffffffffffffffffffffffff1603610884578181600801819055506108bf565b6040517f08c379a00000000000000000000000000000000000000000000000000000000081526004016108b6906123cb565b60405180910390fd5b5b3373ffffffffffffffffffffffffffffffffffffffff168160010160009054906101000a900473ffffffffffffffffffffffffffffffffffffffff1673ffffffffffffffffffffffffffffffffffffffff167f579d51a8a09cc46d5b01f59d7cc8a51837a1cf32ed27209e7e6fe22fde35d417856040516109419190611ec9565b60405180910390a3505050565b600060028054905011610996576040517f08c379a000000000000000000000000000000000000000000000000000000000815260040161098d90612437565b60405180910390fd5b60006109a0611bce565b905060005b6000600283815481106109bb576109ba612457565b5b90600052602060002001541480156109d35750600a81105b156109f5576109e0611bce565b915080806109ed906124b5565b9150506109a5565b600a8110610a38576040517f08c379a0000000000000000000000000000000000000000000000000000000008152600401610a2f90612549565b60405180910390fd5b600080600084815260200190815260200160002060405180610180016040529081600082015481526020016001820160009054906101000a900473ffffffffffffffffffffffffffffffffffffffff1673ffffffffffffffffffffffffffffffffffffffff1673ffffffffffffffffffffffffffffffffffffffff1681526020016002820160009054906101000a900473ffffffffffffffffffffffffffffffffffffffff1673ffffffffffffffffffffffffffffffffffffffff1673ffffffffffffffffffffffffffffffffffffffff16815260200160038201548152602001600482015481526020016005820154815260200160068201548152602001600782015481526020016008820154815260200160098201548152602001600a820160009054906101000a900473ffffffffffffffffffffffffffffffffffffffff1673ffffffffffffffffffffffffffffffffffffffff1673ffffffffffffffffffffffffffffffffffffffff168152602001600a820160149054906101000a900460ff16151515158152505090507f2e228c4005eb8318a1e40880fd973e87e2c0346ce6d45fe3ecbde9297b8328aa816000015182608001518360600151604051610c0693929190612569565b60405180910390a1505050565b6000604051806101800160405280610c29611c13565b81526020013373ffffffffffffffffffffffffffffffffffffffff168152602001600073ffffffffffffffffffffffffffffffffffffffff16815260200134815260200183815260200160058152602001600581526020016000801b81526020016000801b815260200160008152602001600073ffffffffffffffffffffffffffffffffffffffff16815260200160011515815250905080600080836000015181526020019081526020016000206000820151816000015560208201518160010160006101000a81548173ffffffffffffffffffffffffffffffffffffffff021916908373ffffffffffffffffffffffffffffffffffffffff16021790555060408201518160020160006101000a81548173ffffffffffffffffffffffffffffffffffffffff021916908373ffffffffffffffffffffffffffffffffffffffff160217905550606082015181600301556080820151816004015560a0820151816005015560c0820151816006015560e082015181600701556101008201518160080155610120820151816009015561014082015181600a0160006101000a81548173ffffffffffffffffffffffffffffffffffffffff021916908373ffffffffffffffffffffffffffffffffffffffff16021790555061016082015181600a0160146101000a81548160ff0219169083151502179055509050506002816000015190806001815401808255809150506001900390600052602060002001600090919091909150553373ffffffffffffffffffffffffffffffffffffffff167f6819b4a537631fd79a9d2b0f56db1ff2742f0304520484d23f6f356aaebe31f68260000151604051610e9a9190611ec9565b60405180910390a25050565b60028181548110610eb657600080fd5b906000526020600020016000915090505481565b60008060008381526020019081526020016000206000015403610f22576040517f08c379a0000000000000000000000000000000000000000000000000000000008152600401610f19906125ec565b60405180910390fd5b600080600083815260200190815260200160002060405180610180016040529081600082015481526020016001820160009054906101000a900473ffffffffffffffffffffffffffffffffffffffff1673ffffffffffffffffffffffffffffffffffffffff1673ffffffffffffffffffffffffffffffffffffffff1681526020016002820160009054906101000a900473ffffffffffffffffffffffffffffffffffffffff1673ffffffffffffffffffffffffffffffffffffffff1673ffffffffffffffffffffffffffffffffffffffff16815260200160038201548152602001600482015481526020016005820154815260200160068201548152602001600782015481526020016008820154815260200160098201548152602001600a820160009054906101000a900473ffffffffffffffffffffffffffffffffffffffff1673ffffffffffffffffffffffffffffffffffffffff1673ffffffffffffffffffffffffffffffffffffffff168152602001600a820160149054906101000a900460ff16151515158152505090507f2e228c4005eb8318a1e40880fd973e87e2c0346ce6d45fe3ecbde9297b8328aa82826080015183606001516040516110ec93929190612569565b60405180910390a15050565b60008160405160200161110b919061267d565b6040516020818303038152906040528051906020012083604051602001611132919061267d565b6040516020818303038152906040528051906020012014905092915050565b60008711611194576040517f08c379a000000000000000000000000000000000000000000000000000000000815260040161118b9061235f565b60405180910390fd5b60008614806111a35750600186145b6111e2576040517f08c379a00000000000000000000000000000000000000000000000000000000081526004016111d9906126e0565b60405180910390fd5b6000841015611226576040517f08c379a000000000000000000000000000000000000000000000000000000000815260040161121d9061274c565b60405180910390fd5b6000801b830361126b576040517f08c379a0000000000000000000000000000000000000000000000000000000008152600401611262906127b8565b60405180910390fd5b60018282905010156112b2576040517f08c379a00000000000000000000000000000000000000000000000000000000081526004016112a990612824565b60405180910390fd5b600080600089815260200190815260200160002060405180610180016040529081600082015481526020016001820160009054906101000a900473ffffffffffffffffffffffffffffffffffffffff1673ffffffffffffffffffffffffffffffffffffffff1673ffffffffffffffffffffffffffffffffffffffff1681526020016002820160009054906101000a900473ffffffffffffffffffffffffffffffffffffffff1673ffffffffffffffffffffffffffffffffffffffff1673ffffffffffffffffffffffffffffffffffffffff16815260200160038201548152602001600482015481526020016005820154815260200160068201548152602001600782015481526020016008820154815260200160098201548152602001600a820160009054906101000a900473ffffffffffffffffffffffffffffffffffffffff1673ffffffffffffffffffffffffffffffffffffffff1673ffffffffffffffffffffffffffffffffffffffff168152602001600a820160149054906101000a900460ff1615151515815250509050600080826020015173ffffffffffffffffffffffffffffffffffffffff163373ffffffffffffffffffffffffffffffffffffffff16036114c357826040015191508260e0015190506114a288604051806020016040528060008152506110f8565b156114be578260a00180518091906114b990612844565b815250505b611508565b8260200151915082610100015190506114eb88604051806020016040528060008152506110f8565b15611507578260c001805180919061150290612844565b815250505b5b6000611515878787611c31565b9050808203611725578273ffffffffffffffffffffffffffffffffffffffff167fa62cac5a9b38077605d3b086d05f6d1ae79e95e44358d2e755b7047c97e0c5668c8c8b8d60405161156a94939291906128a6565b60405180910390a260008460c001510361164957836040015173ffffffffffffffffffffffffffffffffffffffff16846020015173ffffffffffffffffffffffffffffffffffffffff167f1d31ec22b8ac7294b2ee0af4019accbf52e1550cc6a64f6a8b0d6509630505748d60006040516115e69291906122ea565b60405180910390a3836020015173ffffffffffffffffffffffffffffffffffffffff166108fc85606001519081150290604051600060405180830381858888f1935050505015801561163c573d6000803e3d6000fd5b5060008460600181815250505b60008460a001510361172057836020015173ffffffffffffffffffffffffffffffffffffffff16846040015173ffffffffffffffffffffffffffffffffffffffff167f1d31ec22b8ac7294b2ee0af4019accbf52e1550cc6a64f6a8b0d6509630505748d60006040516116bd9291906122ea565b60405180910390a3836040015173ffffffffffffffffffffffffffffffffffffffff166108fc85606001519081150290604051600060405180830381858888f19350505050158015611713573d6000803e3d6000fd5b5060008460600181815250505b6117f6565b3373ffffffffffffffffffffffffffffffffffffffff168373ffffffffffffffffffffffffffffffffffffffff167f1d31ec22b8ac7294b2ee0af4019accbf52e1550cc6a64f6a8b0d6509630505748d600160405161178592919061292d565b60405180910390a38273ffffffffffffffffffffffffffffffffffffffff166108fc85606001519081150290604051600060405180830381858888f193505050501580156117d7573d6000803e3d6000fd5b5060008460600181815250506001846101600190151590811515815250505b5050505050505050505050565b60008111611846576040517f08c379a000000000000000000000000000000000000000000000000000000000815260040161183d9061235f565b60405180910390fd5b60008060008381526020019081526020016000209050338160020160006101000a81548173ffffffffffffffffffffffffffffffffffffffff021916908373ffffffffffffffffffffffffffffffffffffffff160217905550348160030160008282546118b39190612956565b925050819055503373ffffffffffffffffffffffffffffffffffffffff167f082f67f820bd19b8afdb7a254074ae7c54044d730095a591e66f385f31dc242b836040516119009190611ec9565b60405180910390a25050565b60015481565b60008211611955576040517f08c379a000000000000000000000000000000000000000000000000000000000815260040161194c9061235f565b60405180910390fd5b600080600084815260200190815260200160002060405180610180016040529081600082015481526020016001820160009054906101000a900473ffffffffffffffffffffffffffffffffffffffff1673ffffffffffffffffffffffffffffffffffffffff1673ffffffffffffffffffffffffffffffffffffffff1681526020016002820160009054906101000a900473ffffffffffffffffffffffffffffffffffffffff1673ffffffffffffffffffffffffffffffffffffffff1673ffffffffffffffffffffffffffffffffffffffff16815260200160038201548152602001600482015481526020016005820154815260200160068201548152602001600782015481526020016008820154815260200160098201548152602001600a820160009054906101000a900473ffffffffffffffffffffffffffffffffffffffff1673ffffffffffffffffffffffffffffffffffffffff1673ffffffffffffffffffffffffffffffffffffffff168152602001600a820160149054906101000a900460ff1615151515815250509050806020015173ffffffffffffffffffffffffffffffffffffffff163373ffffffffffffffffffffffffffffffffffffffff1603611b7457806040015173ffffffffffffffffffffffffffffffffffffffff167f5a714ed4c14d94c7c78bb2d603a46d32343bdd52ae763cf1ec34ca2f64d4c46a8484604051611b6792919061298a565b60405180910390a2611bc9565b806020015173ffffffffffffffffffffffffffffffffffffffff167f5a714ed4c14d94c7c78bb2d603a46d32343bdd52ae763cf1ec34ca2f64d4c46a8484604051611bc092919061298a565b60405180910390a25b505050565b6000600280549050424441604051602001611beb93929190612a2e565b6040516020818303038152906040528051906020012060001c611c0e9190612a9a565b905090565b600060016000815480929190611c28906124b5565b91905055905090565b60008084905060005b84849050811015611c9c57848482818110611c5857611c57612457565b5b905060200201358218604051602001611c719190612aec565b6040516020818303038152906040528051906020012091508080611c94906124b5565b915050611c3a565b50809150509392505050565b6000604051905090565b600080fd5b600080fd5b6000819050919050565b611ccf81611cbc565b8114611cda57600080fd5b50565b600081359050611cec81611cc6565b92915050565b600060208284031215611d0857611d07611cb2565b5b6000611d1684828501611cdd565b91505092915050565b611d2881611cbc565b82525050565b600073ffffffffffffffffffffffffffffffffffffffff82169050919050565b6000611d5982611d2e565b9050919050565b611d6981611d4e565b82525050565b6000819050919050565b611d8281611d6f565b82525050565b60008115159050919050565b611d9d81611d88565b82525050565b600061018082019050611db9600083018f611d1f565b611dc6602083018e611d60565b611dd3604083018d611d60565b611de0606083018c611d1f565b611ded608083018b611d1f565b611dfa60a083018a611d1f565b611e0760c0830189611d1f565b611e1460e0830188611d79565b611e22610100830187611d79565b611e30610120830186611d1f565b611e3e610140830185611d60565b611e4c610160830184611d94565b9d9c50505050505050505050505050565b611e6681611d6f565b8114611e7157600080fd5b50565b600081359050611e8381611e5d565b92915050565b60008060408385031215611ea057611e9f611cb2565b5b6000611eae85828601611cdd565b9250506020611ebf85828601611e74565b9150509250929050565b6000602082019050611ede6000830184611d1f565b92915050565b600080fd5b600080fd5b6000601f19601f8301169050919050565b7f4e487b7100000000000000000000000000000000000000000000000000000000600052604160045260246000fd5b611f3782611eee565b810181811067ffffffffffffffff82111715611f5657611f55611eff565b5b80604052505050565b6000611f69611ca8565b9050611f758282611f2e565b919050565b600067ffffffffffffffff821115611f9557611f94611eff565b5b611f9e82611eee565b9050602081019050919050565b82818337600083830152505050565b6000611fcd611fc884611f7a565b611f5f565b905082815260208101848484011115611fe957611fe8611ee9565b5b611ff4848285611fab565b509392505050565b600082601f83011261201157612010611ee4565b5b8135612021848260208601611fba565b91505092915050565b6000806040838503121561204157612040611cb2565b5b600083013567ffffffffffffffff81111561205f5761205e611cb7565b5b61206b85828601611ffc565b925050602083013567ffffffffffffffff81111561208c5761208b611cb7565b5b61209885828601611ffc565b9150509250929050565b60006020820190506120b76000830184611d94565b92915050565b600080fd5b600080fd5b60008083601f8401126120dd576120dc611ee4565b5b8235905067ffffffffffffffff8111156120fa576120f96120bd565b5b602083019150836020820283011115612116576121156120c2565b5b9250929050565b600080600080600080600060c0888a03121561213c5761213b611cb2565b5b600061214a8a828b01611cdd565b975050602061215b8a828b01611cdd565b965050604088013567ffffffffffffffff81111561217c5761217b611cb7565b5b6121888a828b01611ffc565b95505060606121998a828b01611cdd565b94505060806121aa8a828b01611e74565b93505060a088013567ffffffffffffffff8111156121cb576121ca611cb7565b5b6121d78a828b016120c7565b925092505092959891949750929550565b600080604083850312156121ff576121fe611cb2565b5b600061220d85828601611cdd565b925050602061221e85828601611cdd565b9150509250929050565b600082825260208201905092915050565b7f47616d65204944206973206e6567617469766521000000000000000000000000600082015250565b600061226f601483612228565b915061227a82612239565b602082019050919050565b6000602082019050818103600083015261229e81612262565b9050919050565b6000819050919050565b6000819050919050565b60006122d46122cf6122ca846122a5565b6122af565b611cbc565b9050919050565b6122e4816122b9565b82525050565b60006040820190506122ff6000830185611d1f565b61230c60208301846122db565b9392505050565b7f47616d65206964206973206e6567617469766521000000000000000000000000600082015250565b6000612349601483612228565b915061235482612313565b602082019050919050565b600060208201905081810360008301526123788161233c565b9050919050565b7f506c617965722061646472657373206973206e6f742076616c69640000000000600082015250565b60006123b5601b83612228565b91506123c08261237f565b602082019050919050565b600060208201905081810360008301526123e4816123a8565b9050919050565b7f4e6f20617661696c61626c652067616d65730000000000000000000000000000600082015250565b6000612421601283612228565b915061242c826123eb565b602082019050919050565b6000602082019050818103600083015261245081612414565b9050919050565b7f4e487b7100000000000000000000000000000000000000000000000000000000600052603260045260246000fd5b7f4e487b7100000000000000000000000000000000000000000000000000000000600052601160045260246000fd5b60006124c082611cbc565b91507fffffffffffffffffffffffffffffffffffffffffffffffffffffffffffffffff82036124f2576124f1612486565b5b600182019050919050565b7f536f6d657468696e6720676f65732077726f6e672c2074727920616761696e21600082015250565b6000612533602083612228565b915061253e826124fd565b602082019050919050565b6000602082019050818103600083015261256281612526565b9050919050565b600060608201905061257e6000830186611d1f565b61258b6020830185611d1f565b6125986040830184611d1f565b949350505050565b7f4e6f206578697374696e672067616d6520776974682074686973204944000000600082015250565b60006125d6601d83612228565b91506125e1826125a0565b602082019050919050565b60006020820190508181036000830152612605816125c9565b9050919050565b600081519050919050565b600081905092915050565b60005b83811015612640578082015181840152602081019050612625565b60008484015250505050565b60006126578261260c565b6126618185612617565b9350612671818560208601612622565b80840191505092915050565b6000612689828461264c565b915081905092915050565b7f47616d6520726573756c74206e6f742076616c69640000000000000000000000600082015250565b60006126ca601583612228565b91506126d582612694565b602082019050919050565b600060208201905081810360008301526126f9816126bd565b9050919050565b7f53686f7420737175617265204944206e6f742076616c69640000000000000000600082015250565b6000612736601883612228565b915061274182612700565b602082019050919050565b6000602082019050818103600083015261276581612729565b9050919050565b7f486173686564204c656166206d757374206265206e6f7420656d707479000000600082015250565b60006127a2601d83612228565b91506127ad8261276c565b602082019050919050565b600060208201905081810360008301526127d181612795565b9050919050565b7f4d65726b6c652070726f6f66206d757374206e6f7420626520656d7074790000600082015250565b600061280e601e83612228565b9150612819826127d8565b602082019050919050565b6000602082019050818103600083015261283d81612801565b9050919050565b600061284f82611cbc565b91506000820361286257612861612486565b5b600182039050919050565b60006128788261260c565b6128828185612228565b9350612892818560208601612622565b61289b81611eee565b840191505092915050565b60006080820190506128bb6000830187611d1f565b6128c86020830186611d1f565b6128d56040830185611d1f565b81810360608301526128e7818461286d565b905095945050505050565b6000819050919050565b600061291761291261290d846128f2565b6122af565b611cbc565b9050919050565b612927816128fc565b82525050565b60006040820190506129426000830185611d1f565b61294f602083018461291e565b9392505050565b600061296182611cbc565b915061296c83611cbc565b925082820190508082111561298457612983612486565b5b92915050565b600060408201905061299f6000830185611d1f565b6129ac6020830184611d1f565b9392505050565b6000819050919050565b6129ce6129c982611cbc565b6129b3565b82525050565b60006129df82611d2e565b9050919050565b60008160601b9050919050565b60006129fe826129e6565b9050919050565b6000612a10826129f3565b9050919050565b612a28612a23826129d4565b612a05565b82525050565b6000612a3a82866129bd565b602082019150612a4a82856129bd565b602082019150612a5a8284612a17565b601482019150819050949350505050565b7f4e487b7100000000000000000000000000000000000000000000000000000000600052601260045260246000fd5b6000612aa582611cbc565b9150612ab083611cbc565b925082612ac057612abf612a6b565b5b828206905092915050565b6000819050919050565b612ae6612ae182611d6f565b612acb565b82525050565b6000612af88284612ad5565b6020820191508190509291505056fea2646970667358221220f2e1233d68ab945a5d7f95694d937cb08ccc6993d3f0f53b963a271e2959ed7c64736f6c63430008130033",
  "immutableReferences": {},
  "source": "// SPDX-License-Identifier: MIT\npragma solidity >=0.8.19 <0.9.0;\n// import \"@openzeppelin/contracts-ethereum-package/contracts/math/SafeMath.sol\";\n\ncontract Battleship {\n  //structure that represent a single game\n  struct Game{\n    uint256 gameId;\n    address player1;\n    address player2;\n    uint256 grandPrize;\n    uint256 boardSize;\n    uint256 remainShipsP1;\n    uint256 remainShipsP2;\n    bytes32 p1MerkleRoot;\n    bytes32 p2MerkleRoot;\n    uint256 penaltyTimeout;\n    address accusedPlayer;\n    bool ended;\n  }\n\n  event gameCreated(uint256 _gameId, address indexed _from);\n  event gameJoined(uint256 _gameId, address indexed _from);\n  event gameReady(uint256 _gameId, address indexed _playerTurn, address indexed _player);\n  event gameInfo(uint256 _gameId, uint256 _boardSize, uint256 _grandPrize);\n  event gameEnded(uint256 _gameId, address indexed _winner, address indexed _looser, uint256 _cheat);\n  event shotEvent(uint256 _gameId, address indexed _player, uint256 _shotSquareId);\n  event shotResultEvent(uint256 _gameId, address indexed _player, uint256 _shotResult, uint256 _shotSquareId, string _sunk);\n  event accusationTrial(uint256 _gameId, address indexed _accuser, address indexed _accused);\n\n  //Array of all games present in the blockchain\n  mapping(uint256 => Game) public games;\n  //Game ID generator counter\n  uint256 public gameId=1;\n  //Available games array\n  uint256[] public availableGames;\n\n  constructor() {}\n\n  function getGameId() internal returns (uint256) {\n    return gameId++;\n  }\n\n  function createGame(uint256 _boardSize) public payable {\n    Game memory game=Game(getGameId(), \n              msg.sender, \n              address(0),\n              msg.value,\n              _boardSize,\n              5,\n              5,\n              0,\n              0,\n              0,\n              address(0),\n              true);\n    games[game.gameId]=game;\n    availableGames.push(game.gameId);\n\n    emit gameCreated(game.gameId, msg.sender);\n  }\n\n  function joinGameByGameId(uint256 _gameId) public {\n    require(games[_gameId].gameId != 0, \"No existing game with this ID\");\n      \n    Game memory game=games[_gameId];\n    emit gameInfo(_gameId, game.boardSize, game.grandPrize);\n  }\n\n  function joinRandomGame() public {\n    require(availableGames.length > 0, \"No available games\");\n\n    uint256 index=random();\n    uint256 i=0;\n    while(availableGames[index]==0 && i<10){\n      index=random();\n      i++;\n    }\n\n    require(i < 10, \"Something goes wrong, try again!\");\n\n    Game memory game=games[index];\n    emit gameInfo(game.gameId, game.boardSize, game.grandPrize);\n  }\n\n  function setOpponent(uint256 _gameId) public payable{\n    require(_gameId > 0, \"Game id is negative!\");\n    Game storage game=games[_gameId];\n\n    game.player2=msg.sender;\n    game.grandPrize+=msg.value;\n    emit gameJoined(_gameId, msg.sender);\n  }\n\n  function setMerkleRoot(uint256 _gameId, bytes32 _merkleRoot) public{\n    require(_gameId > 0, \"Game id is negative!\");\n    Game storage game=games[_gameId];\n\n    if(msg.sender==game.player1){\n      game.p1MerkleRoot=_merkleRoot;\n    } else if(msg.sender==game.player2) {\n      game.p2MerkleRoot=_merkleRoot;\n    } else {\n      revert(\"Player address is not valid\");\n    }\n\n    emit gameReady(_gameId, game.player1, msg.sender);\n  }\n\n  function shot(uint256 _gameId, uint256 _shotSquareId) public{\n    require(_gameId > 0, \"Game id is negative!\");\n\n    Game memory game=games[_gameId];\n    if(msg.sender==game.player1)\n      emit shotEvent(_gameId, game.player2, _shotSquareId);\n    else\n      emit shotEvent(_gameId, game.player1, _shotSquareId);\n  }\n\n  function shotResult(uint256 _gameId, uint256 _shotResult, string memory _sunk, uint256 _shotSquareId, bytes32 _hashedLeaf, bytes32[] calldata _merkleProof) public {\n    require(_gameId > 0, \"Game id is negative!\");\n    require(_shotResult==0 || _shotResult ==1, \"Game result not valid\");\n    require(_shotSquareId >= 0, \"Shot square ID not valid\");\n    require(_hashedLeaf!=0, \"Hashed Leaf must be not empty\");\n    require(_merkleProof.length >= 1, \"Merkle proof must not be empty\");\n\n    Game memory game=games[_gameId];\n    address shoter;\n    bytes32 merkleRoot;\n    if(msg.sender==game.player1){\n      shoter=game.player2;\n      merkleRoot=game.p1MerkleRoot;\n      if(areStringsEqual(_sunk,\"\")){\n        game.remainShipsP1--;\n      }\n    } else {\n      shoter=game.player1;\n      merkleRoot=game.p2MerkleRoot;\n      if(areStringsEqual(_sunk,\"\")){\n        game.remainShipsP2--;\n      }    \n    }\n\n    bytes32 calculatedMerkleRoot=getMerkleRoot(_hashedLeaf, _merkleProof);\n\n    if(merkleRoot==calculatedMerkleRoot){\n      emit shotResultEvent(_gameId, shoter, _shotResult, _shotSquareId, _sunk);\n\n      if(game.remainShipsP2==0){\n        emit gameEnded(_gameId, game.player1, game.player2, 0);\n\n        payable(game.player1).transfer(game.grandPrize);\n        game.grandPrize = 0;\n      }\n      \n      if(game.remainShipsP1==0){\n        emit gameEnded(_gameId, game.player2, game.player1, 0);\n\n        payable(game.player2).transfer(game.grandPrize);\n        game.grandPrize = 0;\n      }\n    } else {\n      emit gameEnded(_gameId, shoter, msg.sender, 1);\n      payable(shoter).transfer(game.grandPrize);\n      game.grandPrize = 0;\n      game.ended = true;\n    }\n    \n  }\n\n  function getMerkleRoot(bytes32 _hashedLeaf, bytes32[] calldata _merkleProof) internal pure returns (bytes32) {\n    bytes32 computedHash = _hashedLeaf;\n\n    for (uint256 i = 0; i < _merkleProof.length; i++) {\n        computedHash = keccak256(abi.encodePacked(computedHash^_merkleProof[i]));\n    }\n\n    return computedHash;\n  }\n\n  function quitGame(uint256 _gameId) public {\n    require(_gameId > 0, \"Game ID is negative!\");\n\n    Game memory game=games[_gameId];\n\n    if(msg.sender==game.player1){\n      emit gameEnded(_gameId, game.player2, game.player1, 0);\n\n      payable(game.player2).transfer(game.grandPrize);\n      game.grandPrize = 0;\n    }else if(msg.sender==game.player2){\n      emit gameEnded(_gameId, game.player1, game.player2, 0);\n      \n      payable(game.player1).transfer(game.grandPrize);\n      game.grandPrize = 0;\n    }\n  }\n\n  function deleteElementFromArray(uint256 _element) internal {\n    for (uint256 i = 0; i < availableGames.length; i++) {\n        if (availableGames[i] == _element) {\n            if (i != availableGames.length - 1) {\n                availableGames[i] = availableGames[availableGames.length - 1];\n            }\n            availableGames.pop();\n            break;\n        }\n    }\n  }\n\n  function random() internal view returns (uint256) {\n    return uint256(keccak256(abi.encodePacked(block.timestamp, block.prevrandao, block.coinbase))) % availableGames.length;\n  }\n\n  function areStringsEqual(string memory str1, string memory str2) public pure returns (bool) {\n    return (keccak256(abi.encodePacked(str1)) == keccak256(abi.encodePacked(str2)));\n  }\n}\n",
  "sourcePath": "/home/nicola/Scrivania/Magistrale/P2P and Blockchains/Battleship-ETH/battleship/contracts/Battleship.sol",
  "compiler": {
    "name": "solc",
    "version": "0.8.19+commit.7dd6d404.Emscripten.clang"
  },
  "schemaVersion": "3.4.13",
  "updatedAt": "2023-07-23T12:30:21.028Z",
  "networkType": "ethereum",
  "devdoc": {
    "kind": "dev",
    "methods": {},
    "version": 1
  },
  "userdoc": {
    "kind": "user",
    "methods": {},
    "version": 1
  }
}