{
  "contractName": "Battleship",
  "abi": [
    {
      "inputs": [],
      "stateMutability": "nonpayable",
      "type": "constructor"
    },
    {
      "anonymous": false,
      "inputs": [
        {
          "indexed": false,
          "internalType": "uint256",
          "name": "_gameId",
          "type": "uint256"
        },
        {
          "indexed": true,
          "internalType": "address",
          "name": "_accuser",
          "type": "address"
        },
        {
          "indexed": true,
          "internalType": "address",
          "name": "_accused",
          "type": "address"
        }
      ],
      "name": "accusationTrial",
      "type": "event"
    },
    {
      "anonymous": false,
      "inputs": [
        {
          "indexed": false,
          "internalType": "uint256",
          "name": "_gameId",
          "type": "uint256"
        },
        {
          "indexed": true,
          "internalType": "address",
          "name": "_from",
          "type": "address"
        }
      ],
      "name": "gameCreated",
      "type": "event"
    },
    {
      "anonymous": false,
      "inputs": [
        {
          "indexed": false,
          "internalType": "uint256",
          "name": "_gameId",
          "type": "uint256"
        },
        {
          "indexed": true,
          "internalType": "address",
          "name": "_winner",
          "type": "address"
        },
        {
          "indexed": true,
          "internalType": "address",
          "name": "_looser",
          "type": "address"
        }
      ],
      "name": "gameEnded",
      "type": "event"
    },
    {
      "anonymous": false,
      "inputs": [
        {
          "indexed": false,
          "internalType": "uint256",
          "name": "_gameId",
          "type": "uint256"
        },
        {
          "indexed": false,
          "internalType": "uint256",
          "name": "_boardSize",
          "type": "uint256"
        },
        {
          "indexed": false,
          "internalType": "uint256",
          "name": "_grandPrize",
          "type": "uint256"
        }
      ],
      "name": "gameInfo",
      "type": "event"
    },
    {
      "anonymous": false,
      "inputs": [
        {
          "indexed": false,
          "internalType": "uint256",
          "name": "_gameId",
          "type": "uint256"
        },
        {
          "indexed": true,
          "internalType": "address",
          "name": "_from",
          "type": "address"
        }
      ],
      "name": "gameJoined",
      "type": "event"
    },
    {
      "anonymous": false,
      "inputs": [
        {
          "indexed": false,
          "internalType": "uint256",
          "name": "_gameId",
          "type": "uint256"
        },
        {
          "indexed": true,
          "internalType": "address",
          "name": "_playerTurn",
          "type": "address"
        },
        {
          "indexed": true,
          "internalType": "address",
          "name": "_player",
          "type": "address"
        }
      ],
      "name": "gameReady",
      "type": "event"
    },
    {
      "anonymous": false,
      "inputs": [
        {
          "indexed": false,
          "internalType": "uint256",
          "name": "_gameId",
          "type": "uint256"
        },
        {
          "indexed": true,
          "internalType": "address",
          "name": "_player",
          "type": "address"
        },
        {
          "indexed": false,
          "internalType": "uint256",
          "name": "_shotSquareId",
          "type": "uint256"
        }
      ],
      "name": "shotEvent",
      "type": "event"
    },
    {
      "anonymous": false,
      "inputs": [
        {
          "indexed": false,
          "internalType": "uint256",
          "name": "_gameId",
          "type": "uint256"
        },
        {
          "indexed": true,
          "internalType": "address",
          "name": "_player",
          "type": "address"
        },
        {
          "indexed": false,
          "internalType": "uint256",
          "name": "_shotResult",
          "type": "uint256"
        },
        {
          "indexed": false,
          "internalType": "uint256",
          "name": "_shotSquareId",
          "type": "uint256"
        },
        {
          "indexed": false,
          "internalType": "string",
          "name": "_sunk",
          "type": "string"
        }
      ],
      "name": "shotResultEvent",
      "type": "event"
    },
    {
      "inputs": [
        {
          "internalType": "uint256",
          "name": "",
          "type": "uint256"
        }
      ],
      "name": "availableGames",
      "outputs": [
        {
          "internalType": "uint256",
          "name": "",
          "type": "uint256"
        }
      ],
      "stateMutability": "view",
      "type": "function",
      "constant": true
    },
    {
      "inputs": [],
      "name": "gameId",
      "outputs": [
        {
          "internalType": "uint256",
          "name": "",
          "type": "uint256"
        }
      ],
      "stateMutability": "view",
      "type": "function",
      "constant": true
    },
    {
      "inputs": [
        {
          "internalType": "uint256",
          "name": "",
          "type": "uint256"
        }
      ],
      "name": "games",
      "outputs": [
        {
          "internalType": "uint256",
          "name": "gameId",
          "type": "uint256"
        },
        {
          "internalType": "address",
          "name": "player1",
          "type": "address"
        },
        {
          "internalType": "address",
          "name": "player2",
          "type": "address"
        },
        {
          "internalType": "uint256",
          "name": "grandPrize",
          "type": "uint256"
        },
        {
          "internalType": "uint256",
          "name": "boardSize",
          "type": "uint256"
        },
        {
          "internalType": "uint256",
          "name": "remainShipsP1",
          "type": "uint256"
        },
        {
          "internalType": "uint256",
          "name": "remainShipsP2",
          "type": "uint256"
        },
        {
          "internalType": "bytes32",
          "name": "p1MerkleRoot",
          "type": "bytes32"
        },
        {
          "internalType": "bytes32",
          "name": "p2MerkleRoot",
          "type": "bytes32"
        },
        {
          "internalType": "uint256",
          "name": "penaltyTimeout",
          "type": "uint256"
        },
        {
          "internalType": "address",
          "name": "accusedPlayer",
          "type": "address"
        },
        {
          "internalType": "bool",
          "name": "playable",
          "type": "bool"
        }
      ],
      "stateMutability": "view",
      "type": "function",
      "constant": true
    },
    {
      "inputs": [],
      "name": "totalGames",
      "outputs": [
        {
          "internalType": "uint256",
          "name": "",
          "type": "uint256"
        }
      ],
      "stateMutability": "view",
      "type": "function",
      "constant": true
    },
    {
      "inputs": [],
      "name": "getGameId",
      "outputs": [
        {
          "internalType": "uint256",
          "name": "",
          "type": "uint256"
        }
      ],
      "stateMutability": "nonpayable",
      "type": "function"
    },
    {
      "inputs": [
        {
          "internalType": "uint256",
          "name": "_grandPrize",
          "type": "uint256"
        },
        {
          "internalType": "uint256",
          "name": "_boardSize",
          "type": "uint256"
        }
      ],
      "name": "createGame",
      "outputs": [],
      "stateMutability": "payable",
      "type": "function",
      "payable": true
    },
    {
      "inputs": [
        {
          "internalType": "uint256",
          "name": "_gameId",
          "type": "uint256"
        }
      ],
      "name": "joinGameByGameId",
      "outputs": [],
      "stateMutability": "nonpayable",
      "type": "function"
    },
    {
      "inputs": [],
      "name": "joinRandomGame",
      "outputs": [],
      "stateMutability": "nonpayable",
      "type": "function"
    },
    {
      "inputs": [
        {
          "internalType": "uint256",
          "name": "_gameId",
          "type": "uint256"
        }
      ],
      "name": "setOpponent",
      "outputs": [],
      "stateMutability": "payable",
      "type": "function",
      "payable": true
    },
    {
      "inputs": [
        {
          "internalType": "uint256",
          "name": "_gameId",
          "type": "uint256"
        },
        {
          "internalType": "bytes32",
          "name": "_merkleRoot",
          "type": "bytes32"
        }
      ],
      "name": "setMerkleRoot",
      "outputs": [],
      "stateMutability": "nonpayable",
      "type": "function"
    },
    {
      "inputs": [
        {
          "internalType": "uint256",
          "name": "_gameId",
          "type": "uint256"
        },
        {
          "internalType": "uint256",
          "name": "_shotSquareId",
          "type": "uint256"
        }
      ],
      "name": "shot",
      "outputs": [],
      "stateMutability": "nonpayable",
      "type": "function"
    },
    {
      "inputs": [
        {
          "internalType": "uint256",
          "name": "_gameId",
          "type": "uint256"
        },
        {
          "internalType": "uint256",
          "name": "_shotResult",
          "type": "uint256"
        },
        {
          "internalType": "string",
          "name": "_sunk",
          "type": "string"
        },
        {
          "internalType": "uint256",
          "name": "_shotSquareId",
          "type": "uint256"
        },
        {
          "internalType": "bytes32[]",
          "name": "_merkleProof",
          "type": "bytes32[]"
        }
      ],
      "name": "shotResult",
      "outputs": [],
      "stateMutability": "nonpayable",
      "type": "function"
    },
    {
      "inputs": [
        {
          "internalType": "string",
          "name": "str1",
          "type": "string"
        },
        {
          "internalType": "string",
          "name": "str2",
          "type": "string"
        }
      ],
      "name": "areStringsEqual",
      "outputs": [
        {
          "internalType": "bool",
          "name": "",
          "type": "bool"
        }
      ],
      "stateMutability": "pure",
      "type": "function",
      "constant": true
    }
  ],
  "bytecode": "0x6080604052600180556000600355600060045534801561001e57600080fd5b506122ea8061002e6000396000f3fe6080604052600436106100c25760003560e01c80639966cc831161007f578063b4b93d8f11610059578063b4b93d8f14610262578063c0bd83511461027e578063d7c81b55146102a9578063ebd53005146102d4576100c2565b80639966cc83146101bf5780639decd17c146101fc578063b1496cd414610225576100c2565b8063117a5b90146100c7578063143054351461010f57806318712c21146101385780632c4e591b14610161578063342ca1841461018c57806360104cef146101a3575b600080fd5b3480156100d357600080fd5b506100ee60048036038101906100e99190611779565b6102fd565b6040516101069c9b9a9998979695949392919061182a565b60405180910390f35b34801561011b57600080fd5b5061013660048036038101906101319190611b1e565b6103ca565b005b34801561014457600080fd5b5061015f600480360381019061015a9190611bd1565b61085a565b005b34801561016d57600080fd5b50610176610a47565b6040516101839190611c11565b60405180910390f35b34801561019857600080fd5b506101a1610a4d565b005b6101bd60048036038101906101b89190611c2c565b610d0f565b005b3480156101cb57600080fd5b506101e660048036038101906101e19190611779565b610fd4565b6040516101f39190611c11565b60405180910390f35b34801561020857600080fd5b50610223600480360381019061021e9190611779565b610ff8565b005b34801561023157600080fd5b5061024c60048036038101906102479190611c6c565b611288565b6040516102599190611ce4565b60405180910390f35b61027c60048036038101906102779190611779565b6112e1565b005b34801561028a57600080fd5b50610293611405565b6040516102a09190611c11565b60405180910390f35b3480156102b557600080fd5b506102be611423565b6040516102cb9190611c11565b60405180910390f35b3480156102e057600080fd5b506102fb60048036038101906102f69190611c2c565b611429565b005b60006020528060005260406000206000915090508060000154908060010160009054906101000a900473ffffffffffffffffffffffffffffffffffffffff16908060020160009054906101000a900473ffffffffffffffffffffffffffffffffffffffff169080600301549080600401549080600501549080600601549080600701549080600801549080600901549080600a0160009054906101000a900473ffffffffffffffffffffffffffffffffffffffff169080600a0160149054906101000a900460ff1690508c565b6000851161040d576040517f08c379a000000000000000000000000000000000000000000000000000000000815260040161040490611d5c565b60405180910390fd5b600080600087815260200190815260200160002060405180610180016040529081600082015481526020016001820160009054906101000a900473ffffffffffffffffffffffffffffffffffffffff1673ffffffffffffffffffffffffffffffffffffffff1673ffffffffffffffffffffffffffffffffffffffff1681526020016002820160009054906101000a900473ffffffffffffffffffffffffffffffffffffffff1673ffffffffffffffffffffffffffffffffffffffff1673ffffffffffffffffffffffffffffffffffffffff16815260200160038201548152602001600482015481526020016005820154815260200160068201548152602001600782015481526020016008820154815260200160098201548152602001600a820160009054906101000a900473ffffffffffffffffffffffffffffffffffffffff1673ffffffffffffffffffffffffffffffffffffffff1673ffffffffffffffffffffffffffffffffffffffff168152602001600a820160149054906101000a900460ff16151515158152505090506000816020015173ffffffffffffffffffffffffffffffffffffffff163373ffffffffffffffffffffffffffffffffffffffff160361061657816040015190506105f58560405180602001604052806000815250611288565b15610611578160a001805180919061060c90611dab565b815250505b610653565b816020015190506106368560405180602001604052806000815250611288565b15610652578160c001805180919061064d90611dab565b815250505b5b8073ffffffffffffffffffffffffffffffffffffffff167fa62cac5a9b38077605d3b086d05f6d1ae79e95e44358d2e755b7047c97e0c5668888878960405161069f9493929190611e42565b60405180910390a260008260c001510361077c57816040015173ffffffffffffffffffffffffffffffffffffffff16826020015173ffffffffffffffffffffffffffffffffffffffff167f4f7a2d726cb94269f9888270b62c9efbae711e5cd5cfa3c7bf7c52a4f2dcb206896040516107189190611c11565b60405180910390a36000826020015190508073ffffffffffffffffffffffffffffffffffffffff166108fc6004549081150290604051600060405180830381858888f19350505050158015610771573d6000803e3d6000fd5b506000600481905550505b60008260a001510361085157816020015173ffffffffffffffffffffffffffffffffffffffff16826040015173ffffffffffffffffffffffffffffffffffffffff167f4f7a2d726cb94269f9888270b62c9efbae711e5cd5cfa3c7bf7c52a4f2dcb206896040516107ed9190611c11565b60405180910390a36000826040015190508073ffffffffffffffffffffffffffffffffffffffff166108fc6004549081150290604051600060405180830381858888f19350505050158015610846573d6000803e3d6000fd5b506000600481905550505b50505050505050565b6000821161089d576040517f08c379a000000000000000000000000000000000000000000000000000000000815260040161089490611d5c565b60405180910390fd5b600080600084815260200190815260200160002090508060010160009054906101000a900473ffffffffffffffffffffffffffffffffffffffff1673ffffffffffffffffffffffffffffffffffffffff163373ffffffffffffffffffffffffffffffffffffffff1603610918578181600701819055506109b9565b8060020160009054906101000a900473ffffffffffffffffffffffffffffffffffffffff1673ffffffffffffffffffffffffffffffffffffffff163373ffffffffffffffffffffffffffffffffffffffff160361097d578181600801819055506109b8565b6040517f08c379a00000000000000000000000000000000000000000000000000000000081526004016109af90611eda565b60405180910390fd5b5b3373ffffffffffffffffffffffffffffffffffffffff168160010160009054906101000a900473ffffffffffffffffffffffffffffffffffffffff1673ffffffffffffffffffffffffffffffffffffffff167f579d51a8a09cc46d5b01f59d7cc8a51837a1cf32ed27209e7e6fe22fde35d41785604051610a3a9190611c11565b60405180910390a3505050565b60035481565b6000610a576116e5565b905060005b600060028381548110610a7257610a71611efa565b5b9060005260206000200154148015610a8a5750600a81105b15610aac57610a976116e5565b91508080610aa490611f29565b915050610a5c565b600a8110610aef576040517f08c379a0000000000000000000000000000000000000000000000000000000008152600401610ae690611fbd565b60405180910390fd5b600080600084815260200190815260200160002060405180610180016040529081600082015481526020016001820160009054906101000a900473ffffffffffffffffffffffffffffffffffffffff1673ffffffffffffffffffffffffffffffffffffffff1673ffffffffffffffffffffffffffffffffffffffff1681526020016002820160009054906101000a900473ffffffffffffffffffffffffffffffffffffffff1673ffffffffffffffffffffffffffffffffffffffff1673ffffffffffffffffffffffffffffffffffffffff16815260200160038201548152602001600482015481526020016005820154815260200160068201548152602001600782015481526020016008820154815260200160098201548152602001600a820160009054906101000a900473ffffffffffffffffffffffffffffffffffffffff1673ffffffffffffffffffffffffffffffffffffffff1673ffffffffffffffffffffffffffffffffffffffff168152602001600a820160149054906101000a900460ff1615151515815250509050806101600151610cc3576040517f08c379a0000000000000000000000000000000000000000000000000000000008152600401610cba90611fbd565b60405180910390fd5b7f2e228c4005eb8318a1e40880fd973e87e2c0346ce6d45fe3ecbde9297b8328aa816000015182608001518360600151604051610d0293929190611fdd565b60405180910390a1505050565b6000604051806101800160405280610d25611405565b81526020013373ffffffffffffffffffffffffffffffffffffffff168152602001600073ffffffffffffffffffffffffffffffffffffffff16815260200184815260200183815260200160058152602001600581526020016000801b81526020016000801b815260200160008152602001600073ffffffffffffffffffffffffffffffffffffffff16815260200160011515815250905080600080836000015181526020019081526020016000206000820151816000015560208201518160010160006101000a81548173ffffffffffffffffffffffffffffffffffffffff021916908373ffffffffffffffffffffffffffffffffffffffff16021790555060408201518160020160006101000a81548173ffffffffffffffffffffffffffffffffffffffff021916908373ffffffffffffffffffffffffffffffffffffffff160217905550606082015181600301556080820151816004015560a0820151816005015560c0820151816006015560e082015181600701556101008201518160080155610120820151816009015561014082015181600a0160006101000a81548173ffffffffffffffffffffffffffffffffffffffff021916908373ffffffffffffffffffffffffffffffffffffffff16021790555061016082015181600a0160146101000a81548160ff02191690831515021790555090505060028160000151908060018154018082558091505060019003906000526020600020016000909190919091505560036000815480929190610f5f90611f29565b91905055503460046000828254610f769190612014565b925050819055503373ffffffffffffffffffffffffffffffffffffffff167f6819b4a537631fd79a9d2b0f56db1ff2742f0304520484d23f6f356aaebe31f68260000151604051610fc79190611c11565b60405180910390a2505050565b60028181548110610fe457600080fd5b906000526020600020016000915090505481565b60008060008381526020019081526020016000206000015403611050576040517f08c379a000000000000000000000000000000000000000000000000000000000815260040161104790612094565b60405180910390fd5b600080828152602001908152602001600020600a0160149054906101000a900460ff166110b2576040517f08c379a00000000000000000000000000000000000000000000000000000000081526004016110a990612100565b60405180910390fd5b600080600083815260200190815260200160002060405180610180016040529081600082015481526020016001820160009054906101000a900473ffffffffffffffffffffffffffffffffffffffff1673ffffffffffffffffffffffffffffffffffffffff1673ffffffffffffffffffffffffffffffffffffffff1681526020016002820160009054906101000a900473ffffffffffffffffffffffffffffffffffffffff1673ffffffffffffffffffffffffffffffffffffffff1673ffffffffffffffffffffffffffffffffffffffff16815260200160038201548152602001600482015481526020016005820154815260200160068201548152602001600782015481526020016008820154815260200160098201548152602001600a820160009054906101000a900473ffffffffffffffffffffffffffffffffffffffff1673ffffffffffffffffffffffffffffffffffffffff1673ffffffffffffffffffffffffffffffffffffffff168152602001600a820160149054906101000a900460ff16151515158152505090507f2e228c4005eb8318a1e40880fd973e87e2c0346ce6d45fe3ecbde9297b8328aa828260800151836060015160405161127c93929190611fdd565b60405180910390a15050565b60008160405160200161129b919061215c565b60405160208183030381529060405280519060200120836040516020016112c2919061215c565b6040516020818303038152906040528051906020012014905092915050565b60008111611324576040517f08c379a000000000000000000000000000000000000000000000000000000000815260040161131b90611d5c565b60405180910390fd5b60008060008381526020019081526020016000209050338160020160006101000a81548173ffffffffffffffffffffffffffffffffffffffff021916908373ffffffffffffffffffffffffffffffffffffffff160217905550600081600a0160146101000a81548160ff02191690831515021790555034600460008282546113ac9190612014565b925050819055503373ffffffffffffffffffffffffffffffffffffffff167f082f67f820bd19b8afdb7a254074ae7c54044d730095a591e66f385f31dc242b836040516113f99190611c11565b60405180910390a25050565b60006001600081548092919061141a90611f29565b91905055905090565b60015481565b6000821161146c576040517f08c379a000000000000000000000000000000000000000000000000000000000815260040161146390611d5c565b60405180910390fd5b600080600084815260200190815260200160002060405180610180016040529081600082015481526020016001820160009054906101000a900473ffffffffffffffffffffffffffffffffffffffff1673ffffffffffffffffffffffffffffffffffffffff1673ffffffffffffffffffffffffffffffffffffffff1681526020016002820160009054906101000a900473ffffffffffffffffffffffffffffffffffffffff1673ffffffffffffffffffffffffffffffffffffffff1673ffffffffffffffffffffffffffffffffffffffff16815260200160038201548152602001600482015481526020016005820154815260200160068201548152602001600782015481526020016008820154815260200160098201548152602001600a820160009054906101000a900473ffffffffffffffffffffffffffffffffffffffff1673ffffffffffffffffffffffffffffffffffffffff1673ffffffffffffffffffffffffffffffffffffffff168152602001600a820160149054906101000a900460ff1615151515815250509050806020015173ffffffffffffffffffffffffffffffffffffffff163373ffffffffffffffffffffffffffffffffffffffff160361168b57806040015173ffffffffffffffffffffffffffffffffffffffff167f5a714ed4c14d94c7c78bb2d603a46d32343bdd52ae763cf1ec34ca2f64d4c46a848460405161167e929190612173565b60405180910390a26116e0565b806020015173ffffffffffffffffffffffffffffffffffffffff167f5a714ed4c14d94c7c78bb2d603a46d32343bdd52ae763cf1ec34ca2f64d4c46a84846040516116d7929190612173565b60405180910390a25b505050565b60008060028054905042444160405160200161170393929190612217565b6040516020818303038152906040528051906020012060001c6117269190612283565b90508091505090565b6000604051905090565b600080fd5b600080fd5b6000819050919050565b61175681611743565b811461176157600080fd5b50565b6000813590506117738161174d565b92915050565b60006020828403121561178f5761178e611739565b5b600061179d84828501611764565b91505092915050565b6117af81611743565b82525050565b600073ffffffffffffffffffffffffffffffffffffffff82169050919050565b60006117e0826117b5565b9050919050565b6117f0816117d5565b82525050565b6000819050919050565b611809816117f6565b82525050565b60008115159050919050565b6118248161180f565b82525050565b600061018082019050611840600083018f6117a6565b61184d602083018e6117e7565b61185a604083018d6117e7565b611867606083018c6117a6565b611874608083018b6117a6565b61188160a083018a6117a6565b61188e60c08301896117a6565b61189b60e0830188611800565b6118a9610100830187611800565b6118b76101208301866117a6565b6118c56101408301856117e7565b6118d361016083018461181b565b9d9c50505050505050505050505050565b600080fd5b600080fd5b6000601f19601f8301169050919050565b7f4e487b7100000000000000000000000000000000000000000000000000000000600052604160045260246000fd5b611937826118ee565b810181811067ffffffffffffffff82111715611956576119556118ff565b5b80604052505050565b600061196961172f565b9050611975828261192e565b919050565b600067ffffffffffffffff821115611995576119946118ff565b5b61199e826118ee565b9050602081019050919050565b82818337600083830152505050565b60006119cd6119c88461197a565b61195f565b9050828152602081018484840111156119e9576119e86118e9565b5b6119f48482856119ab565b509392505050565b600082601f830112611a1157611a106118e4565b5b8135611a218482602086016119ba565b91505092915050565b600067ffffffffffffffff821115611a4557611a446118ff565b5b602082029050602081019050919050565b600080fd5b611a64816117f6565b8114611a6f57600080fd5b50565b600081359050611a8181611a5b565b92915050565b6000611a9a611a9584611a2a565b61195f565b90508083825260208201905060208402830185811115611abd57611abc611a56565b5b835b81811015611ae65780611ad28882611a72565b845260208401935050602081019050611abf565b5050509392505050565b600082601f830112611b0557611b046118e4565b5b8135611b15848260208601611a87565b91505092915050565b600080600080600060a08688031215611b3a57611b39611739565b5b6000611b4888828901611764565b9550506020611b5988828901611764565b945050604086013567ffffffffffffffff811115611b7a57611b7961173e565b5b611b86888289016119fc565b9350506060611b9788828901611764565b925050608086013567ffffffffffffffff811115611bb857611bb761173e565b5b611bc488828901611af0565b9150509295509295909350565b60008060408385031215611be857611be7611739565b5b6000611bf685828601611764565b9250506020611c0785828601611a72565b9150509250929050565b6000602082019050611c2660008301846117a6565b92915050565b60008060408385031215611c4357611c42611739565b5b6000611c5185828601611764565b9250506020611c6285828601611764565b9150509250929050565b60008060408385031215611c8357611c82611739565b5b600083013567ffffffffffffffff811115611ca157611ca061173e565b5b611cad858286016119fc565b925050602083013567ffffffffffffffff811115611cce57611ccd61173e565b5b611cda858286016119fc565b9150509250929050565b6000602082019050611cf9600083018461181b565b92915050565b600082825260208201905092915050565b7f47616d65206964206973206e6567617469766521000000000000000000000000600082015250565b6000611d46601483611cff565b9150611d5182611d10565b602082019050919050565b60006020820190508181036000830152611d7581611d39565b9050919050565b7f4e487b7100000000000000000000000000000000000000000000000000000000600052601160045260246000fd5b6000611db682611743565b915060008203611dc957611dc8611d7c565b5b600182039050919050565b600081519050919050565b60005b83811015611dfd578082015181840152602081019050611de2565b60008484015250505050565b6000611e1482611dd4565b611e1e8185611cff565b9350611e2e818560208601611ddf565b611e37816118ee565b840191505092915050565b6000608082019050611e5760008301876117a6565b611e6460208301866117a6565b611e7160408301856117a6565b8181036060830152611e838184611e09565b905095945050505050565b7f506c617965722061646472657373206973206e6f742076616c69640000000000600082015250565b6000611ec4601b83611cff565b9150611ecf82611e8e565b602082019050919050565b60006020820190508181036000830152611ef381611eb7565b9050919050565b7f4e487b7100000000000000000000000000000000000000000000000000000000600052603260045260246000fd5b6000611f3482611743565b91507fffffffffffffffffffffffffffffffffffffffffffffffffffffffffffffffff8203611f6657611f65611d7c565b5b600182019050919050565b7f536f6d657468696e6720676f65732077726f6e672c2074727920616761696e21600082015250565b6000611fa7602083611cff565b9150611fb282611f71565b602082019050919050565b60006020820190508181036000830152611fd681611f9a565b9050919050565b6000606082019050611ff260008301866117a6565b611fff60208301856117a6565b61200c60408301846117a6565b949350505050565b600061201f82611743565b915061202a83611743565b925082820190508082111561204257612041611d7c565b5b92915050565b7f4e6f206578697374696e672067616d6520776974682074686973204944000000600082015250565b600061207e601d83611cff565b915061208982612048565b602082019050919050565b600060208201905081810360008301526120ad81612071565b9050919050565b7f53656c65637465642067616d65206973206e6f7420706c617961626c65000000600082015250565b60006120ea601d83611cff565b91506120f5826120b4565b602082019050919050565b60006020820190508181036000830152612119816120dd565b9050919050565b600081905092915050565b600061213682611dd4565b6121408185612120565b9350612150818560208601611ddf565b80840191505092915050565b6000612168828461212b565b915081905092915050565b600060408201905061218860008301856117a6565b61219560208301846117a6565b9392505050565b6000819050919050565b6121b76121b282611743565b61219c565b82525050565b60006121c8826117b5565b9050919050565b60008160601b9050919050565b60006121e7826121cf565b9050919050565b60006121f9826121dc565b9050919050565b61221161220c826121bd565b6121ee565b82525050565b600061222382866121a6565b60208201915061223382856121a6565b6020820191506122438284612200565b601482019150819050949350505050565b7f4e487b7100000000000000000000000000000000000000000000000000000000600052601260045260246000fd5b600061228e82611743565b915061229983611743565b9250826122a9576122a8612254565b5b82820690509291505056fea2646970667358221220dfdf6383e848394d7a1dfc4a4ff0a09f2f6d4fe169ffddba4264e6585742a19c64736f6c63430008130033",
  "immutableReferences": {},
  "source": "// SPDX-License-Identifier: MIT\npragma solidity >=0.8.19 <0.9.0;\n// import \"@openzeppelin/contracts-ethereum-package/contracts/math/SafeMath.sol\";\n\ncontract Battleship {\n  //structure that represent a single game\n  struct Game{\n    uint256 gameId;\n    address player1;\n    address player2;\n    uint256 grandPrize;\n    uint256 boardSize;\n    uint256 remainShipsP1;\n    uint256 remainShipsP2;\n    bytes32 p1MerkleRoot;\n    bytes32 p2MerkleRoot;\n    uint256 penaltyTimeout;\n    address accusedPlayer;\n    bool playable;\n  }\n\n  event gameCreated(uint256 _gameId, address indexed _from);\n  event gameJoined(uint256 _gameId, address indexed _from);\n  event gameReady(uint256 _gameId, address indexed _playerTurn, address indexed _player);\n  event gameInfo(uint256 _gameId, uint256 _boardSize, uint256 _grandPrize);\n  event gameEnded(uint256 _gameId, address indexed _winner, address indexed _looser);\n  event shotEvent(uint256 _gameId, address indexed _player, uint256 _shotSquareId);\n  event shotResultEvent(uint256 _gameId, address indexed _player, uint256 _shotResult, uint256 _shotSquareId, string _sunk);\n  event accusationTrial(uint256 _gameId, address indexed _accuser, address indexed _accused);\n\n  //Array of all games present in the blockchain\n  mapping(uint256 => Game) public games;\n  //Game ID generator counter\n  uint256 public gameId=1;\n  //Available games array\n  uint256[] public availableGames;\n\n  uint256 public totalGames=0;\n\n  uint256 internal grandPrize=0;\n\n  constructor() {}\n\n  function getGameId() public returns (uint256) {\n    return gameId++;\n  }\n\n  function createGame(uint256 _grandPrize, uint256 _boardSize) public payable {\n    Game memory game=Game(getGameId(), \n              msg.sender, \n              address(0),\n              _grandPrize,\n              _boardSize,\n              5,\n              5,\n              0,\n              0,\n              0,\n              address(0),\n              true);\n    games[game.gameId]=game;\n    availableGames.push(game.gameId);\n    totalGames++;\n    grandPrize+=msg.value;\n    emit gameCreated(game.gameId, msg.sender);\n  }\n\n  function joinGameByGameId(uint256 _gameId) public {\n    require(games[_gameId].gameId != 0, \"No existing game with this ID\");\n    require(games[_gameId].playable, \"Selected game is not playable\");\n      \n    Game memory game=games[_gameId];\n    emit gameInfo(_gameId, game.boardSize, game.grandPrize);\n  }\n\n  function joinRandomGame() public {\n    uint256 index=random();\n    uint256 i=0;\n    while(availableGames[index]==0 && i<10){\n      index=random();\n      i++;\n    }\n\n    require(i < 10, \"Something goes wrong, try again!\");\n\n    Game memory game=games[index];\n    require(game.playable, \"Something goes wrong, try again!\");\n    emit gameInfo(game.gameId, game.boardSize, game.grandPrize);\n  }\n\n  function setOpponent(uint256 _gameId) public payable{\n    require(_gameId > 0, \"Game id is negative!\");\n    Game storage game=games[_gameId];\n\n    game.player2=msg.sender;\n    game.playable=false;\n    grandPrize+=msg.value;\n    emit gameJoined(_gameId, msg.sender);\n  }\n\n  function setMerkleRoot(uint256 _gameId, bytes32 _merkleRoot) public{\n    require(_gameId > 0, \"Game id is negative!\");\n    Game storage game=games[_gameId];\n\n    if(msg.sender==game.player1){\n      game.p1MerkleRoot=_merkleRoot;\n    } else if(msg.sender==game.player2) {\n      game.p2MerkleRoot=_merkleRoot;\n    } else {\n      revert(\"Player address is not valid\");\n    }\n\n    emit gameReady(_gameId, game.player1, msg.sender);\n  }\n\n  function shot(uint256 _gameId, uint256 _shotSquareId) public{\n    require(_gameId > 0, \"Game id is negative!\");\n\n    Game memory game=games[_gameId];\n    if(msg.sender==game.player1)\n      emit shotEvent(_gameId, game.player2, _shotSquareId);\n    else\n      emit shotEvent(_gameId, game.player1, _shotSquareId);\n  }\n\n  function shotResult(uint256 _gameId, uint256 _shotResult, string memory _sunk, uint256 _shotSquareId, bytes32[] memory _merkleProof) public {\n    require(_gameId > 0, \"Game id is negative!\");\n    \n    Game memory game=games[_gameId];\n    address shoter;\n    if(msg.sender==game.player1){\n      shoter=game.player2;\n      if(areStringsEqual(_sunk,\"\")){\n        game.remainShipsP1--;\n      }\n    } else {\n      shoter=game.player1;\n      if(areStringsEqual(_sunk,\"\")){\n        game.remainShipsP2--;\n      }    \n    }\n\n    emit shotResultEvent(_gameId, shoter, _shotResult, _shotSquareId, _sunk);\n\n    if(game.remainShipsP2==0){\n      emit gameEnded(_gameId, game.player1, game.player2);\n\n      address payable winnerAddress = payable(game.player1);\n      winnerAddress.transfer(grandPrize);\n      grandPrize = 0;\n    }\n    \n    if(game.remainShipsP1==0){\n      emit gameEnded(_gameId, game.player2, game.player1);\n      \n      address payable winnerAddress = payable(game.player2);\n      winnerAddress.transfer(grandPrize);\n      grandPrize = 0;\n    }\n  }\n\n  function deleteElementFromArray(uint256 _element) internal {\n    for (uint256 i = 0; i < availableGames.length; i++) {\n        if (availableGames[i] == _element) {\n            if (i != availableGames.length - 1) {\n                availableGames[i] = availableGames[availableGames.length - 1];\n            }\n            availableGames.pop();\n            break;\n        }\n    }\n  }\n\n  function random() internal view returns (uint256) {\n    uint256 randomnumber = uint256(keccak256(abi.encodePacked(block.timestamp, block.prevrandao, block.coinbase))) % availableGames.length;\n    return randomnumber;\n  }\n\n  function areStringsEqual(string memory str1, string memory str2) public pure returns (bool) {\n    return (keccak256(abi.encodePacked(str1)) == keccak256(abi.encodePacked(str2)));\n  }\n}\n",
  "sourcePath": "/home/nicola/Scrivania/Magistrale/P2P and Blockchains/Battleship-ETH/battleship/contracts/Battleship.sol",
  "compiler": {
    "name": "solc",
    "version": "0.8.19+commit.7dd6d404.Emscripten.clang"
  },
  "schemaVersion": "3.4.13",
  "updatedAt": "2023-07-20T13:40:54.588Z",
  "networkType": "ethereum",
  "devdoc": {
    "kind": "dev",
    "methods": {},
    "version": 1
  },
  "userdoc": {
    "kind": "user",
    "methods": {},
    "version": 1
  }
}