{
  "contractName": "Battleship",
  "abi": [
    {
      "inputs": [],
      "stateMutability": "nonpayable",
      "type": "constructor"
    },
    {
      "inputs": [
        {
          "internalType": "string",
          "name": "_message",
          "type": "string"
        }
      ],
      "name": "eventError",
      "type": "error"
    },
    {
      "anonymous": false,
      "inputs": [
        {
          "indexed": false,
          "internalType": "uint256",
          "name": "_gameId",
          "type": "uint256"
        },
        {
          "indexed": true,
          "internalType": "address",
          "name": "_accuser",
          "type": "address"
        },
        {
          "indexed": true,
          "internalType": "address",
          "name": "_accused",
          "type": "address"
        }
      ],
      "name": "accusationTrial",
      "type": "event"
    },
    {
      "anonymous": false,
      "inputs": [
        {
          "indexed": false,
          "internalType": "uint256",
          "name": "_gameId",
          "type": "uint256"
        },
        {
          "indexed": true,
          "internalType": "address",
          "name": "_from",
          "type": "address"
        }
      ],
      "name": "gameCreated",
      "type": "event"
    },
    {
      "anonymous": false,
      "inputs": [
        {
          "indexed": false,
          "internalType": "uint256",
          "name": "_gameId",
          "type": "uint256"
        },
        {
          "indexed": true,
          "internalType": "address",
          "name": "_winner",
          "type": "address"
        },
        {
          "indexed": true,
          "internalType": "address",
          "name": "_looser",
          "type": "address"
        }
      ],
      "name": "gameEnded",
      "type": "event"
    },
    {
      "anonymous": false,
      "inputs": [
        {
          "indexed": false,
          "internalType": "uint256",
          "name": "_gameId",
          "type": "uint256"
        },
        {
          "indexed": false,
          "internalType": "uint256",
          "name": "_boardSize",
          "type": "uint256"
        },
        {
          "indexed": false,
          "internalType": "uint256",
          "name": "_grandPrize",
          "type": "uint256"
        }
      ],
      "name": "gameInfo",
      "type": "event"
    },
    {
      "anonymous": false,
      "inputs": [
        {
          "indexed": false,
          "internalType": "uint256",
          "name": "_gameId",
          "type": "uint256"
        },
        {
          "indexed": true,
          "internalType": "address",
          "name": "_from",
          "type": "address"
        }
      ],
      "name": "gameJoined",
      "type": "event"
    },
    {
      "anonymous": false,
      "inputs": [
        {
          "indexed": false,
          "internalType": "uint256",
          "name": "_gameId",
          "type": "uint256"
        },
        {
          "indexed": false,
          "internalType": "address",
          "name": "_playerTurn",
          "type": "address"
        },
        {
          "indexed": false,
          "internalType": "bytes32",
          "name": "_merkleRoot",
          "type": "bytes32"
        }
      ],
      "name": "gameReady",
      "type": "event"
    },
    {
      "inputs": [],
      "name": "START_TIME",
      "outputs": [
        {
          "internalType": "uint256",
          "name": "",
          "type": "uint256"
        }
      ],
      "stateMutability": "view",
      "type": "function",
      "constant": true
    },
    {
      "inputs": [
        {
          "internalType": "uint256",
          "name": "",
          "type": "uint256"
        }
      ],
      "name": "availableGames",
      "outputs": [
        {
          "internalType": "uint256",
          "name": "",
          "type": "uint256"
        }
      ],
      "stateMutability": "view",
      "type": "function",
      "constant": true
    },
    {
      "inputs": [],
      "name": "game",
      "outputs": [
        {
          "internalType": "uint256",
          "name": "gameId",
          "type": "uint256"
        },
        {
          "internalType": "address",
          "name": "player1",
          "type": "address"
        },
        {
          "internalType": "address",
          "name": "player2",
          "type": "address"
        },
        {
          "internalType": "uint256",
          "name": "grandPrize",
          "type": "uint256"
        },
        {
          "internalType": "uint256",
          "name": "boardSize",
          "type": "uint256"
        },
        {
          "internalType": "uint256",
          "name": "remainShipsP1",
          "type": "uint256"
        },
        {
          "internalType": "uint256",
          "name": "remainShipsP2",
          "type": "uint256"
        },
        {
          "internalType": "bytes32",
          "name": "p1MerkleRoot",
          "type": "bytes32"
        },
        {
          "internalType": "bytes32",
          "name": "p2MerkleRoot",
          "type": "bytes32"
        },
        {
          "internalType": "uint256",
          "name": "penaltyTimeout",
          "type": "uint256"
        },
        {
          "internalType": "address",
          "name": "accusedPlayer",
          "type": "address"
        },
        {
          "internalType": "bool",
          "name": "playable",
          "type": "bool"
        }
      ],
      "stateMutability": "view",
      "type": "function",
      "constant": true
    },
    {
      "inputs": [],
      "name": "gameId",
      "outputs": [
        {
          "internalType": "uint256",
          "name": "",
          "type": "uint256"
        }
      ],
      "stateMutability": "view",
      "type": "function",
      "constant": true
    },
    {
      "inputs": [
        {
          "internalType": "uint256",
          "name": "",
          "type": "uint256"
        }
      ],
      "name": "games",
      "outputs": [
        {
          "internalType": "uint256",
          "name": "gameId",
          "type": "uint256"
        },
        {
          "internalType": "address",
          "name": "player1",
          "type": "address"
        },
        {
          "internalType": "address",
          "name": "player2",
          "type": "address"
        },
        {
          "internalType": "uint256",
          "name": "grandPrize",
          "type": "uint256"
        },
        {
          "internalType": "uint256",
          "name": "boardSize",
          "type": "uint256"
        },
        {
          "internalType": "uint256",
          "name": "remainShipsP1",
          "type": "uint256"
        },
        {
          "internalType": "uint256",
          "name": "remainShipsP2",
          "type": "uint256"
        },
        {
          "internalType": "bytes32",
          "name": "p1MerkleRoot",
          "type": "bytes32"
        },
        {
          "internalType": "bytes32",
          "name": "p2MerkleRoot",
          "type": "bytes32"
        },
        {
          "internalType": "uint256",
          "name": "penaltyTimeout",
          "type": "uint256"
        },
        {
          "internalType": "address",
          "name": "accusedPlayer",
          "type": "address"
        },
        {
          "internalType": "bool",
          "name": "playable",
          "type": "bool"
        }
      ],
      "stateMutability": "view",
      "type": "function",
      "constant": true
    },
    {
      "inputs": [],
      "name": "totalGames",
      "outputs": [
        {
          "internalType": "uint256",
          "name": "",
          "type": "uint256"
        }
      ],
      "stateMutability": "view",
      "type": "function",
      "constant": true
    },
    {
      "inputs": [],
      "name": "getGameId",
      "outputs": [
        {
          "internalType": "uint256",
          "name": "",
          "type": "uint256"
        }
      ],
      "stateMutability": "nonpayable",
      "type": "function"
    },
    {
      "inputs": [
        {
          "internalType": "uint256",
          "name": "_grandPrize",
          "type": "uint256"
        },
        {
          "internalType": "uint256",
          "name": "_boardSize",
          "type": "uint256"
        }
      ],
      "name": "createGame",
      "outputs": [],
      "stateMutability": "nonpayable",
      "type": "function"
    },
    {
      "inputs": [
        {
          "internalType": "uint256",
          "name": "_gameId",
          "type": "uint256"
        }
      ],
      "name": "joinGameByGameId",
      "outputs": [],
      "stateMutability": "nonpayable",
      "type": "function"
    },
    {
      "inputs": [],
      "name": "joinRandomGame",
      "outputs": [],
      "stateMutability": "nonpayable",
      "type": "function"
    },
    {
      "inputs": [
        {
          "internalType": "uint256",
          "name": "_gameId",
          "type": "uint256"
        }
      ],
      "name": "setOpponent",
      "outputs": [],
      "stateMutability": "nonpayable",
      "type": "function"
    },
    {
      "inputs": [
        {
          "internalType": "uint256",
          "name": "_gameId",
          "type": "uint256"
        },
        {
          "internalType": "bytes32",
          "name": "_merkleRoot",
          "type": "bytes32"
        }
      ],
      "name": "setMerkleRoot",
      "outputs": [],
      "stateMutability": "nonpayable",
      "type": "function"
    }
  ],
  "bytecode": "0x6080604052600180556000600355600f600455600060055534801561002357600080fd5b50611aec806100336000396000f3fe608060405234801561001057600080fd5b50600436106100b45760003560e01c80639decd17c116100715780639decd17c14610184578063b4b93d8f146101a0578063c0bd8351146101bc578063c3fe3e28146101da578063d7c81b5514610203578063ddaa26ad14610221576100b4565b8063117a5b90146100b957806318712c21146100f45780632c4e591b14610110578063342ca1841461012e57806360104cef146101385780639966cc8314610154575b600080fd5b6100d360048036038101906100ce91906114a9565b61023f565b6040516100eb9c9b9a9998979695949392919061155a565b60405180910390f35b61010e60048036038101906101099190611640565b61030c565b005b610118610643565b6040516101259190611680565b60405180910390f35b610136610649565b005b610152600480360381019061014d919061169b565b61095a565b005b61016e600480360381019061016991906114a9565b610dbc565b60405161017b9190611680565b60405180910390f35b61019e600480360381019061019991906114a9565b610de0565b005b6101ba60048036038101906101b591906114a9565b6110ab565b005b6101c4611327565b6040516101d19190611680565b60405180910390f35b6101e2611345565b6040516101fa9c9b9a9998979695949392919061155a565b60405180910390f35b61020b611400565b6040516102189190611680565b60405180910390f35b610229611406565b6040516102369190611680565b60405180910390f35b60006020528060005260406000206000915090508060000154908060010160009054906101000a900473ffffffffffffffffffffffffffffffffffffffff16908060020160009054906101000a900473ffffffffffffffffffffffffffffffffffffffff169080600301549080600401549080600501549080600601549080600701549080600801549080600901549080600a0160009054906101000a900473ffffffffffffffffffffffffffffffffffffffff169080600a0160149054906101000a900460ff1690508c565b6000808381526020019081526020016000206006600082015481600001556001820160009054906101000a900473ffffffffffffffffffffffffffffffffffffffff168160010160006101000a81548173ffffffffffffffffffffffffffffffffffffffff021916908373ffffffffffffffffffffffffffffffffffffffff1602179055506002820160009054906101000a900473ffffffffffffffffffffffffffffffffffffffff168160020160006101000a81548173ffffffffffffffffffffffffffffffffffffffff021916908373ffffffffffffffffffffffffffffffffffffffff16021790555060038201548160030155600482015481600401556005820154816005015560068201548160060155600782015481600701556008820154816008015560098201548160090155600a820160009054906101000a900473ffffffffffffffffffffffffffffffffffffffff1681600a0160006101000a81548173ffffffffffffffffffffffffffffffffffffffff021916908373ffffffffffffffffffffffffffffffffffffffff160217905550600a820160149054906101000a900460ff1681600a0160146101000a81548160ff021916908315150217905550905050600660010160009054906101000a900473ffffffffffffffffffffffffffffffffffffffff1673ffffffffffffffffffffffffffffffffffffffff163373ffffffffffffffffffffffffffffffffffffffff160361053c57806006600701819055506105df565b600660020160009054906101000a900473ffffffffffffffffffffffffffffffffffffffff1673ffffffffffffffffffffffffffffffffffffffff163373ffffffffffffffffffffffffffffffffffffffff16036105a357806006600801819055506105de565b6040517f58c16fda0000000000000000000000000000000000000000000000000000000081526004016105d590611738565b60405180910390fd5b5b7f722c75719fed076222182754cdd8a13272205c331dd855e73395c54aad3c2fdc82600660010160009054906101000a900473ffffffffffffffffffffffffffffffffffffffff168360405161063793929190611758565b60405180910390a15050565b60035481565b600061065361140c565b905060005b60006002838154811061066e5761066d61178f565b5b90600052602060002001541480156106865750600a81105b156106a85761069361140c565b915080806106a0906117ed565b915050610658565b600a81036106eb576040517f58c16fda0000000000000000000000000000000000000000000000000000000081526004016106e290611881565b60405180910390fd5b6000808381526020019081526020016000206006600082015481600001556001820160009054906101000a900473ffffffffffffffffffffffffffffffffffffffff168160010160006101000a81548173ffffffffffffffffffffffffffffffffffffffff021916908373ffffffffffffffffffffffffffffffffffffffff1602179055506002820160009054906101000a900473ffffffffffffffffffffffffffffffffffffffff168160020160006101000a81548173ffffffffffffffffffffffffffffffffffffffff021916908373ffffffffffffffffffffffffffffffffffffffff16021790555060038201548160030155600482015481600401556005820154816005015560068201548160060155600782015481600701556008820154816008015560098201548160090155600a820160009054906101000a900473ffffffffffffffffffffffffffffffffffffffff1681600a0160006101000a81548173ffffffffffffffffffffffffffffffffffffffff021916908373ffffffffffffffffffffffffffffffffffffffff160217905550600a820160149054906101000a900460ff1681600a0160146101000a81548160ff0219169083151502179055509050506006600a0160149054906101000a900460ff161561091b577f2e228c4005eb8318a1e40880fd973e87e2c0346ce6d45fe3ecbde9297b8328aa60066000015460066004015460066003015460405161090e939291906118a1565b60405180910390a1610956565b6040517f58c16fda00000000000000000000000000000000000000000000000000000000815260040161094d90611881565b60405180910390fd5b5050565b60405180610180016040528061096e611327565b81526020013373ffffffffffffffffffffffffffffffffffffffff168152602001600073ffffffffffffffffffffffffffffffffffffffff16815260200183815260200182815260200160058152602001600581526020016000801b81526020016000801b815260200160008152602001600073ffffffffffffffffffffffffffffffffffffffff1681526020016001151581525060066000820151816000015560208201518160010160006101000a81548173ffffffffffffffffffffffffffffffffffffffff021916908373ffffffffffffffffffffffffffffffffffffffff16021790555060408201518160020160006101000a81548173ffffffffffffffffffffffffffffffffffffffff021916908373ffffffffffffffffffffffffffffffffffffffff160217905550606082015181600301556080820151816004015560a0820151816005015560c0820151816006015560e082015181600701556101008201518160080155610120820151816009015561014082015181600a0160006101000a81548173ffffffffffffffffffffffffffffffffffffffff021916908373ffffffffffffffffffffffffffffffffffffffff16021790555061016082015181600a0160146101000a81548160ff02191690831515021790555090505060066000806006600001548152602001908152602001600020600082015481600001556001820160009054906101000a900473ffffffffffffffffffffffffffffffffffffffff168160010160006101000a81548173ffffffffffffffffffffffffffffffffffffffff021916908373ffffffffffffffffffffffffffffffffffffffff1602179055506002820160009054906101000a900473ffffffffffffffffffffffffffffffffffffffff168160020160006101000a81548173ffffffffffffffffffffffffffffffffffffffff021916908373ffffffffffffffffffffffffffffffffffffffff16021790555060038201548160030155600482015481600401556005820154816005015560068201548160060155600782015481600701556008820154816008015560098201548160090155600a820160009054906101000a900473ffffffffffffffffffffffffffffffffffffffff1681600a0160006101000a81548173ffffffffffffffffffffffffffffffffffffffff021916908373ffffffffffffffffffffffffffffffffffffffff160217905550600a820160149054906101000a900460ff1681600a0160146101000a81548160ff0219169083151502179055509050506002600660000154908060018154018082558091505060019003906000526020600020016000909190919091505560036000815480929190610d60906117ed565b91905055503373ffffffffffffffffffffffffffffffffffffffff167f6819b4a537631fd79a9d2b0f56db1ff2742f0304520484d23f6f356aaebe31f6600660000154604051610db09190611680565b60405180910390a25050565b60028181548110610dcc57600080fd5b906000526020600020016000915090505481565b60008060008381526020019081526020016000206000015403610e38576040517f58c16fda000000000000000000000000000000000000000000000000000000008152600401610e2f90611924565b60405180910390fd5b600080828152602001908152602001600020600a0160149054906101000a900460ff16610e9a576040517f58c16fda000000000000000000000000000000000000000000000000000000008152600401610e9190611990565b60405180910390fd5b6000808281526020019081526020016000206006600082015481600001556001820160009054906101000a900473ffffffffffffffffffffffffffffffffffffffff168160010160006101000a81548173ffffffffffffffffffffffffffffffffffffffff021916908373ffffffffffffffffffffffffffffffffffffffff1602179055506002820160009054906101000a900473ffffffffffffffffffffffffffffffffffffffff168160020160006101000a81548173ffffffffffffffffffffffffffffffffffffffff021916908373ffffffffffffffffffffffffffffffffffffffff16021790555060038201548160030155600482015481600401556005820154816005015560068201548160060155600782015481600701556008820154816008015560098201548160090155600a820160009054906101000a900473ffffffffffffffffffffffffffffffffffffffff1681600a0160006101000a81548173ffffffffffffffffffffffffffffffffffffffff021916908373ffffffffffffffffffffffffffffffffffffffff160217905550600a820160149054906101000a900460ff1681600a0160146101000a81548160ff0219169083151502179055509050507f2e228c4005eb8318a1e40880fd973e87e2c0346ce6d45fe3ecbde9297b8328aa816006600401546006600301546040516110a0939291906118a1565b60405180910390a150565b6000808281526020019081526020016000206006600082015481600001556001820160009054906101000a900473ffffffffffffffffffffffffffffffffffffffff168160010160006101000a81548173ffffffffffffffffffffffffffffffffffffffff021916908373ffffffffffffffffffffffffffffffffffffffff1602179055506002820160009054906101000a900473ffffffffffffffffffffffffffffffffffffffff168160020160006101000a81548173ffffffffffffffffffffffffffffffffffffffff021916908373ffffffffffffffffffffffffffffffffffffffff16021790555060038201548160030155600482015481600401556005820154816005015560068201548160060155600782015481600701556008820154816008015560098201548160090155600a820160009054906101000a900473ffffffffffffffffffffffffffffffffffffffff1681600a0160006101000a81548173ffffffffffffffffffffffffffffffffffffffff021916908373ffffffffffffffffffffffffffffffffffffffff160217905550600a820160149054906101000a900460ff1681600a0160146101000a81548160ff02191690831515021790555090505033600660020160006101000a81548173ffffffffffffffffffffffffffffffffffffffff021916908373ffffffffffffffffffffffffffffffffffffffff16021790555060006006600a0160146101000a81548160ff0219169083151502179055503373ffffffffffffffffffffffffffffffffffffffff167f082f67f820bd19b8afdb7a254074ae7c54044d730095a591e66f385f31dc242b8260405161131c9190611680565b60405180910390a250565b60006001600081548092919061133c906117ed565b91905055905090565b60068060000154908060010160009054906101000a900473ffffffffffffffffffffffffffffffffffffffff16908060020160009054906101000a900473ffffffffffffffffffffffffffffffffffffffff169080600301549080600401549080600501549080600601549080600701549080600801549080600901549080600a0160009054906101000a900473ffffffffffffffffffffffffffffffffffffffff169080600a0160149054906101000a900460ff1690508c565b60015481565b60045481565b60008060028054905042443360405160200161142a93929190611a19565b6040516020818303038152906040528051906020012060001c61144d9190611a85565b905060056000815480929190611462906117ed565b91905055508091505090565b600080fd5b6000819050919050565b61148681611473565b811461149157600080fd5b50565b6000813590506114a38161147d565b92915050565b6000602082840312156114bf576114be61146e565b5b60006114cd84828501611494565b91505092915050565b6114df81611473565b82525050565b600073ffffffffffffffffffffffffffffffffffffffff82169050919050565b6000611510826114e5565b9050919050565b61152081611505565b82525050565b6000819050919050565b61153981611526565b82525050565b60008115159050919050565b6115548161153f565b82525050565b600061018082019050611570600083018f6114d6565b61157d602083018e611517565b61158a604083018d611517565b611597606083018c6114d6565b6115a4608083018b6114d6565b6115b160a083018a6114d6565b6115be60c08301896114d6565b6115cb60e0830188611530565b6115d9610100830187611530565b6115e76101208301866114d6565b6115f5610140830185611517565b61160361016083018461154b565b9d9c50505050505050505050505050565b61161d81611526565b811461162857600080fd5b50565b60008135905061163a81611614565b92915050565b600080604083850312156116575761165661146e565b5b600061166585828601611494565b92505060206116768582860161162b565b9150509250929050565b600060208201905061169560008301846114d6565b92915050565b600080604083850312156116b2576116b161146e565b5b60006116c085828601611494565b92505060206116d185828601611494565b9150509250929050565b600082825260208201905092915050565b7f506c617965722061646472657373206973206e6f742076616c69640000000000600082015250565b6000611722601b836116db565b915061172d826116ec565b602082019050919050565b6000602082019050818103600083015261175181611715565b9050919050565b600060608201905061176d60008301866114d6565b61177a6020830185611517565b6117876040830184611530565b949350505050565b7f4e487b7100000000000000000000000000000000000000000000000000000000600052603260045260246000fd5b7f4e487b7100000000000000000000000000000000000000000000000000000000600052601160045260246000fd5b60006117f882611473565b91507fffffffffffffffffffffffffffffffffffffffffffffffffffffffffffffffff820361182a576118296117be565b5b600182019050919050565b7f536f6d657468696e6720676f65732077726f6e672c2074727920616761696e21600082015250565b600061186b6020836116db565b915061187682611835565b602082019050919050565b6000602082019050818103600083015261189a8161185e565b9050919050565b60006060820190506118b660008301866114d6565b6118c360208301856114d6565b6118d060408301846114d6565b949350505050565b7f4e6f206578697374696e672067616d6520776974682074686973204944200000600082015250565b600061190e601e836116db565b9150611919826118d8565b602082019050919050565b6000602082019050818103600083015261193d81611901565b9050919050565b7f53656c65637465642067616d65206973206e6f7420706c617961626c65000000600082015250565b600061197a601d836116db565b915061198582611944565b602082019050919050565b600060208201905081810360008301526119a98161196d565b9050919050565b6000819050919050565b6119cb6119c682611473565b6119b0565b82525050565b60008160601b9050919050565b60006119e9826119d1565b9050919050565b60006119fb826119de565b9050919050565b611a13611a0e82611505565b6119f0565b82525050565b6000611a2582866119ba565b602082019150611a3582856119ba565b602082019150611a458284611a02565b601482019150819050949350505050565b7f4e487b7100000000000000000000000000000000000000000000000000000000600052601260045260246000fd5b6000611a9082611473565b9150611a9b83611473565b925082611aab57611aaa611a56565b5b82820690509291505056fea26469706673582212208eec24b6223f8da6fdeb184ce7afebed98c47a0c8731af6b2a8d6d8b363e77db64736f6c63430008130033",
  "immutableReferences": {},
  "source": "// SPDX-License-Identifier: MIT\npragma solidity >=0.8.19 <0.9.0;\n// import \"@openzeppelin/contracts-ethereum-package/contracts/math/SafeMath.sol\";\n\ncontract Battleship {\n  //structure that represent a single game\n  struct Game{\n    uint256 gameId;\n    address player1;\n    address player2;\n    uint256 grandPrize;\n    uint256 boardSize;\n    uint256 remainShipsP1;\n    uint256 remainShipsP2;\n    bytes32 p1MerkleRoot;\n    bytes32 p2MerkleRoot;\n    uint256 penaltyTimeout;\n    address accusedPlayer;\n    bool playable;\n  }\n\n  event gameCreated(uint256 _gameId, address indexed _from);\n  event gameJoined(uint256 _gameId, address indexed _from);\n  event gameReady(uint256 _gameId, address _playerTurn, bytes32 _merkleRoot);\n  event gameInfo(uint256 _gameId, uint256 _boardSize, uint256 _grandPrize);\n  event gameEnded(uint256 _gameId, address indexed _winner, address indexed _looser);\n  event accusationTrial(uint256 _gameId, address indexed _accuser, address indexed _accused);\n  error eventError(string _message);\n\n  //Array of all games present in the blockchain\n  mapping(uint256 => Game) public games;\n  //Game ID generator counter\n  uint256 public gameId=1;\n  //Available games array\n  uint256[] public availableGames;\n\n  uint256 public totalGames=0;\n  uint256 public START_TIME=15;\n  uint256 internal nonce=0;\n  Game public game;\n\n  constructor() {}\n\n  function getGameId() public returns (uint256) {\n    return gameId++;\n  }\n\n  function createGame(uint256 _grandPrize, uint256 _boardSize) public {\n    game=Game(getGameId(), \n              msg.sender, \n              address(0),\n              _grandPrize,\n              _boardSize,\n              5,\n              5,\n              0,\n              0,\n              0,\n              address(0),\n              true);\n    games[game.gameId]=game;\n    availableGames.push(game.gameId);\n    totalGames++;\n    emit gameCreated(game.gameId, msg.sender);\n  }\n\n  function joinGameByGameId(uint256 _gameId) public {\n    if(games[_gameId].gameId==0)\n      revert eventError(\"No existing game with this ID \");\n    \n    if(!games[_gameId].playable){\n      revert eventError(\"Selected game is not playable\");\n    }\n      \n    game=games[_gameId];\n    emit gameInfo(_gameId, game.boardSize, game.grandPrize);\n  }\n\n  function joinRandomGame() public {\n    uint256 index=random();\n    uint256 i=0;\n    while(availableGames[index]==0 && i<10){\n      index=random();\n      i++;\n    }\n\n    if(i==10)\n      revert eventError(\"Something goes wrong, try again!\");\n    \n    game=games[index];\n    if(game.playable){\n      emit gameInfo(game.gameId, game.boardSize, game.grandPrize);\n    } else {\n      revert eventError(\"Something goes wrong, try again!\");\n    }\n    \n  }\n\n  function setOpponent(uint256 _gameId) public{\n    game=games[_gameId];\n\n    game.player2=msg.sender;\n    game.playable=false;\n    emit gameJoined(_gameId, msg.sender);\n  }\n\n  function setMerkleRoot(uint256 _gameId, bytes32 _merkleRoot) public{\n    game=games[_gameId];\n\n    if(msg.sender==game.player1){\n      game.p1MerkleRoot=_merkleRoot;\n    } else if(msg.sender==game.player2) {\n      game.p2MerkleRoot=_merkleRoot;\n    } else {\n      revert eventError(\"Player address is not valid\");\n    }\n\n    emit gameReady(_gameId, game.player1, _merkleRoot);\n  }\n\n  function deleteElementFromArray(uint256 _element) internal {\n    for(uint256 i=0;i<availableGames.length;i++){\n      if(availableGames[i]==_element){\n        availableGames[i]=availableGames[availableGames.length-1];\n        availableGames.pop();\n        break;\n      }\n    }\n  }\n\n  function random() internal returns (uint256) {\n    uint256 randomnumber = uint(keccak256(abi.encodePacked(block.timestamp, block.prevrandao, msg.sender))) % availableGames.length;\n    nonce++;\n    return randomnumber;\n  }\n}\n",
  "sourcePath": "/home/nicola/Scrivania/Magistrale/P2P and Blockchains/Battleship-ETH/battleship/contracts/Battleship.sol",
  "compiler": {
    "name": "solc",
    "version": "0.8.19+commit.7dd6d404.Emscripten.clang"
  },
  "schemaVersion": "3.4.13",
  "updatedAt": "2023-07-16T15:07:13.218Z",
  "networkType": "ethereum",
  "devdoc": {
    "kind": "dev",
    "methods": {},
    "version": 1
  },
  "userdoc": {
    "kind": "user",
    "methods": {},
    "version": 1
  }
}