{
  "contractName": "Battleship",
  "abi": [
    {
      "inputs": [],
      "stateMutability": "nonpayable",
      "type": "constructor"
    },
    {
      "anonymous": false,
      "inputs": [
        {
          "indexed": true,
          "internalType": "address",
          "name": "_from",
          "type": "address"
        },
        {
          "indexed": false,
          "internalType": "uint256",
          "name": "_gameId",
          "type": "uint256"
        }
      ],
      "name": "returnGameId",
      "type": "event"
    },
    {
      "inputs": [],
      "name": "availableGames",
      "outputs": [
        {
          "internalType": "uint256",
          "name": "",
          "type": "uint256"
        }
      ],
      "stateMutability": "view",
      "type": "function",
      "constant": true
    },
    {
      "inputs": [],
      "name": "game",
      "outputs": [
        {
          "internalType": "uint256",
          "name": "gameId",
          "type": "uint256"
        },
        {
          "internalType": "address",
          "name": "player1",
          "type": "address"
        },
        {
          "internalType": "address",
          "name": "player2",
          "type": "address"
        },
        {
          "internalType": "uint256",
          "name": "grandPrize",
          "type": "uint256"
        },
        {
          "internalType": "uint256",
          "name": "boardSize",
          "type": "uint256"
        },
        {
          "internalType": "uint256",
          "name": "numberOfShips",
          "type": "uint256"
        },
        {
          "internalType": "uint256",
          "name": "remainShipsP1",
          "type": "uint256"
        },
        {
          "internalType": "uint256",
          "name": "remainShipsP2",
          "type": "uint256"
        },
        {
          "internalType": "address",
          "name": "playerTurn",
          "type": "address"
        },
        {
          "internalType": "uint256",
          "name": "penaltyTimeout",
          "type": "uint256"
        },
        {
          "internalType": "address",
          "name": "accusedPlayer",
          "type": "address"
        },
        {
          "internalType": "bool",
          "name": "playable",
          "type": "bool"
        }
      ],
      "stateMutability": "view",
      "type": "function",
      "constant": true
    },
    {
      "inputs": [],
      "name": "gameId",
      "outputs": [
        {
          "internalType": "uint256",
          "name": "",
          "type": "uint256"
        }
      ],
      "stateMutability": "view",
      "type": "function",
      "constant": true
    },
    {
      "inputs": [
        {
          "internalType": "uint256",
          "name": "",
          "type": "uint256"
        }
      ],
      "name": "games",
      "outputs": [
        {
          "internalType": "uint256",
          "name": "gameId",
          "type": "uint256"
        },
        {
          "internalType": "address",
          "name": "player1",
          "type": "address"
        },
        {
          "internalType": "address",
          "name": "player2",
          "type": "address"
        },
        {
          "internalType": "uint256",
          "name": "grandPrize",
          "type": "uint256"
        },
        {
          "internalType": "uint256",
          "name": "boardSize",
          "type": "uint256"
        },
        {
          "internalType": "uint256",
          "name": "numberOfShips",
          "type": "uint256"
        },
        {
          "internalType": "uint256",
          "name": "remainShipsP1",
          "type": "uint256"
        },
        {
          "internalType": "uint256",
          "name": "remainShipsP2",
          "type": "uint256"
        },
        {
          "internalType": "address",
          "name": "playerTurn",
          "type": "address"
        },
        {
          "internalType": "uint256",
          "name": "penaltyTimeout",
          "type": "uint256"
        },
        {
          "internalType": "address",
          "name": "accusedPlayer",
          "type": "address"
        },
        {
          "internalType": "bool",
          "name": "playable",
          "type": "bool"
        }
      ],
      "stateMutability": "view",
      "type": "function",
      "constant": true
    },
    {
      "inputs": [],
      "name": "getGameId",
      "outputs": [
        {
          "internalType": "uint256",
          "name": "",
          "type": "uint256"
        }
      ],
      "stateMutability": "nonpayable",
      "type": "function"
    },
    {
      "inputs": [
        {
          "internalType": "uint256",
          "name": "_grandPrize",
          "type": "uint256"
        },
        {
          "internalType": "uint256",
          "name": "_boardSize",
          "type": "uint256"
        },
        {
          "internalType": "uint256",
          "name": "_numberOfShips",
          "type": "uint256"
        }
      ],
      "name": "createGame",
      "outputs": [],
      "stateMutability": "nonpayable",
      "type": "function"
    }
  ],
  "bytecode": "0x60806040526000600155600060025534801561001a57600080fd5b50610ab98061002a6000396000f3fe608060405234801561001057600080fd5b50600436106100625760003560e01c8063117a5b90146100675780632eccd376146100a2578063c0bd8351146100c0578063c2741521146100de578063c3fe3e28146100fa578063d7c81b5514610123575b600080fd5b610081600480360381019061007c919061084c565b610141565b6040516100999c9b9a999897969594939291906108e4565b60405180910390f35b6100aa61022e565b6040516100b7919061099e565b60405180910390f35b6100c8610234565b6040516100d5919061099e565b60405180910390f35b6100f860048036038101906100f391906109b9565b610252565b005b610102610730565b60405161011a9c9b9a999897969594939291906108e4565b60405180910390f35b61012b61080b565b604051610138919061099e565b60405180910390f35b60006020528060005260406000206000915090508060000154908060010160009054906101000a900473ffffffffffffffffffffffffffffffffffffffff16908060020160009054906101000a900473ffffffffffffffffffffffffffffffffffffffff16908060030154908060040154908060050154908060060154908060070154908060080160009054906101000a900473ffffffffffffffffffffffffffffffffffffffff169080600901549080600a0160009054906101000a900473ffffffffffffffffffffffffffffffffffffffff169080600a0160149054906101000a900460ff1690508c565b60025481565b60006001600081548092919061024990610a3b565b91905055905090565b604051806101800160405280610266610234565b81526020013373ffffffffffffffffffffffffffffffffffffffff168152602001600073ffffffffffffffffffffffffffffffffffffffff168152602001848152602001838152602001828152602001828152602001828152602001600073ffffffffffffffffffffffffffffffffffffffff16815260200160008152602001600073ffffffffffffffffffffffffffffffffffffffff1681526020016001151581525060036000820151816000015560208201518160010160006101000a81548173ffffffffffffffffffffffffffffffffffffffff021916908373ffffffffffffffffffffffffffffffffffffffff16021790555060408201518160020160006101000a81548173ffffffffffffffffffffffffffffffffffffffff021916908373ffffffffffffffffffffffffffffffffffffffff160217905550606082015181600301556080820151816004015560a0820151816005015560c0820151816006015560e082015181600701556101008201518160080160006101000a81548173ffffffffffffffffffffffffffffffffffffffff021916908373ffffffffffffffffffffffffffffffffffffffff160217905550610120820151816009015561014082015181600a0160006101000a81548173ffffffffffffffffffffffffffffffffffffffff021916908373ffffffffffffffffffffffffffffffffffffffff16021790555061016082015181600a0160146101000a81548160ff02191690831515021790555090505060036000806003600001548152602001908152602001600020600082015481600001556001820160009054906101000a900473ffffffffffffffffffffffffffffffffffffffff168160010160006101000a81548173ffffffffffffffffffffffffffffffffffffffff021916908373ffffffffffffffffffffffffffffffffffffffff1602179055506002820160009054906101000a900473ffffffffffffffffffffffffffffffffffffffff168160020160006101000a81548173ffffffffffffffffffffffffffffffffffffffff021916908373ffffffffffffffffffffffffffffffffffffffff16021790555060038201548160030155600482015481600401556005820154816005015560068201548160060155600782015481600701556008820160009054906101000a900473ffffffffffffffffffffffffffffffffffffffff168160080160006101000a81548173ffffffffffffffffffffffffffffffffffffffff021916908373ffffffffffffffffffffffffffffffffffffffff16021790555060098201548160090155600a820160009054906101000a900473ffffffffffffffffffffffffffffffffffffffff1681600a0160006101000a81548173ffffffffffffffffffffffffffffffffffffffff021916908373ffffffffffffffffffffffffffffffffffffffff160217905550600a820160149054906101000a900460ff1681600a0160146101000a81548160ff021916908315150217905550905050600260008154809291906106d390610a3b565b91905055503373ffffffffffffffffffffffffffffffffffffffff167f46b1e4e04a224580cba61e1e80978cf849e0bda6bdbec214b0d9f5810f1207fb600360000154604051610723919061099e565b60405180910390a2505050565b60038060000154908060010160009054906101000a900473ffffffffffffffffffffffffffffffffffffffff16908060020160009054906101000a900473ffffffffffffffffffffffffffffffffffffffff16908060030154908060040154908060050154908060060154908060070154908060080160009054906101000a900473ffffffffffffffffffffffffffffffffffffffff169080600901549080600a0160009054906101000a900473ffffffffffffffffffffffffffffffffffffffff169080600a0160149054906101000a900460ff1690508c565b60015481565b600080fd5b6000819050919050565b61082981610816565b811461083457600080fd5b50565b60008135905061084681610820565b92915050565b60006020828403121561086257610861610811565b5b600061087084828501610837565b91505092915050565b61088281610816565b82525050565b600073ffffffffffffffffffffffffffffffffffffffff82169050919050565b60006108b382610888565b9050919050565b6108c3816108a8565b82525050565b60008115159050919050565b6108de816108c9565b82525050565b6000610180820190506108fa600083018f610879565b610907602083018e6108ba565b610914604083018d6108ba565b610921606083018c610879565b61092e608083018b610879565b61093b60a083018a610879565b61094860c0830189610879565b61095560e0830188610879565b6109636101008301876108ba565b610971610120830186610879565b61097f6101408301856108ba565b61098d6101608301846108d5565b9d9c50505050505050505050505050565b60006020820190506109b36000830184610879565b92915050565b6000806000606084860312156109d2576109d1610811565b5b60006109e086828701610837565b93505060206109f186828701610837565b9250506040610a0286828701610837565b9150509250925092565b7f4e487b7100000000000000000000000000000000000000000000000000000000600052601160045260246000fd5b6000610a4682610816565b91507fffffffffffffffffffffffffffffffffffffffffffffffffffffffffffffffff8203610a7857610a77610a0c565b5b60018201905091905056fea26469706673582212209944e15a5b17a311af02ea7cc3e670a13393552683871d774ef716aba523864f64736f6c63430008130033",
  "immutableReferences": {},
  "source": "// SPDX-License-Identifier: MIT\npragma solidity >=0.8.19 <0.9.0;\n// import \"@openzeppelin/contracts-ethereum-package/contracts/math/SafeMath.sol\";\n\ncontract Battleship {\n  //structure that represent a single game\n  struct Game{\n    uint256 gameId;\n    address player1;\n    address player2;\n    uint256 grandPrize;\n    uint256 boardSize;\n    uint256 numberOfShips;\n    uint256 remainShipsP1;\n    uint256 remainShipsP2;\n    address playerTurn;\n    uint256 penaltyTimeout;\n    address accusedPlayer;\n    bool playable;\n  }\n\n  event returnGameId(address indexed _from, uint256 _gameId);\n\n  //Array of all games present in the blockchain\n  mapping(uint256 => Game) public games;\n  //Game ID generator counter\n  uint256 public gameId=0;\n  //Available games counter\n  uint256 public availableGames=0;\n\n  Game public game;\n\n  constructor() {}\n\n  function getGameId() public returns (uint256) {\n    return gameId++;\n  }\n\n  function createGame(uint256 _grandPrize, uint256 _boardSize, uint256 _numberOfShips) public {\n    game=Game(getGameId(), \n              msg.sender, \n              address(0),\n              _grandPrize,\n              _boardSize,\n              _numberOfShips,\n              _numberOfShips,\n              _numberOfShips,\n              address(0),\n              0,\n              address(0),\n              true);\n    games[game.gameId]=game;\n    availableGames++;\n    emit returnGameId(msg.sender, game.gameId);\n  }\n\n//   function play(uint256 gameId) public returns (uint) {\n//     require(gameId>=0 && gameId<=20);\n\n//     return gameId;\n//   }\n}\n",
  "sourcePath": "/home/nicola/Scrivania/Magistrale/P2P and Blockchains/Battleship-ETH/battleship/contracts/Battleship.sol",
  "compiler": {
    "name": "solc",
    "version": "0.8.19+commit.7dd6d404.Emscripten.clang"
  },
  "schemaVersion": "3.4.13",
  "updatedAt": "2023-06-23T19:32:46.599Z",
  "networkType": "ethereum",
  "devdoc": {
    "kind": "dev",
    "methods": {},
    "version": 1
  },
  "userdoc": {
    "kind": "user",
    "methods": {},
    "version": 1
  }
}