{
  "contractName": "Battleship",
  "abi": [
    {
      "inputs": [],
      "stateMutability": "nonpayable",
      "type": "constructor"
    },
    {
      "anonymous": false,
      "inputs": [
        {
          "indexed": false,
          "internalType": "uint256",
          "name": "_gameId",
          "type": "uint256"
        },
        {
          "indexed": true,
          "internalType": "address",
          "name": "_accuser",
          "type": "address"
        },
        {
          "indexed": true,
          "internalType": "address",
          "name": "_accused",
          "type": "address"
        }
      ],
      "name": "accusationTrial",
      "type": "event"
    },
    {
      "anonymous": false,
      "inputs": [
        {
          "indexed": false,
          "internalType": "uint256",
          "name": "_gameId",
          "type": "uint256"
        },
        {
          "indexed": true,
          "internalType": "address",
          "name": "_from",
          "type": "address"
        }
      ],
      "name": "gameCreated",
      "type": "event"
    },
    {
      "anonymous": false,
      "inputs": [
        {
          "indexed": false,
          "internalType": "uint256",
          "name": "_gameId",
          "type": "uint256"
        },
        {
          "indexed": true,
          "internalType": "address",
          "name": "_winner",
          "type": "address"
        },
        {
          "indexed": true,
          "internalType": "address",
          "name": "_looser",
          "type": "address"
        }
      ],
      "name": "gameEnded",
      "type": "event"
    },
    {
      "anonymous": false,
      "inputs": [
        {
          "indexed": false,
          "internalType": "uint256",
          "name": "_gameId",
          "type": "uint256"
        },
        {
          "indexed": false,
          "internalType": "uint256",
          "name": "_boardSize",
          "type": "uint256"
        },
        {
          "indexed": false,
          "internalType": "uint256",
          "name": "_grandPrize",
          "type": "uint256"
        }
      ],
      "name": "gameInfo",
      "type": "event"
    },
    {
      "anonymous": false,
      "inputs": [
        {
          "indexed": false,
          "internalType": "uint256",
          "name": "_gameId",
          "type": "uint256"
        },
        {
          "indexed": true,
          "internalType": "address",
          "name": "_from",
          "type": "address"
        }
      ],
      "name": "gameJoined",
      "type": "event"
    },
    {
      "anonymous": false,
      "inputs": [
        {
          "indexed": false,
          "internalType": "uint256",
          "name": "_gameId",
          "type": "uint256"
        },
        {
          "indexed": false,
          "internalType": "address",
          "name": "_playerTurn",
          "type": "address"
        },
        {
          "indexed": false,
          "internalType": "bytes32",
          "name": "_merkleRoot",
          "type": "bytes32"
        }
      ],
      "name": "gameReady",
      "type": "event"
    },
    {
      "anonymous": false,
      "inputs": [
        {
          "indexed": false,
          "internalType": "uint256",
          "name": "_gameId",
          "type": "uint256"
        },
        {
          "indexed": true,
          "internalType": "address",
          "name": "_player",
          "type": "address"
        },
        {
          "indexed": false,
          "internalType": "uint256",
          "name": "_shotSquareId",
          "type": "uint256"
        }
      ],
      "name": "shotEvent",
      "type": "event"
    },
    {
      "anonymous": false,
      "inputs": [
        {
          "indexed": false,
          "internalType": "uint256",
          "name": "_gameId",
          "type": "uint256"
        },
        {
          "indexed": true,
          "internalType": "address",
          "name": "_player",
          "type": "address"
        },
        {
          "indexed": false,
          "internalType": "uint256",
          "name": "_shotResult",
          "type": "uint256"
        },
        {
          "indexed": false,
          "internalType": "uint256",
          "name": "_shotSquareId",
          "type": "uint256"
        }
      ],
      "name": "shotResultEvent",
      "type": "event"
    },
    {
      "inputs": [
        {
          "internalType": "uint256",
          "name": "",
          "type": "uint256"
        }
      ],
      "name": "availableGames",
      "outputs": [
        {
          "internalType": "uint256",
          "name": "",
          "type": "uint256"
        }
      ],
      "stateMutability": "view",
      "type": "function",
      "constant": true
    },
    {
      "inputs": [],
      "name": "gameId",
      "outputs": [
        {
          "internalType": "uint256",
          "name": "",
          "type": "uint256"
        }
      ],
      "stateMutability": "view",
      "type": "function",
      "constant": true
    },
    {
      "inputs": [
        {
          "internalType": "uint256",
          "name": "",
          "type": "uint256"
        }
      ],
      "name": "games",
      "outputs": [
        {
          "internalType": "uint256",
          "name": "gameId",
          "type": "uint256"
        },
        {
          "internalType": "address",
          "name": "player1",
          "type": "address"
        },
        {
          "internalType": "address",
          "name": "player2",
          "type": "address"
        },
        {
          "internalType": "uint256",
          "name": "grandPrize",
          "type": "uint256"
        },
        {
          "internalType": "uint256",
          "name": "boardSize",
          "type": "uint256"
        },
        {
          "internalType": "uint256",
          "name": "remainShipsP1",
          "type": "uint256"
        },
        {
          "internalType": "uint256",
          "name": "remainShipsP2",
          "type": "uint256"
        },
        {
          "internalType": "bytes32",
          "name": "p1MerkleRoot",
          "type": "bytes32"
        },
        {
          "internalType": "bytes32",
          "name": "p2MerkleRoot",
          "type": "bytes32"
        },
        {
          "internalType": "uint256",
          "name": "penaltyTimeout",
          "type": "uint256"
        },
        {
          "internalType": "address",
          "name": "accusedPlayer",
          "type": "address"
        },
        {
          "internalType": "bool",
          "name": "playable",
          "type": "bool"
        }
      ],
      "stateMutability": "view",
      "type": "function",
      "constant": true
    },
    {
      "inputs": [],
      "name": "totalGames",
      "outputs": [
        {
          "internalType": "uint256",
          "name": "",
          "type": "uint256"
        }
      ],
      "stateMutability": "view",
      "type": "function",
      "constant": true
    },
    {
      "inputs": [],
      "name": "getGameId",
      "outputs": [
        {
          "internalType": "uint256",
          "name": "",
          "type": "uint256"
        }
      ],
      "stateMutability": "nonpayable",
      "type": "function"
    },
    {
      "inputs": [
        {
          "internalType": "uint256",
          "name": "_grandPrize",
          "type": "uint256"
        },
        {
          "internalType": "uint256",
          "name": "_boardSize",
          "type": "uint256"
        }
      ],
      "name": "createGame",
      "outputs": [],
      "stateMutability": "nonpayable",
      "type": "function"
    },
    {
      "inputs": [
        {
          "internalType": "uint256",
          "name": "_gameId",
          "type": "uint256"
        }
      ],
      "name": "joinGameByGameId",
      "outputs": [],
      "stateMutability": "nonpayable",
      "type": "function"
    },
    {
      "inputs": [],
      "name": "joinRandomGame",
      "outputs": [],
      "stateMutability": "nonpayable",
      "type": "function"
    },
    {
      "inputs": [
        {
          "internalType": "uint256",
          "name": "_gameId",
          "type": "uint256"
        }
      ],
      "name": "setOpponent",
      "outputs": [],
      "stateMutability": "nonpayable",
      "type": "function"
    },
    {
      "inputs": [
        {
          "internalType": "uint256",
          "name": "_gameId",
          "type": "uint256"
        },
        {
          "internalType": "bytes32",
          "name": "_merkleRoot",
          "type": "bytes32"
        }
      ],
      "name": "setMerkleRoot",
      "outputs": [],
      "stateMutability": "nonpayable",
      "type": "function"
    },
    {
      "inputs": [
        {
          "internalType": "uint256",
          "name": "_gameId",
          "type": "uint256"
        },
        {
          "internalType": "uint256",
          "name": "_shotSquareId",
          "type": "uint256"
        }
      ],
      "name": "shot",
      "outputs": [],
      "stateMutability": "nonpayable",
      "type": "function"
    },
    {
      "inputs": [
        {
          "internalType": "uint256",
          "name": "_gameId",
          "type": "uint256"
        },
        {
          "internalType": "uint256",
          "name": "_shotResult",
          "type": "uint256"
        },
        {
          "internalType": "uint256",
          "name": "_shotSquareId",
          "type": "uint256"
        },
        {
          "internalType": "bytes32[]",
          "name": "_merkleProof",
          "type": "bytes32[]"
        },
        {
          "internalType": "bytes32",
          "name": "_merkleRoot",
          "type": "bytes32"
        }
      ],
      "name": "shotResult",
      "outputs": [],
      "stateMutability": "nonpayable",
      "type": "function"
    }
  ],
  "bytecode": "0x608060405260018055600060035534801561001957600080fd5b50611cbb806100296000396000f3fe608060405234801561001057600080fd5b50600436106100b45760003560e01c80639966cc83116100715780639966cc83146101705780639decd17c146101a0578063b4b93d8f146101bc578063c0bd8351146101d8578063d7c81b55146101f6578063ebd5300514610214576100b4565b806306a51e4b146100b9578063117a5b90146100d557806318712c21146101105780632c4e591b1461012c578063342ca1841461014a57806360104cef14610154575b600080fd5b6100d360048036038101906100ce9190611570565b610230565b005b6100ef60048036038101906100ea9190611607565b6104aa565b6040516101079c9b9a999897969594939291906116ae565b60405180910390f35b61012a60048036038101906101259190611768565b610577565b005b61013461073a565b60405161014191906117a8565b60405180910390f35b610152610740565b005b61016e600480360381019061016991906117c3565b610a02565b005b61018a60048036038101906101859190611607565b610cae565b60405161019791906117a8565b60405180910390f35b6101ba60048036038101906101b59190611607565b610cd2565b005b6101d660048036038101906101d19190611607565b610f62565b005b6101e061106d565b6040516101ed91906117a8565b60405180910390f35b6101fe61108b565b60405161020b91906117a8565b60405180910390f35b61022e600480360381019061022991906117c3565b611091565b005b60008511610273576040517f08c379a000000000000000000000000000000000000000000000000000000000815260040161026a90611860565b60405180910390fd5b600080600087815260200190815260200160002060405180610180016040529081600082015481526020016001820160009054906101000a900473ffffffffffffffffffffffffffffffffffffffff1673ffffffffffffffffffffffffffffffffffffffff1673ffffffffffffffffffffffffffffffffffffffff1681526020016002820160009054906101000a900473ffffffffffffffffffffffffffffffffffffffff1673ffffffffffffffffffffffffffffffffffffffff1673ffffffffffffffffffffffffffffffffffffffff16815260200160038201548152602001600482015481526020016005820154815260200160068201548152602001600782015481526020016008820154815260200160098201548152602001600a820160009054906101000a900473ffffffffffffffffffffffffffffffffffffffff1673ffffffffffffffffffffffffffffffffffffffff1673ffffffffffffffffffffffffffffffffffffffff168152602001600a820160149054906101000a900460ff16151515158152505090506000816020015173ffffffffffffffffffffffffffffffffffffffff163373ffffffffffffffffffffffffffffffffffffffff1603610447578160400151905061044f565b816020015190505b8073ffffffffffffffffffffffffffffffffffffffff167f2aff2873bfc15a61262c1024b5e20060a2ad765cbed8e1aa3be6c09c4d6fe6c088888860405161049993929190611880565b60405180910390a250505050505050565b60006020528060005260406000206000915090508060000154908060010160009054906101000a900473ffffffffffffffffffffffffffffffffffffffff16908060020160009054906101000a900473ffffffffffffffffffffffffffffffffffffffff169080600301549080600401549080600501549080600601549080600701549080600801549080600901549080600a0160009054906101000a900473ffffffffffffffffffffffffffffffffffffffff169080600a0160149054906101000a900460ff1690508c565b600082116105ba576040517f08c379a00000000000000000000000000000000000000000000000000000000081526004016105b190611860565b60405180910390fd5b600080600084815260200190815260200160002090508060010160009054906101000a900473ffffffffffffffffffffffffffffffffffffffff1673ffffffffffffffffffffffffffffffffffffffff163373ffffffffffffffffffffffffffffffffffffffff1603610635578181600701819055506106d6565b8060020160009054906101000a900473ffffffffffffffffffffffffffffffffffffffff1673ffffffffffffffffffffffffffffffffffffffff163373ffffffffffffffffffffffffffffffffffffffff160361069a578181600801819055506106d5565b6040517f08c379a00000000000000000000000000000000000000000000000000000000081526004016106cc90611903565b60405180910390fd5b5b7f722c75719fed076222182754cdd8a13272205c331dd855e73395c54aad3c2fdc838260010160009054906101000a900473ffffffffffffffffffffffffffffffffffffffff168460405161072d93929190611923565b60405180910390a1505050565b60035481565b600061074a61134d565b905060005b6000600283815481106107655761076461195a565b5b906000526020600020015414801561077d5750600a81105b1561079f5761078a61134d565b91508080610797906119b8565b91505061074f565b600a81106107e2576040517f08c379a00000000000000000000000000000000000000000000000000000000081526004016107d990611a4c565b60405180910390fd5b600080600084815260200190815260200160002060405180610180016040529081600082015481526020016001820160009054906101000a900473ffffffffffffffffffffffffffffffffffffffff1673ffffffffffffffffffffffffffffffffffffffff1673ffffffffffffffffffffffffffffffffffffffff1681526020016002820160009054906101000a900473ffffffffffffffffffffffffffffffffffffffff1673ffffffffffffffffffffffffffffffffffffffff1673ffffffffffffffffffffffffffffffffffffffff16815260200160038201548152602001600482015481526020016005820154815260200160068201548152602001600782015481526020016008820154815260200160098201548152602001600a820160009054906101000a900473ffffffffffffffffffffffffffffffffffffffff1673ffffffffffffffffffffffffffffffffffffffff1673ffffffffffffffffffffffffffffffffffffffff168152602001600a820160149054906101000a900460ff16151515158152505090508061016001516109b6576040517f08c379a00000000000000000000000000000000000000000000000000000000081526004016109ad90611a4c565b60405180910390fd5b7f2e228c4005eb8318a1e40880fd973e87e2c0346ce6d45fe3ecbde9297b8328aa8160000151826080015183606001516040516109f593929190611880565b60405180910390a1505050565b6000604051806101800160405280610a1861106d565b81526020013373ffffffffffffffffffffffffffffffffffffffff168152602001600073ffffffffffffffffffffffffffffffffffffffff16815260200184815260200183815260200160058152602001600581526020016000801b81526020016000801b815260200160008152602001600073ffffffffffffffffffffffffffffffffffffffff16815260200160011515815250905080600080836000015181526020019081526020016000206000820151816000015560208201518160010160006101000a81548173ffffffffffffffffffffffffffffffffffffffff021916908373ffffffffffffffffffffffffffffffffffffffff16021790555060408201518160020160006101000a81548173ffffffffffffffffffffffffffffffffffffffff021916908373ffffffffffffffffffffffffffffffffffffffff160217905550606082015181600301556080820151816004015560a0820151816005015560c0820151816006015560e082015181600701556101008201518160080155610120820151816009015561014082015181600a0160006101000a81548173ffffffffffffffffffffffffffffffffffffffff021916908373ffffffffffffffffffffffffffffffffffffffff16021790555061016082015181600a0160146101000a81548160ff02191690831515021790555090505060028160000151908060018154018082558091505060019003906000526020600020016000909190919091505560036000815480929190610c52906119b8565b91905055503373ffffffffffffffffffffffffffffffffffffffff167f6819b4a537631fd79a9d2b0f56db1ff2742f0304520484d23f6f356aaebe31f68260000151604051610ca191906117a8565b60405180910390a2505050565b60028181548110610cbe57600080fd5b906000526020600020016000915090505481565b60008060008381526020019081526020016000206000015403610d2a576040517f08c379a0000000000000000000000000000000000000000000000000000000008152600401610d2190611ab8565b60405180910390fd5b600080828152602001908152602001600020600a0160149054906101000a900460ff16610d8c576040517f08c379a0000000000000000000000000000000000000000000000000000000008152600401610d8390611b24565b60405180910390fd5b600080600083815260200190815260200160002060405180610180016040529081600082015481526020016001820160009054906101000a900473ffffffffffffffffffffffffffffffffffffffff1673ffffffffffffffffffffffffffffffffffffffff1673ffffffffffffffffffffffffffffffffffffffff1681526020016002820160009054906101000a900473ffffffffffffffffffffffffffffffffffffffff1673ffffffffffffffffffffffffffffffffffffffff1673ffffffffffffffffffffffffffffffffffffffff16815260200160038201548152602001600482015481526020016005820154815260200160068201548152602001600782015481526020016008820154815260200160098201548152602001600a820160009054906101000a900473ffffffffffffffffffffffffffffffffffffffff1673ffffffffffffffffffffffffffffffffffffffff1673ffffffffffffffffffffffffffffffffffffffff168152602001600a820160149054906101000a900460ff16151515158152505090507f2e228c4005eb8318a1e40880fd973e87e2c0346ce6d45fe3ecbde9297b8328aa8282608001518360600151604051610f5693929190611880565b60405180910390a15050565b60008111610fa5576040517f08c379a0000000000000000000000000000000000000000000000000000000008152600401610f9c90611860565b60405180910390fd5b60008060008381526020019081526020016000209050338160020160006101000a81548173ffffffffffffffffffffffffffffffffffffffff021916908373ffffffffffffffffffffffffffffffffffffffff160217905550600081600a0160146101000a81548160ff0219169083151502179055503373ffffffffffffffffffffffffffffffffffffffff167f082f67f820bd19b8afdb7a254074ae7c54044d730095a591e66f385f31dc242b8360405161106191906117a8565b60405180910390a25050565b600060016000815480929190611082906119b8565b91905055905090565b60015481565b600082116110d4576040517f08c379a00000000000000000000000000000000000000000000000000000000081526004016110cb90611860565b60405180910390fd5b600080600084815260200190815260200160002060405180610180016040529081600082015481526020016001820160009054906101000a900473ffffffffffffffffffffffffffffffffffffffff1673ffffffffffffffffffffffffffffffffffffffff1673ffffffffffffffffffffffffffffffffffffffff1681526020016002820160009054906101000a900473ffffffffffffffffffffffffffffffffffffffff1673ffffffffffffffffffffffffffffffffffffffff1673ffffffffffffffffffffffffffffffffffffffff16815260200160038201548152602001600482015481526020016005820154815260200160068201548152602001600782015481526020016008820154815260200160098201548152602001600a820160009054906101000a900473ffffffffffffffffffffffffffffffffffffffff1673ffffffffffffffffffffffffffffffffffffffff1673ffffffffffffffffffffffffffffffffffffffff168152602001600a820160149054906101000a900460ff1615151515815250509050806020015173ffffffffffffffffffffffffffffffffffffffff163373ffffffffffffffffffffffffffffffffffffffff16036112f357806040015173ffffffffffffffffffffffffffffffffffffffff167f5a714ed4c14d94c7c78bb2d603a46d32343bdd52ae763cf1ec34ca2f64d4c46a84846040516112e6929190611b44565b60405180910390a2611348565b806020015173ffffffffffffffffffffffffffffffffffffffff167f5a714ed4c14d94c7c78bb2d603a46d32343bdd52ae763cf1ec34ca2f64d4c46a848460405161133f929190611b44565b60405180910390a25b505050565b60008060028054905042444160405160200161136b93929190611be8565b6040516020818303038152906040528051906020012060001c61138e9190611c54565b90508091505090565b6000604051905090565b600080fd5b600080fd5b6000819050919050565b6113be816113ab565b81146113c957600080fd5b50565b6000813590506113db816113b5565b92915050565b600080fd5b6000601f19601f8301169050919050565b7f4e487b7100000000000000000000000000000000000000000000000000000000600052604160045260246000fd5b61142f826113e6565b810181811067ffffffffffffffff8211171561144e5761144d6113f7565b5b80604052505050565b6000611461611397565b905061146d8282611426565b919050565b600067ffffffffffffffff82111561148d5761148c6113f7565b5b602082029050602081019050919050565b600080fd5b6000819050919050565b6114b6816114a3565b81146114c157600080fd5b50565b6000813590506114d3816114ad565b92915050565b60006114ec6114e784611472565b611457565b9050808382526020820190506020840283018581111561150f5761150e61149e565b5b835b81811015611538578061152488826114c4565b845260208401935050602081019050611511565b5050509392505050565b600082601f830112611557576115566113e1565b5b81356115678482602086016114d9565b91505092915050565b600080600080600060a0868803121561158c5761158b6113a1565b5b600061159a888289016113cc565b95505060206115ab888289016113cc565b94505060406115bc888289016113cc565b935050606086013567ffffffffffffffff8111156115dd576115dc6113a6565b5b6115e988828901611542565b92505060806115fa888289016114c4565b9150509295509295909350565b60006020828403121561161d5761161c6113a1565b5b600061162b848285016113cc565b91505092915050565b61163d816113ab565b82525050565b600073ffffffffffffffffffffffffffffffffffffffff82169050919050565b600061166e82611643565b9050919050565b61167e81611663565b82525050565b61168d816114a3565b82525050565b60008115159050919050565b6116a881611693565b82525050565b6000610180820190506116c4600083018f611634565b6116d1602083018e611675565b6116de604083018d611675565b6116eb606083018c611634565b6116f8608083018b611634565b61170560a083018a611634565b61171260c0830189611634565b61171f60e0830188611684565b61172d610100830187611684565b61173b610120830186611634565b611749610140830185611675565b61175761016083018461169f565b9d9c50505050505050505050505050565b6000806040838503121561177f5761177e6113a1565b5b600061178d858286016113cc565b925050602061179e858286016114c4565b9150509250929050565b60006020820190506117bd6000830184611634565b92915050565b600080604083850312156117da576117d96113a1565b5b60006117e8858286016113cc565b92505060206117f9858286016113cc565b9150509250929050565b600082825260208201905092915050565b7f47616d65206964206973206e6567617469766521000000000000000000000000600082015250565b600061184a601483611803565b915061185582611814565b602082019050919050565b600060208201905081810360008301526118798161183d565b9050919050565b60006060820190506118956000830186611634565b6118a26020830185611634565b6118af6040830184611634565b949350505050565b7f506c617965722061646472657373206973206e6f742076616c69640000000000600082015250565b60006118ed601b83611803565b91506118f8826118b7565b602082019050919050565b6000602082019050818103600083015261191c816118e0565b9050919050565b60006060820190506119386000830186611634565b6119456020830185611675565b6119526040830184611684565b949350505050565b7f4e487b7100000000000000000000000000000000000000000000000000000000600052603260045260246000fd5b7f4e487b7100000000000000000000000000000000000000000000000000000000600052601160045260246000fd5b60006119c3826113ab565b91507fffffffffffffffffffffffffffffffffffffffffffffffffffffffffffffffff82036119f5576119f4611989565b5b600182019050919050565b7f536f6d657468696e6720676f65732077726f6e672c2074727920616761696e21600082015250565b6000611a36602083611803565b9150611a4182611a00565b602082019050919050565b60006020820190508181036000830152611a6581611a29565b9050919050565b7f4e6f206578697374696e672067616d6520776974682074686973204944000000600082015250565b6000611aa2601d83611803565b9150611aad82611a6c565b602082019050919050565b60006020820190508181036000830152611ad181611a95565b9050919050565b7f53656c65637465642067616d65206973206e6f7420706c617961626c65000000600082015250565b6000611b0e601d83611803565b9150611b1982611ad8565b602082019050919050565b60006020820190508181036000830152611b3d81611b01565b9050919050565b6000604082019050611b596000830185611634565b611b666020830184611634565b9392505050565b6000819050919050565b611b88611b83826113ab565b611b6d565b82525050565b6000611b9982611643565b9050919050565b60008160601b9050919050565b6000611bb882611ba0565b9050919050565b6000611bca82611bad565b9050919050565b611be2611bdd82611b8e565b611bbf565b82525050565b6000611bf48286611b77565b602082019150611c048285611b77565b602082019150611c148284611bd1565b601482019150819050949350505050565b7f4e487b7100000000000000000000000000000000000000000000000000000000600052601260045260246000fd5b6000611c5f826113ab565b9150611c6a836113ab565b925082611c7a57611c79611c25565b5b82820690509291505056fea2646970667358221220d0faff950788959aa1250e1c9448bd90a4991bbbc41d4bff32ef4858f3b8060e64736f6c63430008130033",
  "immutableReferences": {},
  "source": "// SPDX-License-Identifier: MIT\npragma solidity >=0.8.19 <0.9.0;\n// import \"@openzeppelin/contracts-ethereum-package/contracts/math/SafeMath.sol\";\n\ncontract Battleship {\n  //structure that represent a single game\n  struct Game{\n    uint256 gameId;\n    address player1;\n    address player2;\n    uint256 grandPrize;\n    uint256 boardSize;\n    uint256 remainShipsP1;\n    uint256 remainShipsP2;\n    bytes32 p1MerkleRoot;\n    bytes32 p2MerkleRoot;\n    uint256 penaltyTimeout;\n    address accusedPlayer;\n    bool playable;\n  }\n\n  event gameCreated(uint256 _gameId, address indexed _from);\n  event gameJoined(uint256 _gameId, address indexed _from);\n  event gameReady(uint256 _gameId, address _playerTurn, bytes32 _merkleRoot);\n  event gameInfo(uint256 _gameId, uint256 _boardSize, uint256 _grandPrize);\n  event gameEnded(uint256 _gameId, address indexed _winner, address indexed _looser);\n  event shotEvent(uint256 _gameId, address indexed _player, uint256 _shotSquareId);\n  event shotResultEvent(uint256 _gameId, address indexed _player, uint256 _shotResult, uint256 _shotSquareId);\n  event accusationTrial(uint256 _gameId, address indexed _accuser, address indexed _accused);\n\n  //Array of all games present in the blockchain\n  mapping(uint256 => Game) public games;\n  //Game ID generator counter\n  uint256 public gameId=1;\n  //Available games array\n  uint256[] public availableGames;\n\n  uint256 public totalGames=0;\n\n  constructor() {}\n\n  function getGameId() public returns (uint256) {\n    return gameId++;\n  }\n\n  function createGame(uint256 _grandPrize, uint256 _boardSize) public {\n    Game memory game=Game(getGameId(), \n              msg.sender, \n              address(0),\n              _grandPrize,\n              _boardSize,\n              5,\n              5,\n              0,\n              0,\n              0,\n              address(0),\n              true);\n    games[game.gameId]=game;\n    availableGames.push(game.gameId);\n    totalGames++;\n    emit gameCreated(game.gameId, msg.sender);\n  }\n\n  function joinGameByGameId(uint256 _gameId) public {\n    require(games[_gameId].gameId != 0, \"No existing game with this ID\");\n    require(games[_gameId].playable, \"Selected game is not playable\");\n      \n    Game memory game=games[_gameId];\n    emit gameInfo(_gameId, game.boardSize, game.grandPrize);\n  }\n\n  function joinRandomGame() public {\n    uint256 index=random();\n    uint256 i=0;\n    while(availableGames[index]==0 && i<10){\n      index=random();\n      i++;\n    }\n\n    require(i < 10, \"Something goes wrong, try again!\");\n\n    Game memory game=games[index];\n    require(game.playable, \"Something goes wrong, try again!\");\n    emit gameInfo(game.gameId, game.boardSize, game.grandPrize);\n  }\n\n  function setOpponent(uint256 _gameId) public{\n    require(_gameId > 0, \"Game id is negative!\");\n    Game storage game=games[_gameId];\n\n    game.player2=msg.sender;\n    game.playable=false;\n    emit gameJoined(_gameId, msg.sender);\n  }\n\n  function setMerkleRoot(uint256 _gameId, bytes32 _merkleRoot) public{\n    require(_gameId > 0, \"Game id is negative!\");\n    Game storage game=games[_gameId];\n\n    if(msg.sender==game.player1){\n      game.p1MerkleRoot=_merkleRoot;\n    } else if(msg.sender==game.player2) {\n      game.p2MerkleRoot=_merkleRoot;\n    } else {\n      revert(\"Player address is not valid\");\n    }\n\n    emit gameReady(_gameId, game.player1, _merkleRoot);\n  }\n\n  function shot(uint256 _gameId, uint256 _shotSquareId) public{\n    require(_gameId > 0, \"Game id is negative!\");\n\n    Game memory game=games[_gameId];\n    if(msg.sender==game.player1)\n      emit shotEvent(_gameId, game.player2, _shotSquareId);\n    else\n      emit shotEvent(_gameId, game.player1, _shotSquareId);\n  }\n\n  function shotResult(uint256 _gameId, uint256 _shotResult, uint256 _shotSquareId, bytes32[] memory _merkleProof, bytes32 _merkleRoot) public {\n    require(_gameId > 0, \"Game id is negative!\");\n\n    Game memory game=games[_gameId];\n    address shoter;\n    if(msg.sender==game.player1){\n      shoter=game.player2;\n    } else {\n      shoter=game.player1;\n    }\n\n    emit shotResultEvent(_gameId, shoter, _shotResult, _shotSquareId);\n  }\n\n  function deleteElementFromArray(uint256 _element) internal {\n    for (uint256 i = 0; i < availableGames.length; i++) {\n        if (availableGames[i] == _element) {\n            if (i != availableGames.length - 1) {\n                availableGames[i] = availableGames[availableGames.length - 1];\n            }\n            availableGames.pop();\n            break;\n        }\n    }\n  }\n\n  function random() internal view returns (uint256) {\n    uint256 randomnumber = uint256(keccak256(abi.encodePacked(block.timestamp, block.prevrandao, block.coinbase))) % availableGames.length;\n    return randomnumber;\n  }\n}\n",
  "sourcePath": "/home/nicola/Scrivania/Magistrale/P2P and Blockchains/Battleship-ETH/battleship/contracts/Battleship.sol",
  "compiler": {
    "name": "solc",
    "version": "0.8.19+commit.7dd6d404.Emscripten.clang"
  },
  "schemaVersion": "3.4.13",
  "updatedAt": "2023-07-19T10:07:26.189Z",
  "networkType": "ethereum",
  "devdoc": {
    "kind": "dev",
    "methods": {},
    "version": 1
  },
  "userdoc": {
    "kind": "user",
    "methods": {},
    "version": 1
  }
}