{
  "contractName": "Battleship",
  "abi": [
    {
      "inputs": [],
      "stateMutability": "nonpayable",
      "type": "constructor"
    },
    {
      "inputs": [
        {
          "internalType": "string",
          "name": "_message",
          "type": "string"
        }
      ],
      "name": "eventError",
      "type": "error"
    },
    {
      "anonymous": false,
      "inputs": [
        {
          "indexed": false,
          "internalType": "uint256",
          "name": "_gameId",
          "type": "uint256"
        },
        {
          "indexed": true,
          "internalType": "address",
          "name": "_accuser",
          "type": "address"
        },
        {
          "indexed": true,
          "internalType": "address",
          "name": "_accused",
          "type": "address"
        }
      ],
      "name": "accusationTrial",
      "type": "event"
    },
    {
      "anonymous": false,
      "inputs": [
        {
          "indexed": false,
          "internalType": "uint256",
          "name": "_gameId",
          "type": "uint256"
        },
        {
          "indexed": true,
          "internalType": "address",
          "name": "_winner",
          "type": "address"
        },
        {
          "indexed": true,
          "internalType": "address",
          "name": "_looser",
          "type": "address"
        }
      ],
      "name": "gameEnded",
      "type": "event"
    },
    {
      "anonymous": false,
      "inputs": [
        {
          "indexed": false,
          "internalType": "uint256",
          "name": "_gameId",
          "type": "uint256"
        },
        {
          "indexed": true,
          "internalType": "address",
          "name": "_player1",
          "type": "address"
        },
        {
          "indexed": true,
          "internalType": "address",
          "name": "_player2",
          "type": "address"
        },
        {
          "indexed": false,
          "internalType": "uint256",
          "name": "_startTime",
          "type": "uint256"
        }
      ],
      "name": "gameReady",
      "type": "event"
    },
    {
      "anonymous": false,
      "inputs": [
        {
          "indexed": false,
          "internalType": "uint256",
          "name": "_gameId",
          "type": "uint256"
        },
        {
          "indexed": true,
          "internalType": "address",
          "name": "_player1",
          "type": "address"
        },
        {
          "indexed": true,
          "internalType": "address",
          "name": "_player2",
          "type": "address"
        },
        {
          "indexed": false,
          "internalType": "uint256",
          "name": "_grandPrize",
          "type": "uint256"
        }
      ],
      "name": "gameStarted",
      "type": "event"
    },
    {
      "anonymous": false,
      "inputs": [
        {
          "indexed": true,
          "internalType": "address",
          "name": "_from",
          "type": "address"
        },
        {
          "indexed": false,
          "internalType": "uint256",
          "name": "_gameId",
          "type": "uint256"
        }
      ],
      "name": "returnGameId",
      "type": "event"
    },
    {
      "inputs": [],
      "name": "START_TIME",
      "outputs": [
        {
          "internalType": "uint256",
          "name": "",
          "type": "uint256"
        }
      ],
      "stateMutability": "view",
      "type": "function",
      "constant": true
    },
    {
      "inputs": [
        {
          "internalType": "uint256",
          "name": "",
          "type": "uint256"
        }
      ],
      "name": "availableGames",
      "outputs": [
        {
          "internalType": "uint256",
          "name": "",
          "type": "uint256"
        }
      ],
      "stateMutability": "view",
      "type": "function",
      "constant": true
    },
    {
      "inputs": [],
      "name": "game",
      "outputs": [
        {
          "internalType": "uint256",
          "name": "gameId",
          "type": "uint256"
        },
        {
          "internalType": "address",
          "name": "player1",
          "type": "address"
        },
        {
          "internalType": "address",
          "name": "player2",
          "type": "address"
        },
        {
          "internalType": "uint256",
          "name": "grandPrize",
          "type": "uint256"
        },
        {
          "internalType": "uint256",
          "name": "boardSize",
          "type": "uint256"
        },
        {
          "internalType": "uint256",
          "name": "remainShipsP1",
          "type": "uint256"
        },
        {
          "internalType": "uint256",
          "name": "remainShipsP2",
          "type": "uint256"
        },
        {
          "internalType": "address",
          "name": "playerTurn",
          "type": "address"
        },
        {
          "internalType": "uint256",
          "name": "penaltyTimeout",
          "type": "uint256"
        },
        {
          "internalType": "address",
          "name": "accusedPlayer",
          "type": "address"
        },
        {
          "internalType": "bool",
          "name": "playable",
          "type": "bool"
        }
      ],
      "stateMutability": "view",
      "type": "function",
      "constant": true
    },
    {
      "inputs": [],
      "name": "gameId",
      "outputs": [
        {
          "internalType": "uint256",
          "name": "",
          "type": "uint256"
        }
      ],
      "stateMutability": "view",
      "type": "function",
      "constant": true
    },
    {
      "inputs": [
        {
          "internalType": "uint256",
          "name": "",
          "type": "uint256"
        }
      ],
      "name": "games",
      "outputs": [
        {
          "internalType": "uint256",
          "name": "gameId",
          "type": "uint256"
        },
        {
          "internalType": "address",
          "name": "player1",
          "type": "address"
        },
        {
          "internalType": "address",
          "name": "player2",
          "type": "address"
        },
        {
          "internalType": "uint256",
          "name": "grandPrize",
          "type": "uint256"
        },
        {
          "internalType": "uint256",
          "name": "boardSize",
          "type": "uint256"
        },
        {
          "internalType": "uint256",
          "name": "remainShipsP1",
          "type": "uint256"
        },
        {
          "internalType": "uint256",
          "name": "remainShipsP2",
          "type": "uint256"
        },
        {
          "internalType": "address",
          "name": "playerTurn",
          "type": "address"
        },
        {
          "internalType": "uint256",
          "name": "penaltyTimeout",
          "type": "uint256"
        },
        {
          "internalType": "address",
          "name": "accusedPlayer",
          "type": "address"
        },
        {
          "internalType": "bool",
          "name": "playable",
          "type": "bool"
        }
      ],
      "stateMutability": "view",
      "type": "function",
      "constant": true
    },
    {
      "inputs": [],
      "name": "totalGames",
      "outputs": [
        {
          "internalType": "uint256",
          "name": "",
          "type": "uint256"
        }
      ],
      "stateMutability": "view",
      "type": "function",
      "constant": true
    },
    {
      "inputs": [],
      "name": "getGameId",
      "outputs": [
        {
          "internalType": "uint256",
          "name": "",
          "type": "uint256"
        }
      ],
      "stateMutability": "nonpayable",
      "type": "function"
    },
    {
      "inputs": [
        {
          "internalType": "uint256",
          "name": "_grandPrize",
          "type": "uint256"
        },
        {
          "internalType": "uint256",
          "name": "_boardSize",
          "type": "uint256"
        }
      ],
      "name": "createGame",
      "outputs": [],
      "stateMutability": "nonpayable",
      "type": "function"
    },
    {
      "inputs": [
        {
          "internalType": "uint256",
          "name": "_gameId",
          "type": "uint256"
        }
      ],
      "name": "joinGameByGameId",
      "outputs": [],
      "stateMutability": "nonpayable",
      "type": "function"
    },
    {
      "inputs": [],
      "name": "joinRandomGame",
      "outputs": [],
      "stateMutability": "nonpayable",
      "type": "function"
    }
  ],
  "bytecode": "0x6080604052600180556000600355600f600455600060055534801561002357600080fd5b506116d1806100336000396000f3fe608060405234801561001057600080fd5b506004361061009e5760003560e01c80639decd17c116100665780639decd17c14610151578063c0bd83511461016d578063c3fe3e281461018b578063d7c81b55146101b3578063ddaa26ad146101d15761009e565b8063117a5b90146100a35780632c4e591b146100dd578063342ca184146100fb57806360104cef146101055780639966cc8314610121575b600080fd5b6100bd60048036038101906100b891906111dc565b6101ef565b6040516100d49b9a99989796959493929190611274565b60405180910390f35b6100e56102d6565b6040516100f2919061131f565b60405180910390f35b6101036102dc565b005b61011f600480360381019061011a919061133a565b6106ef565b005b61013b600480360381019061013691906111dc565b610be1565b604051610148919061131f565b60405180910390f35b61016b600480360381019061016691906111dc565b610c05565b005b610175610f75565b604051610182919061131f565b60405180910390f35b610193610f93565b6040516101aa9b9a99989796959493929190611274565b60405180910390f35b6101bb611068565b6040516101c8919061131f565b60405180910390f35b6101d961106e565b6040516101e6919061131f565b60405180910390f35b60006020528060005260406000206000915090508060000154908060010160009054906101000a900473ffffffffffffffffffffffffffffffffffffffff16908060020160009054906101000a900473ffffffffffffffffffffffffffffffffffffffff16908060030154908060040154908060050154908060060154908060070160009054906101000a900473ffffffffffffffffffffffffffffffffffffffff16908060080154908060090160009054906101000a900473ffffffffffffffffffffffffffffffffffffffff16908060090160149054906101000a900460ff1690508b565b60035481565b60006102e6611074565b905060005b6000600283815481106103015761030061137a565b5b90600052602060002001541480156103195750600a81105b1561033b57610326611074565b91508080610333906113d8565b9150506102eb565b600a810361037e576040517f58c16fda0000000000000000000000000000000000000000000000000000000081526004016103759061147d565b60405180910390fd5b6000808381526020019081526020016000206006600082015481600001556001820160009054906101000a900473ffffffffffffffffffffffffffffffffffffffff168160010160006101000a81548173ffffffffffffffffffffffffffffffffffffffff021916908373ffffffffffffffffffffffffffffffffffffffff1602179055506002820160009054906101000a900473ffffffffffffffffffffffffffffffffffffffff168160020160006101000a81548173ffffffffffffffffffffffffffffffffffffffff021916908373ffffffffffffffffffffffffffffffffffffffff160217905550600382015481600301556004820154816004015560058201548160050155600682015481600601556007820160009054906101000a900473ffffffffffffffffffffffffffffffffffffffff168160070160006101000a81548173ffffffffffffffffffffffffffffffffffffffff021916908373ffffffffffffffffffffffffffffffffffffffff160217905550600882015481600801556009820160009054906101000a900473ffffffffffffffffffffffffffffffffffffffff168160090160006101000a81548173ffffffffffffffffffffffffffffffffffffffff021916908373ffffffffffffffffffffffffffffffffffffffff1602179055506009820160149054906101000a900460ff168160090160146101000a81548160ff021916908315150217905550905050600660090160149054906101000a900460ff16156106b05733600660020160006101000a81548173ffffffffffffffffffffffffffffffffffffffff021916908373ffffffffffffffffffffffffffffffffffffffff1602179055506000600660090160146101000a81548160ff02191690831515021790555061061d826110d6565b3373ffffffffffffffffffffffffffffffffffffffff16600660010160009054906101000a900473ffffffffffffffffffffffffffffffffffffffff1673ffffffffffffffffffffffffffffffffffffffff167fbe556bf80b742e14a2f4e42e8e433be5e2e629985e2e20f3d6bd102e04b1d5f6846004546040516106a392919061149d565b60405180910390a36106eb565b6040517f58c16fda0000000000000000000000000000000000000000000000000000000081526004016106e29061147d565b60405180910390fd5b5050565b604051806101600160405280610703610f75565b81526020013373ffffffffffffffffffffffffffffffffffffffff168152602001600073ffffffffffffffffffffffffffffffffffffffff1681526020018381526020018281526020016005815260200160058152602001600073ffffffffffffffffffffffffffffffffffffffff16815260200160008152602001600073ffffffffffffffffffffffffffffffffffffffff1681526020016001151581525060066000820151816000015560208201518160010160006101000a81548173ffffffffffffffffffffffffffffffffffffffff021916908373ffffffffffffffffffffffffffffffffffffffff16021790555060408201518160020160006101000a81548173ffffffffffffffffffffffffffffffffffffffff021916908373ffffffffffffffffffffffffffffffffffffffff160217905550606082015181600301556080820151816004015560a0820151816005015560c0820151816006015560e08201518160070160006101000a81548173ffffffffffffffffffffffffffffffffffffffff021916908373ffffffffffffffffffffffffffffffffffffffff16021790555061010082015181600801556101208201518160090160006101000a81548173ffffffffffffffffffffffffffffffffffffffff021916908373ffffffffffffffffffffffffffffffffffffffff1602179055506101408201518160090160146101000a81548160ff02191690831515021790555090505060066000806006600001548152602001908152602001600020600082015481600001556001820160009054906101000a900473ffffffffffffffffffffffffffffffffffffffff168160010160006101000a81548173ffffffffffffffffffffffffffffffffffffffff021916908373ffffffffffffffffffffffffffffffffffffffff1602179055506002820160009054906101000a900473ffffffffffffffffffffffffffffffffffffffff168160020160006101000a81548173ffffffffffffffffffffffffffffffffffffffff021916908373ffffffffffffffffffffffffffffffffffffffff160217905550600382015481600301556004820154816004015560058201548160050155600682015481600601556007820160009054906101000a900473ffffffffffffffffffffffffffffffffffffffff168160070160006101000a81548173ffffffffffffffffffffffffffffffffffffffff021916908373ffffffffffffffffffffffffffffffffffffffff160217905550600882015481600801556009820160009054906101000a900473ffffffffffffffffffffffffffffffffffffffff168160090160006101000a81548173ffffffffffffffffffffffffffffffffffffffff021916908373ffffffffffffffffffffffffffffffffffffffff1602179055506009820160149054906101000a900460ff168160090160146101000a81548160ff0219169083151502179055509050506002600660000154908060018154018082558091505060019003906000526020600020016000909190919091505560036000815480929190610b85906113d8565b91905055503373ffffffffffffffffffffffffffffffffffffffff167f46b1e4e04a224580cba61e1e80978cf849e0bda6bdbec214b0d9f5810f1207fb600660000154604051610bd5919061131f565b60405180910390a25050565b60028181548110610bf157600080fd5b906000526020600020016000915090505481565b60008060008381526020019081526020016000206000015403610c5d576040517f58c16fda000000000000000000000000000000000000000000000000000000008152600401610c5490611512565b60405180910390fd5b6000808281526020019081526020016000206006600082015481600001556001820160009054906101000a900473ffffffffffffffffffffffffffffffffffffffff168160010160006101000a81548173ffffffffffffffffffffffffffffffffffffffff021916908373ffffffffffffffffffffffffffffffffffffffff1602179055506002820160009054906101000a900473ffffffffffffffffffffffffffffffffffffffff168160020160006101000a81548173ffffffffffffffffffffffffffffffffffffffff021916908373ffffffffffffffffffffffffffffffffffffffff160217905550600382015481600301556004820154816004015560058201548160050155600682015481600601556007820160009054906101000a900473ffffffffffffffffffffffffffffffffffffffff168160070160006101000a81548173ffffffffffffffffffffffffffffffffffffffff021916908373ffffffffffffffffffffffffffffffffffffffff160217905550600882015481600801556009820160009054906101000a900473ffffffffffffffffffffffffffffffffffffffff168160090160006101000a81548173ffffffffffffffffffffffffffffffffffffffff021916908373ffffffffffffffffffffffffffffffffffffffff1602179055506009820160149054906101000a900460ff168160090160146101000a81548160ff02191690831515021790555090505033600660020160006101000a81548173ffffffffffffffffffffffffffffffffffffffff021916908373ffffffffffffffffffffffffffffffffffffffff1602179055506000600660090160146101000a81548160ff021916908315150217905550610ee4816110d6565b3373ffffffffffffffffffffffffffffffffffffffff16600660010160009054906101000a900473ffffffffffffffffffffffffffffffffffffffff1673ffffffffffffffffffffffffffffffffffffffff167fbe556bf80b742e14a2f4e42e8e433be5e2e629985e2e20f3d6bd102e04b1d5f683600454604051610f6a92919061149d565b60405180910390a350565b600060016000815480929190610f8a906113d8565b91905055905090565b60068060000154908060010160009054906101000a900473ffffffffffffffffffffffffffffffffffffffff16908060020160009054906101000a900473ffffffffffffffffffffffffffffffffffffffff16908060030154908060040154908060050154908060060154908060070160009054906101000a900473ffffffffffffffffffffffffffffffffffffffff16908060080154908060090160009054906101000a900473ffffffffffffffffffffffffffffffffffffffff16908060090160149054906101000a900460ff1690508b565b60015481565b60045481565b6000806002805490504244336040516020016110929392919061159b565b6040516020818303038152906040528051906020012060001c6110b59190611607565b9050600560008154809291906110ca906113d8565b91905055508091505090565b60005b60028054905081101561119d5781600282815481106110fb576110fa61137a565b5b90600052602060002001540361118a576002600160028054905061111f9190611638565b815481106111305761112f61137a565b5b90600052602060002001546002828154811061114f5761114e61137a565b5b9060005260206000200181905550600280548061116f5761116e61166c565b5b6001900381819060005260206000200160009055905561119d565b8080611195906113d8565b9150506110d9565b5050565b600080fd5b6000819050919050565b6111b9816111a6565b81146111c457600080fd5b50565b6000813590506111d6816111b0565b92915050565b6000602082840312156111f2576111f16111a1565b5b6000611200848285016111c7565b91505092915050565b611212816111a6565b82525050565b600073ffffffffffffffffffffffffffffffffffffffff82169050919050565b600061124382611218565b9050919050565b61125381611238565b82525050565b60008115159050919050565b61126e81611259565b82525050565b60006101608201905061128a600083018e611209565b611297602083018d61124a565b6112a4604083018c61124a565b6112b1606083018b611209565b6112be608083018a611209565b6112cb60a0830189611209565b6112d860c0830188611209565b6112e560e083018761124a565b6112f3610100830186611209565b61130161012083018561124a565b61130f610140830184611265565b9c9b505050505050505050505050565b60006020820190506113346000830184611209565b92915050565b60008060408385031215611351576113506111a1565b5b600061135f858286016111c7565b9250506020611370858286016111c7565b9150509250929050565b7f4e487b7100000000000000000000000000000000000000000000000000000000600052603260045260246000fd5b7f4e487b7100000000000000000000000000000000000000000000000000000000600052601160045260246000fd5b60006113e3826111a6565b91507fffffffffffffffffffffffffffffffffffffffffffffffffffffffffffffffff8203611415576114146113a9565b5b600182019050919050565b600082825260208201905092915050565b7f536f6d657468696e6720676f65732077726f6e672c2074727920616761696e21600082015250565b6000611467602083611420565b915061147282611431565b602082019050919050565b600060208201905081810360008301526114968161145a565b9050919050565b60006040820190506114b26000830185611209565b6114bf6020830184611209565b9392505050565b7f4e6f206578697374696e672067616d6520776974682074686973204944200000600082015250565b60006114fc601e83611420565b9150611507826114c6565b602082019050919050565b6000602082019050818103600083015261152b816114ef565b9050919050565b6000819050919050565b61154d611548826111a6565b611532565b82525050565b60008160601b9050919050565b600061156b82611553565b9050919050565b600061157d82611560565b9050919050565b61159561159082611238565b611572565b82525050565b60006115a7828661153c565b6020820191506115b7828561153c565b6020820191506115c78284611584565b601482019150819050949350505050565b7f4e487b7100000000000000000000000000000000000000000000000000000000600052601260045260246000fd5b6000611612826111a6565b915061161d836111a6565b92508261162d5761162c6115d8565b5b828206905092915050565b6000611643826111a6565b915061164e836111a6565b9250828203905081811115611666576116656113a9565b5b92915050565b7f4e487b7100000000000000000000000000000000000000000000000000000000600052603160045260246000fdfea26469706673582212207241d80d2e3ef187449bb567d2bce2452fec9aede90f972b431d2afc1278514064736f6c63430008130033",
  "immutableReferences": {},
  "source": "// SPDX-License-Identifier: MIT\npragma solidity >=0.8.19 <0.9.0;\n// import \"@openzeppelin/contracts-ethereum-package/contracts/math/SafeMath.sol\";\n\ncontract Battleship {\n  //structure that represent a single game\n  struct Game{\n    uint256 gameId;\n    address player1;\n    address player2;\n    uint256 grandPrize;\n    uint256 boardSize;\n    uint256 remainShipsP1;\n    uint256 remainShipsP2;\n    address playerTurn;\n    uint256 penaltyTimeout;\n    address accusedPlayer;\n    bool playable;\n  }\n\n  event returnGameId(address indexed _from, uint256 _gameId);\n  event gameStarted(uint256 _gameId, address indexed _player1, address indexed _player2, uint256 _grandPrize);\n  event gameReady(uint256 _gameId, address indexed _player1, address indexed _player2, uint256 _startTime);\n  event gameEnded(uint256 _gameId, address indexed _winner, address indexed _looser);\n  event accusationTrial(uint256 _gameId, address indexed _accuser, address indexed _accused);\n  error eventError(string _message);\n\n  //Array of all games present in the blockchain\n  mapping(uint256 => Game) public games;\n  //Game ID generator counter\n  uint256 public gameId=1;\n  //Available games array\n  uint256[] public availableGames;\n\n  uint256 public totalGames=0;\n  uint256 public START_TIME=15;\n  uint256 internal nonce=0;\n  Game public game;\n\n  constructor() {}\n\n  function getGameId() public returns (uint256) {\n    return gameId++;\n  }\n\n  function createGame(uint256 _grandPrize, uint256 _boardSize) public {\n    game=Game(getGameId(), \n              msg.sender, \n              address(0),\n              _grandPrize,\n              _boardSize,\n              5,\n              5,\n              address(0),\n              0,\n              address(0),\n              true);\n    games[game.gameId]=game;\n    availableGames.push(game.gameId);\n    totalGames++;\n    emit returnGameId(msg.sender, game.gameId);\n  }\n\n  function joinGameByGameId(uint256 _gameId) public {\n    if(games[_gameId].gameId==0)\n      revert eventError(\"No existing game with this ID \");\n\n    game=games[_gameId];\n    game.player2=msg.sender;\n    game.playable=false;\n    deleteElementFromArray(_gameId);\n    emit gameReady(_gameId, game.player1, msg.sender, START_TIME);\n  }\n\n  function joinRandomGame() public {\n    uint256 index=random();\n    uint256 i=0;\n    while(availableGames[index]==0 && i<10){\n      index=random();\n      i++;\n    }\n\n    if(i==10)\n      revert eventError(\"Something goes wrong, try again!\");\n    \n    game=games[index];\n    if(game.playable){\n      game.player2=msg.sender;\n      game.playable=false;\n      deleteElementFromArray(index);\n      emit gameReady(index, game.player1, msg.sender, START_TIME);\n    } else {\n      revert eventError(\"Something goes wrong, try again!\");\n    }\n    \n  }\n\n  function deleteElementFromArray(uint256 _element) internal {\n    for(uint256 i=0;i<availableGames.length;i++){\n      if(availableGames[i]==_element){\n        availableGames[i]=availableGames[availableGames.length-1];\n        availableGames.pop();\n        break;\n      }\n    }\n  }\n\n  function random() internal returns (uint256) {\n    uint256 randomnumber = uint(keccak256(abi.encodePacked(block.timestamp, block.prevrandao, msg.sender))) % availableGames.length;\n    nonce++;\n    return randomnumber;\n  }\n}\n",
  "sourcePath": "/home/nicola/Scrivania/Magistrale/P2P and Blockchains/Battleship-ETH/battleship/contracts/Battleship.sol",
  "compiler": {
    "name": "solc",
    "version": "0.8.19+commit.7dd6d404.Emscripten.clang"
  },
  "schemaVersion": "3.4.13",
  "updatedAt": "2023-07-05T17:28:31.375Z",
  "networkType": "ethereum",
  "devdoc": {
    "kind": "dev",
    "methods": {},
    "version": 1
  },
  "userdoc": {
    "kind": "user",
    "methods": {},
    "version": 1
  }
}